{"contracts/Thumbs.sol":{"Thumbs":{"abi":[{"inputs":[{"internalType":"address","name":"minter","type":"address"}],"stateMutability":"nonpayable","type":"constructor"},{"inputs":[{"internalType":"uint256","name":"_token","type":"uint256"}],"name":"tokenExist","type":"error"},{"anonymous":false,"inputs":[{"indexed":true,"internalType":"address","name":"owner","type":"address"},{"indexed":true,"internalType":"address","name":"approved","type":"address"},{"indexed":true,"internalType":"uint256","name":"tokenId","type":"uint256"}],"name":"Approval","type":"event"},{"anonymous":false,"inputs":[{"indexed":true,"internalType":"address","name":"owner","type":"address"},{"indexed":true,"internalType":"address","name":"operator","type":"address"},{"indexed":false,"internalType":"bool","name":"approved","type":"bool"}],"name":"ApprovalForAll","type":"event"},{"anonymous":false,"inputs":[{"indexed":false,"internalType":"uint256","name":"_fromTokenId","type":"uint256"},{"indexed":false,"internalType":"uint256","name":"_toTokenId","type":"uint256"}],"name":"BatchMetadataUpdate","type":"event"},{"anonymous":false,"inputs":[{"indexed":false,"internalType":"uint256","name":"_tokenId","type":"uint256"}],"name":"MetadataUpdate","type":"event"},{"anonymous":false,"inputs":[{"indexed":false,"internalType":"address","name":"account","type":"address"}],"name":"Paused","type":"event"},{"anonymous":false,"inputs":[{"indexed":true,"internalType":"bytes32","name":"role","type":"bytes32"},{"indexed":true,"internalType":"bytes32","name":"previousAdminRole","type":"bytes32"},{"indexed":true,"internalType":"bytes32","name":"newAdminRole","type":"bytes32"}],"name":"RoleAdminChanged","type":"event"},{"anonymous":false,"inputs":[{"indexed":true,"internalType":"bytes32","name":"role","type":"bytes32"},{"indexed":true,"internalType":"address","name":"account","type":"address"},{"indexed":true,"internalType":"address","name":"sender","type":"address"}],"name":"RoleGranted","type":"event"},{"anonymous":false,"inputs":[{"indexed":true,"internalType":"bytes32","name":"role","type":"bytes32"},{"indexed":true,"internalType":"address","name":"account","type":"address"},{"indexed":true,"internalType":"address","name":"sender","type":"address"}],"name":"RoleRevoked","type":"event"},{"anonymous":false,"inputs":[{"indexed":true,"internalType":"address","name":"from","type":"address"},{"indexed":true,"internalType":"address","name":"to","type":"address"},{"indexed":true,"internalType":"uint256","name":"tokenId","type":"uint256"}],"name":"Transfer","type":"event"},{"anonymous":false,"inputs":[{"indexed":false,"internalType":"address","name":"account","type":"address"}],"name":"Unpaused","type":"event"},{"anonymous":false,"inputs":[{"indexed":true,"internalType":"address","name":"_user","type":"address"},{"indexed":true,"internalType":"uint256","name":"amount","type":"uint256"}],"name":"UserPaid","type":"event"},{"inputs":[],"name":"DEFAULT_ADMIN_ROLE","outputs":[{"internalType":"bytes32","name":"","type":"bytes32"}],"stateMutability":"view","type":"function"},{"inputs":[],"name":"MINTER_ROLE","outputs":[{"internalType":"bytes32","name":"","type":"bytes32"}],"stateMutability":"view","type":"function"},{"inputs":[{"internalType":"uint256","name":"_amount","type":"uint256"},{"internalType":"address","name":"_user","type":"address"}],"name":"OGMint","outputs":[],"stateMutability":"payable","type":"function"},{"inputs":[{"internalType":"address","name":"","type":"address"}],"name":"OG_user_addresses","outputs":[{"internalType":"bool","name":"","type":"bool"}],"stateMutability":"view","type":"function"},{"inputs":[{"internalType":"address","name":"","type":"address"}],"name":"Og_minted_address","outputs":[{"internalType":"uint256","name":"","type":"uint256"}],"stateMutability":"view","type":"function"},{"inputs":[],"name":"PAUSER_ROLE","outputs":[{"internalType":"bytes32","name":"","type":"bytes32"}],"stateMutability":"view","type":"function"},{"inputs":[{"internalType":"address","name":"","type":"address"}],"name":"WL_user_addresses","outputs":[{"internalType":"bool","name":"","type":"bool"}],"stateMutability":"view","type":"function"},{"inputs":[{"internalType":"address","name":"","type":"address"}],"name":"amount_paid","outputs":[{"internalType":"uint256","name":"","type":"uint256"}],"stateMutability":"view","type":"function"},{"inputs":[{"internalType":"address","name":"to","type":"address"},{"internalType":"uint256","name":"tokenId","type":"uint256"}],"name":"approve","outputs":[],"stateMutability":"nonpayable","type":"function"},{"inputs":[{"internalType":"address","name":"owner","type":"address"}],"name":"balanceOf","outputs":[{"internalType":"uint256","name":"","type":"uint256"}],"stateMutability":"view","type":"function"},{"inputs":[],"name":"base_url","outputs":[{"internalType":"string","name":"","type":"string"}],"stateMutability":"view","type":"function"},{"inputs":[{"internalType":"uint256","name":"tokenId","type":"uint256"}],"name":"getApproved","outputs":[{"internalType":"address","name":"","type":"address"}],"stateMutability":"view","type":"function"},{"inputs":[{"internalType":"bytes32","name":"role","type":"bytes32"}],"name":"getRoleAdmin","outputs":[{"internalType":"bytes32","name":"","type":"bytes32"}],"stateMutability":"view","type":"function"},{"inputs":[{"internalType":"bytes32","name":"role","type":"bytes32"},{"internalType":"address","name":"account","type":"address"}],"name":"grantRole","outputs":[],"stateMutability":"nonpayable","type":"function"},{"inputs":[{"internalType":"bytes32","name":"role","type":"bytes32"},{"internalType":"address","name":"account","type":"address"}],"name":"hasRole","outputs":[{"internalType":"bool","name":"","type":"bool"}],"stateMutability":"view","type":"function"},{"inputs":[{"internalType":"address","name":"","type":"address"}],"name":"has_paid","outputs":[{"internalType":"bool","name":"","type":"bool"}],"stateMutability":"view","type":"function"},{"inputs":[{"internalType":"address","name":"owner","type":"address"},{"internalType":"address","name":"operator","type":"address"}],"name":"isApprovedForAll","outputs":[{"internalType":"bool","name":"","type":"bool"}],"stateMutability":"view","type":"function"},{"inputs":[],"name":"mintOG_Limit","outputs":[{"internalType":"uint256","name":"","type":"uint256"}],"stateMutability":"view","type":"function"},{"inputs":[],"name":"mintOG_price","outputs":[{"internalType":"uint256","name":"","type":"uint256"}],"stateMutability":"view","type":"function"},{"inputs":[],"name":"mintPublic_Limit","outputs":[{"internalType":"uint256","name":"","type":"uint256"}],"stateMutability":"view","type":"function"},{"inputs":[],"name":"mintPublic_price","outputs":[{"internalType":"uint256","name":"","type":"uint256"}],"stateMutability":"view","type":"function"},{"inputs":[],"name":"mintWL_Limit","outputs":[{"internalType":"uint256","name":"","type":"uint256"}],"stateMutability":"view","type":"function"},{"inputs":[],"name":"mintWL_price","outputs":[{"internalType":"uint256","name":"","type":"uint256"}],"stateMutability":"view","type":"function"},{"inputs":[],"name":"name","outputs":[{"internalType":"string","name":"","type":"string"}],"stateMutability":"view","type":"function"},{"inputs":[],"name":"noOfEntry","outputs":[{"internalType":"uint256","name":"","type":"uint256"}],"stateMutability":"view","type":"function"},{"inputs":[{"internalType":"uint256","name":"tokenId","type":"uint256"}],"name":"ownerOf","outputs":[{"internalType":"address","name":"","type":"address"}],"stateMutability":"view","type":"function"},{"inputs":[],"name":"paused","outputs":[{"internalType":"bool","name":"","type":"bool"}],"stateMutability":"view","type":"function"},{"inputs":[{"components":[{"internalType":"address","name":"_user","type":"address"},{"internalType":"uint256","name":"_amount","type":"uint256"}],"internalType":"struct Thumbs.automint[]","name":"_users","type":"tuple[]"}],"name":"presaleMint","outputs":[],"stateMutability":"nonpayable","type":"function"},{"inputs":[{"internalType":"uint256","name":"_amount","type":"uint256"},{"internalType":"address","name":"_user","type":"address"}],"name":"publicMint","outputs":[],"stateMutability":"payable","type":"function"},{"inputs":[{"internalType":"address","name":"","type":"address"}],"name":"public_minted_address","outputs":[{"internalType":"uint256","name":"","type":"uint256"}],"stateMutability":"view","type":"function"},{"inputs":[{"internalType":"bytes32","name":"role","type":"bytes32"},{"internalType":"address","name":"account","type":"address"}],"name":"renounceRole","outputs":[],"stateMutability":"nonpayable","type":"function"},{"inputs":[{"internalType":"uint256","name":"_no","type":"uint256"}],"name":"resetNoOfEntry","outputs":[],"stateMutability":"nonpayable","type":"function"},{"inputs":[{"internalType":"bytes32","name":"role","type":"bytes32"},{"internalType":"address","name":"account","type":"address"}],"name":"revokeRole","outputs":[],"stateMutability":"nonpayable","type":"function"},{"inputs":[{"internalType":"address","name":"from","type":"address"},{"internalType":"address","name":"to","type":"address"},{"internalType":"uint256","name":"tokenId","type":"uint256"}],"name":"safeTransferFrom","outputs":[],"stateMutability":"nonpayable","type":"function"},{"inputs":[{"internalType":"address","name":"from","type":"address"},{"internalType":"address","name":"to","type":"address"},{"internalType":"uint256","name":"tokenId","type":"uint256"},{"internalType":"bytes","name":"data","type":"bytes"}],"name":"safeTransferFrom","outputs":[],"stateMutability":"nonpayable","type":"function"},{"inputs":[{"internalType":"uint256","name":"","type":"uint256"}],"name":"sequence","outputs":[{"internalType":"uint256","name":"","type":"uint256"}],"stateMutability":"view","type":"function"},{"inputs":[{"internalType":"uint256","name":"","type":"uint256"}],"name":"sequence_tokenId","outputs":[{"internalType":"bool","name":"","type":"bool"}],"stateMutability":"view","type":"function"},{"inputs":[{"internalType":"address","name":"operator","type":"address"},{"internalType":"bool","name":"approved","type":"bool"}],"name":"setApprovalForAll","outputs":[],"stateMutability":"nonpayable","type":"function"},{"inputs":[{"internalType":"string","name":"_uri","type":"string"}],"name":"setBaseUrl","outputs":[],"stateMutability":"nonpayable","type":"function"},{"inputs":[{"internalType":"uint256","name":"_perWalletOGLimit","type":"uint256"},{"internalType":"uint256","name":"_perWalletWLLimit","type":"uint256"},{"internalType":"uint256","name":"_perWalletPublicLimit","type":"uint256"}],"name":"setMintLimit","outputs":[],"stateMutability":"nonpayable","type":"function"},{"inputs":[{"internalType":"uint256","name":"_OG","type":"uint256"},{"internalType":"uint256","name":"_WL","type":"uint256"},{"internalType":"uint256","name":"_PUBLIC","type":"uint256"}],"name":"setMintPrice","outputs":[],"stateMutability":"nonpayable","type":"function"},{"inputs":[{"internalType":"uint256","name":"_supply","type":"uint256"}],"name":"setMintSupply","outputs":[],"stateMutability":"nonpayable","type":"function"},{"inputs":[{"internalType":"bool","name":"_og","type":"bool"},{"internalType":"bool","name":"_wl","type":"bool"},{"internalType":"bool","name":"_public","type":"bool"}],"name":"setMintType","outputs":[],"stateMutability":"nonpayable","type":"function"},{"inputs":[{"internalType":"address[]","name":"_accounts","type":"address[]"}],"name":"setOgWhiteList","outputs":[],"stateMutability":"nonpayable","type":"function"},{"inputs":[{"internalType":"uint256[]","name":"_sequence","type":"uint256[]"}],"name":"setOldSequence","outputs":[],"stateMutability":"nonpayable","type":"function"},{"inputs":[{"internalType":"uint256[]","name":"_sequence","type":"uint256[]"}],"name":"setSequence","outputs":[],"stateMutability":"nonpayable","type":"function"},{"inputs":[{"internalType":"address","name":"_account","type":"address"}],"name":"setTreasuryWallet","outputs":[],"stateMutability":"nonpayable","type":"function"},{"inputs":[{"internalType":"address[]","name":"_accounts","type":"address[]"}],"name":"setWLWhiteList","outputs":[],"stateMutability":"nonpayable","type":"function"},{"inputs":[],"name":"supply","outputs":[{"internalType":"uint256","name":"","type":"uint256"}],"stateMutability":"view","type":"function"},{"inputs":[{"internalType":"bytes4","name":"interfaceId","type":"bytes4"}],"name":"supportsInterface","outputs":[{"internalType":"bool","name":"","type":"bool"}],"stateMutability":"view","type":"function"},{"inputs":[],"name":"symbol","outputs":[{"internalType":"string","name":"","type":"string"}],"stateMutability":"view","type":"function"},{"inputs":[{"internalType":"uint256","name":"tokenId","type":"uint256"}],"name":"tokenURI","outputs":[{"internalType":"string","name":"","type":"string"}],"stateMutability":"view","type":"function"},{"inputs":[],"name":"totalSupply","outputs":[{"internalType":"uint256","name":"","type":"uint256"}],"stateMutability":"view","type":"function"},{"inputs":[{"internalType":"address","name":"from","type":"address"},{"internalType":"address","name":"to","type":"address"},{"internalType":"uint256","name":"tokenId","type":"uint256"}],"name":"transferFrom","outputs":[],"stateMutability":"nonpayable","type":"function"},{"inputs":[],"name":"treasury","outputs":[{"internalType":"address","name":"","type":"address"}],"stateMutability":"view","type":"function"},{"inputs":[{"internalType":"uint256","name":"_amount","type":"uint256"}],"name":"treasuryMint","outputs":[],"stateMutability":"nonpayable","type":"function"},{"inputs":[],"name":"withdraw","outputs":[],"stateMutability":"nonpayable","type":"function"},{"inputs":[],"name":"withdrawAdmin","outputs":[],"stateMutability":"nonpayable","type":"function"},{"inputs":[{"internalType":"uint256","name":"_amount","type":"uint256"},{"internalType":"address","name":"_user","type":"address"}],"name":"wlMint","outputs":[],"stateMutability":"payable","type":"function"},{"inputs":[{"internalType":"address","name":"","type":"address"}],"name":"wl_minted_address","outputs":[{"internalType":"uint256","name":"","type":"uint256"}],"stateMutability":"view","type":"function"},{"stateMutability":"payable","type":"receive"}],"evm":{"bytecode":{"linkReferences":{},"object":"60806040526113c16016556000601755604051806080016040528060568152602001620068d860569139601c90816200003991906200064b565b503480156200004757600080fd5b506040516200692e3803806200692e83398181016040528101906200006d91906200079c565b6040518060400160405280600681526020017f5468756d627300000000000000000000000000000000000000000000000000008152506040518060400160405280600681526020017f5448554d425300000000000000000000000000000000000000000000000000008152508160009081620000ea91906200064b565b508060019081620000fc91906200064b565b5050506000600760006101000a81548160ff02191690831515021790555033600c60006101000a81548173ffffffffffffffffffffffffffffffffffffffff021916908373ffffffffffffffffffffffffffffffffffffffff160217905550620001706000801b336200026c60201b60201c565b620001a27f65d7a28e3265b37a6474929f336521b332c1681b933f6cb9f3376673440d862a336200026c60201b60201c565b620001d47f9f2df0fed2c77648de5860a4cc508cd0818c85b8b8a1ab4ceeef8d981c8956a6336200026c60201b60201c565b620001e96000801b826200026c60201b60201c565b6200021b7f65d7a28e3265b37a6474929f336521b332c1681b933f6cb9f3376673440d862a826200026c60201b60201c565b6200024d7f9f2df0fed2c77648de5860a4cc508cd0818c85b8b8a1ab4ceeef8d981c8956a6826200026c60201b60201c565b6000601b819055506000600981905550600260188190555050620007ce565b6200027e82826200035e60201b60201c565b6200035a5760016008600084815260200190815260200160002060000160008373ffffffffffffffffffffffffffffffffffffffff1673ffffffffffffffffffffffffffffffffffffffff16815260200190815260200160002060006101000a81548160ff021916908315150217905550620002ff620003c960201b60201c565b73ffffffffffffffffffffffffffffffffffffffff168173ffffffffffffffffffffffffffffffffffffffff16837f2f8788117e7eff1d82e926ec794901d17c78024a50270940304540a733656f0d60405160405180910390a45b5050565b60006008600084815260200190815260200160002060000160008373ffffffffffffffffffffffffffffffffffffffff1673ffffffffffffffffffffffffffffffffffffffff16815260200190815260200160002060009054906101000a900460ff16905092915050565b600033905090565b600081519050919050565b7f4e487b7100000000000000000000000000000000000000000000000000000000600052604160045260246000fd5b7f4e487b7100000000000000000000000000000000000000000000000000000000600052602260045260246000fd5b600060028204905060018216806200045357607f821691505b6020821081036200046957620004686200040b565b5b50919050565b60008190508160005260206000209050919050565b60006020601f8301049050919050565b600082821b905092915050565b600060088302620004d37fffffffffffffffffffffffffffffffffffffffffffffffffffffffffffffffff8262000494565b620004df868362000494565b95508019841693508086168417925050509392505050565b6000819050919050565b6000819050919050565b60006200052c620005266200052084620004f7565b62000501565b620004f7565b9050919050565b6000819050919050565b62000548836200050b565b62000560620005578262000533565b848454620004a1565b825550505050565b600090565b6200057762000568565b620005848184846200053d565b505050565b5b81811015620005ac57620005a06000826200056d565b6001810190506200058a565b5050565b601f821115620005fb57620005c5816200046f565b620005d08462000484565b81016020851015620005e0578190505b620005f8620005ef8562000484565b83018262000589565b50505b505050565b600082821c905092915050565b6000620006206000198460080262000600565b1980831691505092915050565b60006200063b83836200060d565b9150826002028217905092915050565b6200065682620003d1565b67ffffffffffffffff811115620006725762000671620003dc565b5b6200067e82546200043a565b6200068b828285620005b0565b600060209050601f831160018114620006c35760008415620006ae578287015190505b620006ba85826200062d565b8655506200072a565b601f198416620006d3866200046f565b60005b82811015620006fd57848901518255600182019150602085019450602081019050620006d6565b868310156200071d578489015162000719601f8916826200060d565b8355505b6001600288020188555050505b505050505050565b600080fd5b600073ffffffffffffffffffffffffffffffffffffffff82169050919050565b6000620007648262000737565b9050919050565b620007768162000757565b81146200078257600080fd5b50565b60008151905062000796816200076b565b92915050565b600060208284031215620007b557620007b462000732565b5b6000620007c58482850162000785565b91505092915050565b6160fa80620007de6000396000f3fe60806040526004361061039a5760003560e01c80637192e111116101dc578063b88d4fde11610102578063d5391393116100a0578063e63ab1e91161006f578063e63ab1e914610e7f578063e985e9c514610eaa578063eda1d5e914610ee7578063efdc778814610f2457610481565b8063d539139314610dd7578063d547741f14610e02578063e1497a5514610e2b578063e62f49c914610e5657610481565b8063bf9e4a86116100dc578063bf9e4a8614610d09578063c7c3268b14610d34578063c87b56dd14610d5d578063d3fc8cdf14610d9a57610481565b8063b88d4fde14610c7a578063b92dee7014610ca3578063be14b0b714610ce057610481565b8063a10de0221161017a578063a8602fea11610149578063a8602fea14610bcf578063abe853e314610bf8578063ac568e8414610c35578063b690caca14610c5e57610481565b8063a10de02214610b01578063a217fddf14610b3e578063a22cb46514610b69578063a50dcc6214610b9257610481565b806391d14854116101b657806391d1485414610a4557806393e0cdf214610a8257806395d89b4114610aab5780639b4140ca14610ad657610481565b80637192e111146109c657806381942b68146109ef57806386d77fd414610a1a57610481565b8063319948ba116102c157806342842e0e1161025f5780636352211e1161022e5780636352211e146108e6578063637dd2fc1461092357806370a082311461094c578063711e32151461098957610481565b806342842e0e1461083e5780634e6a2690146108675780635c975abb1461089057806361d027b3146108bb57610481565b806336568abe1161029b57806336568abe146107a557806337ad286a146107ce5780633ccfd60b1461080b57806341a38e7f1461082257610481565b8063319948ba1461071457806333190f701461073d57806333a1bb261461077a57610481565b8063095ea7b31161033957806323b872dd1161030857806323b872dd1461065c578063248a9ca3146106855780632a2308de146106c25780632f2ff15d146106eb57610481565b8063095ea7b3146105b2578063144bee42146105db57806318160ddd1461060657806323297f501461063157610481565b8063047fc9aa11610375578063047fc9aa1461050857806304c76af01461053357806306fdde031461054a578063081812fc1461057557610481565b80621632891461048657806301ffc9a7146104a2578063039122f3146104df57610481565b36610481576001601d60003373ffffffffffffffffffffffffffffffffffffffff1673ffffffffffffffffffffffffffffffffffffffff16815260200190815260200160002060006101000a81548160ff02191690831515021790555034601e60003373ffffffffffffffffffffffffffffffffffffffff1673ffffffffffffffffffffffffffffffffffffffff16815260200190815260200160002081905550343373ffffffffffffffffffffffffffffffffffffffff167f188c4d19b4fadd1889d9bd9bf0ab7c97e0719434751e6c05feac6339c1c001ec60405160405180910390a3005b600080fd5b6104a0600480360381019061049b9190614188565b610f4d565b005b3480156104ae57600080fd5b506104c960048036038101906104c49190614220565b6112ac565b6040516104d69190614268565b60405180910390f35b3480156104eb57600080fd5b5061050660048036038101906105019190614283565b6112be565b005b34801561051457600080fd5b5061051d6112d6565b60405161052a91906142bf565b60405180910390f35b34801561053f57600080fd5b506105486112dc565b005b34801561055657600080fd5b5061055f611366565b60405161056c919061436a565b60405180910390f35b34801561058157600080fd5b5061059c60048036038101906105979190614283565b6113f8565b6040516105a9919061439b565b60405180910390f35b3480156105be57600080fd5b506105d960048036038101906105d491906143b6565b61143e565b005b3480156105e757600080fd5b506105f0611555565b6040516105fd91906142bf565b60405180910390f35b34801561061257600080fd5b5061061b61155b565b60405161062891906142bf565b60405180910390f35b34801561063d57600080fd5b50610646611561565b60405161065391906142bf565b60405180910390f35b34801561066857600080fd5b50610683600480360381019061067e91906143f6565b611567565b005b34801561069157600080fd5b506106ac60048036038101906106a7919061447f565b6115c7565b6040516106b991906144bb565b60405180910390f35b3480156106ce57600080fd5b506106e960048036038101906106e4919061461e565b6115e7565b005b3480156106f757600080fd5b50610712600480360381019061070d9190614667565b611666565b005b34801561072057600080fd5b5061073b600480360381019061073691906146a7565b611687565b005b34801561074957600080fd5b50610764600480360381019061075f91906146fa565b6116af565b60405161077191906142bf565b60405180910390f35b34801561078657600080fd5b5061078f6116c7565b60405161079c919061436a565b60405180910390f35b3480156107b157600080fd5b506107cc60048036038101906107c79190614667565b611755565b005b3480156107da57600080fd5b506107f560048036038101906107f091906146fa565b6117d8565b6040516108029190614268565b60405180910390f35b34801561081757600080fd5b506108206117f8565b005b61083c60048036038101906108379190614188565b6119dc565b005b34801561084a57600080fd5b50610865600480360381019061086091906143f6565b611cab565b005b34801561087357600080fd5b5061088e60048036038101906108899190614753565b611ccb565b005b34801561089c57600080fd5b506108a5611d2c565b6040516108b29190614268565b60405180910390f35b3480156108c757600080fd5b506108d0611d43565b6040516108dd919061439b565b60405180910390f35b3480156108f257600080fd5b5061090d60048036038101906109089190614283565b611d69565b60405161091a919061439b565b60405180910390f35b34801561092f57600080fd5b5061094a60048036038101906109459190614869565b611def565b005b34801561095857600080fd5b50610973600480360381019061096e91906146fa565b611e92565b60405161098091906142bf565b60405180910390f35b34801561099557600080fd5b506109b060048036038101906109ab9190614283565b611f49565b6040516109bd91906142bf565b60405180910390f35b3480156109d257600080fd5b506109ed60048036038101906109e891906146a7565b611f61565b005b3480156109fb57600080fd5b50610a04611f89565b604051610a1191906142bf565b60405180910390f35b348015610a2657600080fd5b50610a2f611f8f565b604051610a3c91906142bf565b60405180910390f35b348015610a5157600080fd5b50610a6c6004803603810190610a679190614667565b611f95565b604051610a799190614268565b60405180910390f35b348015610a8e57600080fd5b50610aa96004803603810190610aa49190614869565b612000565b005b348015610ab757600080fd5b50610ac06120a3565b604051610acd919061436a565b60405180910390f35b348015610ae257600080fd5b50610aeb612135565b604051610af891906142bf565b60405180910390f35b348015610b0d57600080fd5b50610b286004803603810190610b2391906146fa565b61213b565b604051610b3591906142bf565b60405180910390f35b348015610b4a57600080fd5b50610b53612153565b604051610b6091906144bb565b60405180910390f35b348015610b7557600080fd5b50610b906004803603810190610b8b91906148b2565b61215a565b005b348015610b9e57600080fd5b50610bb96004803603810190610bb491906146fa565b612170565b604051610bc69190614268565b60405180910390f35b348015610bdb57600080fd5b50610bf66004803603810190610bf191906146fa565b612190565b005b348015610c0457600080fd5b50610c1f6004803603810190610c1a91906146fa565b6121e2565b604051610c2c91906142bf565b60405180910390f35b348015610c4157600080fd5b50610c5c6004803603810190610c579190614283565b6121fa565b005b610c786004803603810190610c739190614188565b612212565b005b348015610c8657600080fd5b50610ca16004803603810190610c9c91906149a7565b612571565b005b348015610caf57600080fd5b50610cca6004803603810190610cc59190614283565b6125d3565b604051610cd79190614268565b60405180910390f35b348015610cec57600080fd5b50610d076004803603810190610d029190614b42565b6125f3565b005b348015610d1557600080fd5b50610d1e61275d565b604051610d2b91906142bf565b60405180910390f35b348015610d4057600080fd5b50610d5b6004803603810190610d569190614c2c565b612763565b005b348015610d6957600080fd5b50610d846004803603810190610d7f9190614283565b612784565b604051610d91919061436a565b60405180910390f35b348015610da657600080fd5b50610dc16004803603810190610dbc91906146fa565b612796565b604051610dce9190614268565b60405180910390f35b348015610de357600080fd5b50610dec6127b6565b604051610df991906144bb565b60405180910390f35b348015610e0e57600080fd5b50610e296004803603810190610e249190614667565b6127da565b005b348015610e3757600080fd5b50610e406127fb565b604051610e4d91906142bf565b60405180910390f35b348015610e6257600080fd5b50610e7d6004803603810190610e78919061461e565b612801565b005b348015610e8b57600080fd5b50610e94612963565b604051610ea191906144bb565b60405180910390f35b348015610eb657600080fd5b50610ed16004803603810190610ecc9190614c75565b612987565b604051610ede9190614268565b60405180910390f35b348015610ef357600080fd5b50610f0e6004803603810190610f0991906146fa565b612a1b565b604051610f1b91906142bf565b60405180910390f35b348015610f3057600080fd5b50610f4b6004803603810190610f469190614283565b612a33565b005b8181601560009054906101000a900460ff16610f9e576040517f08c379a0000000000000000000000000000000000000000000000000000000008152600401610f9590614d01565b60405180910390fd5b60165482601b54610faf9190614d50565b1115610ff0576040517f08c379a0000000000000000000000000000000000000000000000000000000008152600401610fe790614dd0565b60405180910390fd5b600e60008273ffffffffffffffffffffffffffffffffffffffff1673ffffffffffffffffffffffffffffffffffffffff16815260200190815260200160002060009054906101000a900460ff1661107c576040517f08c379a000000000000000000000000000000000000000000000000000000000815260040161107390614e62565b60405180910390fd5b601854601160008373ffffffffffffffffffffffffffffffffffffffff1673ffffffffffffffffffffffffffffffffffffffff168152602001908152602001600020541115611100576040517f08c379a00000000000000000000000000000000000000000000000000000000081526004016110f790614ece565b60405180910390fd5b60185482601160008473ffffffffffffffffffffffffffffffffffffffff1673ffffffffffffffffffffffffffffffffffffffff1681526020019081526020016000205461114e9190614d50565b111561118f576040517f08c379a000000000000000000000000000000000000000000000000000000000815260040161118690614f3a565b60405180910390fd5b346009548361119e9190614f5a565b11156111df576040517f08c379a00000000000000000000000000000000000000000000000000000000081526004016111d690614fe8565b60405180910390fd5b60005b848110156112a557600060146000601b5481526020019081526020016000205490506001601b60008282546112179190614d50565b925050819055506001601160008773ffffffffffffffffffffffffffffffffffffffff1673ffffffffffffffffffffffffffffffffffffffff168152602001908152602001600020600082825461126e9190614d50565b9250508190555061127f8582612b28565b6112918161128c83612d45565b612d79565b50808061129d90615008565b9150506111e2565b5050505050565b60006112b782612e1d565b9050919050565b6000801b6112cb81612e97565b816017819055505050565b60165481565b6000801b6112e981612e97565b60003373ffffffffffffffffffffffffffffffffffffffff166108fc479081150290604051600060405180830381858888f19350505050905080611362576040517f08c379a00000000000000000000000000000000000000000000000000000000081526004016113599061509c565b60405180910390fd5b5050565b606060008054611375906150eb565b80601f01602080910402602001604051908101604052809291908181526020018280546113a1906150eb565b80156113ee5780601f106113c3576101008083540402835291602001916113ee565b820191906000526020600020905b8154815290600101906020018083116113d157829003601f168201915b5050505050905090565b600061140382612eab565b6004600083815260200190815260200160002060009054906101000a900473ffffffffffffffffffffffffffffffffffffffff169050919050565b600061144982611d69565b90508073ffffffffffffffffffffffffffffffffffffffff168373ffffffffffffffffffffffffffffffffffffffff16036114b9576040517f08c379a00000000000000000000000000000000000000000000000000000000081526004016114b09061518e565b60405180910390fd5b8073ffffffffffffffffffffffffffffffffffffffff166114d8612ef6565b73ffffffffffffffffffffffffffffffffffffffff161480611507575061150681611501612ef6565b612987565b5b611546576040517f08c379a000000000000000000000000000000000000000000000000000000000815260040161153d90615220565b60405180910390fd5b6115508383612efe565b505050565b60175481565b601b5481565b60095481565b611578611572612ef6565b82612fb7565b6115b7576040517f08c379a00000000000000000000000000000000000000000000000000000000081526004016115ae906152b2565b60405180910390fd5b6115c283838361304c565b505050565b600060086000838152602001908152602001600020600101549050919050565b6000801b6115f481612e97565b60005b825181101561166157828181518110611613576116126152d2565b5b6020026020010151601460006017548152602001908152602001600020819055506001601760008282546116479190614d50565b92505081905550808061165990615008565b9150506115f7565b505050565b61166f826115c7565b61167881612e97565b6116828383613345565b505050565b6000801b61169481612e97565b8360098190555082600a8190555081600b8190555050505050565b601e6020528060005260406000206000915090505481565b601c80546116d4906150eb565b80601f0160208091040260200160405190810160405280929190818152602001828054611700906150eb565b801561174d5780601f106117225761010080835404028352916020019161174d565b820191906000526020600020905b81548152906001019060200180831161173057829003601f168201915b505050505081565b61175d612ef6565b73ffffffffffffffffffffffffffffffffffffffff168173ffffffffffffffffffffffffffffffffffffffff16146117ca576040517f08c379a00000000000000000000000000000000000000000000000000000000081526004016117c190615373565b60405180910390fd5b6117d48282613426565b5050565b600f6020528060005260406000206000915054906101000a900460ff1681565b601d60003373ffffffffffffffffffffffffffffffffffffffff1673ffffffffffffffffffffffffffffffffffffffff16815260200190815260200160002060009054906101000a900460ff16611884576040517f08c379a000000000000000000000000000000000000000000000000000000000815260040161187b906153df565b60405180910390fd5b6000601d60003373ffffffffffffffffffffffffffffffffffffffff1673ffffffffffffffffffffffffffffffffffffffff16815260200190815260200160002060006101000a81548160ff0219169083151502179055506000601e60003373ffffffffffffffffffffffffffffffffffffffff1673ffffffffffffffffffffffffffffffffffffffff1681526020019081526020016000208190555060003373ffffffffffffffffffffffffffffffffffffffff166108fc601e60003373ffffffffffffffffffffffffffffffffffffffff1673ffffffffffffffffffffffffffffffffffffffff168152602001908152602001600020549081150290604051600060405180830381858888f193505050509050806119d9576040517f08c379a00000000000000000000000000000000000000000000000000000000081526004016119d09061509c565b60405180910390fd5b50565b601560029054906101000a900460ff16611a2b576040517f08c379a0000000000000000000000000000000000000000000000000000000008152600401611a229061544b565b60405180910390fd5b60165482601b54611a3c9190614d50565b1115611a7d576040517f08c379a0000000000000000000000000000000000000000000000000000000008152600401611a7490614dd0565b60405180910390fd5b601a54601360008373ffffffffffffffffffffffffffffffffffffffff1673ffffffffffffffffffffffffffffffffffffffff168152602001908152602001600020541115611b01576040517f08c379a0000000000000000000000000000000000000000000000000000000008152600401611af8906154b7565b60405180910390fd5b601a5482601360008473ffffffffffffffffffffffffffffffffffffffff1673ffffffffffffffffffffffffffffffffffffffff16815260200190815260200160002054611b4f9190614d50565b1115611b90576040517f08c379a0000000000000000000000000000000000000000000000000000000008152600401611b8790614f3a565b60405180910390fd5b34600b5483611b9f9190614f5a565b1115611be0576040517f08c379a0000000000000000000000000000000000000000000000000000000008152600401611bd790614fe8565b60405180910390fd5b60005b82811015611ca657600060146000601b5481526020019081526020016000205490506001601b6000828254611c189190614d50565b925050819055506001601360008573ffffffffffffffffffffffffffffffffffffffff1673ffffffffffffffffffffffffffffffffffffffff1681526020019081526020016000206000828254611c6f9190614d50565b92505081905550611c808382612b28565b611c9281611c8d83612d45565b612d79565b508080611c9e90615008565b915050611be3565b505050565b611cc683838360405180602001604052806000815250612571565b505050565b6000801b611cd881612e97565b83601560006101000a81548160ff02191690831515021790555082601560016101000a81548160ff02191690831515021790555081601560026101000a81548160ff02191690831515021790555050505050565b6000600760009054906101000a900460ff16905090565b600d60009054906101000a900473ffffffffffffffffffffffffffffffffffffffff1681565b600080611d7583613508565b9050600073ffffffffffffffffffffffffffffffffffffffff168173ffffffffffffffffffffffffffffffffffffffff1603611de6576040517f08c379a0000000000000000000000000000000000000000000000000000000008152600401611ddd90615523565b60405180910390fd5b80915050919050565b6000801b611dfc81612e97565b60005b8251811015611e8d576001600e6000858481518110611e2157611e206152d2565b5b602002602001015173ffffffffffffffffffffffffffffffffffffffff1673ffffffffffffffffffffffffffffffffffffffff16815260200190815260200160002060006101000a81548160ff0219169083151502179055508080611e8590615008565b915050611dff565b505050565b60008073ffffffffffffffffffffffffffffffffffffffff168273ffffffffffffffffffffffffffffffffffffffff1603611f02576040517f08c379a0000000000000000000000000000000000000000000000000000000008152600401611ef9906155b5565b60405180910390fd5b600360008373ffffffffffffffffffffffffffffffffffffffff1673ffffffffffffffffffffffffffffffffffffffff168152602001908152602001600020549050919050565b60146020528060005260406000206000915090505481565b6000801b611f6e81612e97565b836018819055508260198190555081601a8190555050505050565b601a5481565b60195481565b60006008600084815260200190815260200160002060000160008373ffffffffffffffffffffffffffffffffffffffff1673ffffffffffffffffffffffffffffffffffffffff16815260200190815260200160002060009054906101000a900460ff16905092915050565b6000801b61200d81612e97565b60005b825181101561209e576001600f6000858481518110612032576120316152d2565b5b602002602001015173ffffffffffffffffffffffffffffffffffffffff1673ffffffffffffffffffffffffffffffffffffffff16815260200190815260200160002060006101000a81548160ff021916908315150217905550808061209690615008565b915050612010565b505050565b6060600180546120b2906150eb565b80601f01602080910402602001604051908101604052809291908181526020018280546120de906150eb565b801561212b5780601f106121005761010080835404028352916020019161212b565b820191906000526020600020905b81548152906001019060200180831161210e57829003601f168201915b5050505050905090565b60185481565b60116020528060005260406000206000915090505481565b6000801b81565b61216c612165612ef6565b8383613545565b5050565b600e6020528060005260406000206000915054906101000a900460ff1681565b6000801b61219d81612e97565b81600d60006101000a81548173ffffffffffffffffffffffffffffffffffffffff021916908373ffffffffffffffffffffffffffffffffffffffff1602179055505050565b60126020528060005260406000206000915090505481565b6000801b61220781612e97565b816016819055505050565b8181601560019054906101000a900460ff16612263576040517f08c379a000000000000000000000000000000000000000000000000000000000815260040161225a90615621565b60405180910390fd5b60165482601b546122749190614d50565b11156122b5576040517f08c379a00000000000000000000000000000000000000000000000000000000081526004016122ac90614dd0565b60405180910390fd5b600f60008273ffffffffffffffffffffffffffffffffffffffff1673ffffffffffffffffffffffffffffffffffffffff16815260200190815260200160002060009054906101000a900460ff16612341576040517f08c379a0000000000000000000000000000000000000000000000000000000008152600401612338906156b3565b60405180910390fd5b601954601260008373ffffffffffffffffffffffffffffffffffffffff1673ffffffffffffffffffffffffffffffffffffffff1681526020019081526020016000205411156123c5576040517f08c379a00000000000000000000000000000000000000000000000000000000081526004016123bc90614ece565b60405180910390fd5b60195482601260008473ffffffffffffffffffffffffffffffffffffffff1673ffffffffffffffffffffffffffffffffffffffff168152602001908152602001600020546124139190614d50565b1115612454576040517f08c379a000000000000000000000000000000000000000000000000000000000815260040161244b90614f3a565b60405180910390fd5b34600a54836124639190614f5a565b11156124a4576040517f08c379a000000000000000000000000000000000000000000000000000000000815260040161249b90614fe8565b60405180910390fd5b60005b8481101561256a57600060146000601b5481526020019081526020016000205490506001601b60008282546124dc9190614d50565b925050819055506001601260008773ffffffffffffffffffffffffffffffffffffffff1673ffffffffffffffffffffffffffffffffffffffff16815260200190815260200160002060008282546125339190614d50565b925050819055506125448582612b28565b6125568161255183612d45565b612d79565b50808061256290615008565b9150506124a7565b5050505050565b61258261257c612ef6565b83612fb7565b6125c1576040517f08c379a00000000000000000000000000000000000000000000000000000000081526004016125b8906152b2565b60405180910390fd5b6125cd848484846136b1565b50505050565b60106020528060005260406000206000915054906101000a900460ff1681565b7f9f2df0fed2c77648de5860a4cc508cd0818c85b8b8a1ab4ceeef8d981c8956a661261d81612e97565b60005b82518110156127585760005b83828151811061263f5761263e6152d2565b5b60200260200101516020015181101561274457601654848381518110612668576126676152d2565b5b602002602001015160200151601b546126819190614d50565b11156126c2576040517f08c379a00000000000000000000000000000000000000000000000000000000081526004016126b990614dd0565b60405180910390fd5b600060146000601b5481526020019081526020016000205490506001601b60008282546126ef9190614d50565b9250508190555061271e85848151811061270c5761270b6152d2565b5b60200260200101516000015182612b28565b6127308161272b83612d45565b612d79565b50808061273c90615008565b91505061262c565b50808061275090615008565b915050612620565b505050565b600b5481565b6000801b61277081612e97565b81601c908161277f919061587f565b505050565b606061278f82612d45565b9050919050565b601d6020528060005260406000206000915054906101000a900460ff1681565b7f9f2df0fed2c77648de5860a4cc508cd0818c85b8b8a1ab4ceeef8d981c8956a681565b6127e3826115c7565b6127ec81612e97565b6127f68383613426565b505050565b600a5481565b6000801b61280e81612e97565b60005b825181101561295e576001151560106000858481518110612835576128346152d2565b5b6020026020010151815260200190815260200160002060009054906101000a900460ff161515036128b757828181518110612873576128726152d2565b5b60200260200101516040517fcc0c52360000000000000000000000000000000000000000000000000000000081526004016128ae91906142bf565b60405180910390fd5b8281815181106128ca576128c96152d2565b5b602002602001015160146000601754815260200190815260200160002081905550600160106000858481518110612904576129036152d2565b5b6020026020010151815260200190815260200160002060006101000a81548160ff0219169083151502179055506001601760008282546129449190614d50565b92505081905550808061295690615008565b915050612811565b505050565b7f65d7a28e3265b37a6474929f336521b332c1681b933f6cb9f3376673440d862a81565b6000600560008473ffffffffffffffffffffffffffffffffffffffff1673ffffffffffffffffffffffffffffffffffffffff16815260200190815260200160002060008373ffffffffffffffffffffffffffffffffffffffff1673ffffffffffffffffffffffffffffffffffffffff16815260200190815260200160002060009054906101000a900460ff16905092915050565b60136020528060005260406000206000915090505481565b6000801b612a4081612e97565b60165482601b54612a519190614d50565b1115612a92576040517f08c379a0000000000000000000000000000000000000000000000000000000008152600401612a8990614dd0565b60405180910390fd5b60005b82811015612b2357600060146000601b5481526020019081526020016000205490506001601b6000828254612aca9190614d50565b92505081905550612afd600d60009054906101000a900473ffffffffffffffffffffffffffffffffffffffff1682612b28565b612b0f81612b0a83612d45565b612d79565b508080612b1b90615008565b915050612a95565b505050565b600073ffffffffffffffffffffffffffffffffffffffff168273ffffffffffffffffffffffffffffffffffffffff1603612b97576040517f08c379a0000000000000000000000000000000000000000000000000000000008152600401612b8e9061599d565b60405180910390fd5b612ba08161370d565b15612be0576040517f08c379a0000000000000000000000000000000000000000000000000000000008152600401612bd790615a09565b60405180910390fd5b612bee60008383600161374e565b612bf78161370d565b15612c37576040517f08c379a0000000000000000000000000000000000000000000000000000000008152600401612c2e90615a09565b60405180910390fd5b6001600360008473ffffffffffffffffffffffffffffffffffffffff1673ffffffffffffffffffffffffffffffffffffffff16815260200190815260200160002060008282540192505081905550816002600083815260200190815260200160002060006101000a81548173ffffffffffffffffffffffffffffffffffffffff021916908373ffffffffffffffffffffffffffffffffffffffff160217905550808273ffffffffffffffffffffffffffffffffffffffff16600073ffffffffffffffffffffffffffffffffffffffff167fddf252ad1be2c89b69c2b068fc378daa952ba7f163c4a11628f55a4df523b3ef60405160405180910390a4612d41600083836001613874565b5050565b6060601c612d528361387a565b604051602001612d63929190615b34565b6040516020818303038152906040529050919050565b612d828261370d565b612dc1576040517f08c379a0000000000000000000000000000000000000000000000000000000008152600401612db890615bd5565b60405180910390fd5b80600660008481526020019081526020016000209081612de1919061587f565b507ff8e1a15aba9398e019f0b49df1a4fde98ee17ae345cb5f6b5e2c27f5033e8ce782604051612e1191906142bf565b60405180910390a15050565b60007f7965db0b000000000000000000000000000000000000000000000000000000007bffffffffffffffffffffffffffffffffffffffffffffffffffffffff1916827bffffffffffffffffffffffffffffffffffffffffffffffffffffffff19161480612e905750612e8f82613948565b5b9050919050565b612ea881612ea3612ef6565b6139a9565b50565b612eb48161370d565b612ef3576040517f08c379a0000000000000000000000000000000000000000000000000000000008152600401612eea90615523565b60405180910390fd5b50565b600033905090565b816004600083815260200190815260200160002060006101000a81548173ffffffffffffffffffffffffffffffffffffffff021916908373ffffffffffffffffffffffffffffffffffffffff160217905550808273ffffffffffffffffffffffffffffffffffffffff16612f7183611d69565b73ffffffffffffffffffffffffffffffffffffffff167f8c5be1e5ebec7d5bd14f71427d1e84f3dd0314c0f7b2291e5b200ac8c7c3b92560405160405180910390a45050565b600080612fc383611d69565b90508073ffffffffffffffffffffffffffffffffffffffff168473ffffffffffffffffffffffffffffffffffffffff16148061300557506130048185612987565b5b8061304357508373ffffffffffffffffffffffffffffffffffffffff1661302b846113f8565b73ffffffffffffffffffffffffffffffffffffffff16145b91505092915050565b8273ffffffffffffffffffffffffffffffffffffffff1661306c82611d69565b73ffffffffffffffffffffffffffffffffffffffff16146130c2576040517f08c379a00000000000000000000000000000000000000000000000000000000081526004016130b990615c67565b60405180910390fd5b600073ffffffffffffffffffffffffffffffffffffffff168273ffffffffffffffffffffffffffffffffffffffff1603613131576040517f08c379a000000000000000000000000000000000000000000000000000000000815260040161312890615cf9565b60405180910390fd5b61313e838383600161374e565b8273ffffffffffffffffffffffffffffffffffffffff1661315e82611d69565b73ffffffffffffffffffffffffffffffffffffffff16146131b4576040517f08c379a00000000000000000000000000000000000000000000000000000000081526004016131ab90615c67565b60405180910390fd5b6004600082815260200190815260200160002060006101000a81549073ffffffffffffffffffffffffffffffffffffffff02191690556001600360008573ffffffffffffffffffffffffffffffffffffffff1673ffffffffffffffffffffffffffffffffffffffff168152602001908152602001600020600082825403925050819055506001600360008473ffffffffffffffffffffffffffffffffffffffff1673ffffffffffffffffffffffffffffffffffffffff16815260200190815260200160002060008282540192505081905550816002600083815260200190815260200160002060006101000a81548173ffffffffffffffffffffffffffffffffffffffff021916908373ffffffffffffffffffffffffffffffffffffffff160217905550808273ffffffffffffffffffffffffffffffffffffffff168473ffffffffffffffffffffffffffffffffffffffff167fddf252ad1be2c89b69c2b068fc378daa952ba7f163c4a11628f55a4df523b3ef60405160405180910390a46133408383836001613874565b505050565b61334f8282611f95565b6134225760016008600084815260200190815260200160002060000160008373ffffffffffffffffffffffffffffffffffffffff1673ffffffffffffffffffffffffffffffffffffffff16815260200190815260200160002060006101000a81548160ff0219169083151502179055506133c7612ef6565b73ffffffffffffffffffffffffffffffffffffffff168173ffffffffffffffffffffffffffffffffffffffff16837f2f8788117e7eff1d82e926ec794901d17c78024a50270940304540a733656f0d60405160405180910390a45b5050565b6134308282611f95565b156135045760006008600084815260200190815260200160002060000160008373ffffffffffffffffffffffffffffffffffffffff1673ffffffffffffffffffffffffffffffffffffffff16815260200190815260200160002060006101000a81548160ff0219169083151502179055506134a9612ef6565b73ffffffffffffffffffffffffffffffffffffffff168173ffffffffffffffffffffffffffffffffffffffff16837ff6391f5c32d9c69d2a47ea670b442974b53935d1edc7fd64eb21e047a839171b60405160405180910390a45b5050565b60006002600083815260200190815260200160002060009054906101000a900473ffffffffffffffffffffffffffffffffffffffff169050919050565b8173ffffffffffffffffffffffffffffffffffffffff168373ffffffffffffffffffffffffffffffffffffffff16036135b3576040517f08c379a00000000000000000000000000000000000000000000000000000000081526004016135aa90615d65565b60405180910390fd5b80600560008573ffffffffffffffffffffffffffffffffffffffff1673ffffffffffffffffffffffffffffffffffffffff16815260200190815260200160002060008473ffffffffffffffffffffffffffffffffffffffff1673ffffffffffffffffffffffffffffffffffffffff16815260200190815260200160002060006101000a81548160ff0219169083151502179055508173ffffffffffffffffffffffffffffffffffffffff168373ffffffffffffffffffffffffffffffffffffffff167f17307eab39ab6107e8899845ad3d59bd9653f200f220920489ca2b5937696c31836040516136a49190614268565b60405180910390a3505050565b6136bc84848461304c565b6136c884848484613a2e565b613707576040517f08c379a00000000000000000000000000000000000000000000000000000000081526004016136fe90615df7565b60405180910390fd5b50505050565b60008073ffffffffffffffffffffffffffffffffffffffff1661372f83613508565b73ffffffffffffffffffffffffffffffffffffffff1614159050919050565b600181111561386e57600073ffffffffffffffffffffffffffffffffffffffff168473ffffffffffffffffffffffffffffffffffffffff16146137e25780600360008673ffffffffffffffffffffffffffffffffffffffff1673ffffffffffffffffffffffffffffffffffffffff16815260200190815260200160002060008282546137da9190615e17565b925050819055505b600073ffffffffffffffffffffffffffffffffffffffff168373ffffffffffffffffffffffffffffffffffffffff161461386d5780600360008573ffffffffffffffffffffffffffffffffffffffff1673ffffffffffffffffffffffffffffffffffffffff16815260200190815260200160002060008282546138659190614d50565b925050819055505b5b50505050565b50505050565b60606000600161388984613bb5565b01905060008167ffffffffffffffff8111156138a8576138a76144db565b5b6040519080825280601f01601f1916602001820160405280156138da5781602001600182028036833780820191505090505b509050600082602001820190505b60011561393d578080600190039150507f3031323334353637383961626364656600000000000000000000000000000000600a86061a8153600a858161393157613930615e4b565b5b049450600085036138e8575b819350505050919050565b6000634906490660e01b7bffffffffffffffffffffffffffffffffffffffffffffffffffffffff1916827bffffffffffffffffffffffffffffffffffffffffffffffffffffffff191614806139a257506139a182613d08565b5b9050919050565b6139b38282611f95565b613a2a576139c081613dea565b6139ce8360001c6020613e17565b6040516020016139df929190615f12565b6040516020818303038152906040526040517f08c379a0000000000000000000000000000000000000000000000000000000008152600401613a21919061436a565b60405180910390fd5b5050565b6000613a4f8473ffffffffffffffffffffffffffffffffffffffff16614053565b15613ba8578373ffffffffffffffffffffffffffffffffffffffff1663150b7a02613a78612ef6565b8786866040518563ffffffff1660e01b8152600401613a9a9493929190615fa1565b6020604051808303816000875af1925050508015613ad657506040513d601f19601f82011682018060405250810190613ad39190616002565b60015b613b58573d8060008114613b06576040519150601f19603f3d011682016040523d82523d6000602084013e613b0b565b606091505b506000815103613b50576040517f08c379a0000000000000000000000000000000000000000000000000000000008152600401613b4790615df7565b60405180910390fd5b805181602001fd5b63150b7a0260e01b7bffffffffffffffffffffffffffffffffffffffffffffffffffffffff1916817bffffffffffffffffffffffffffffffffffffffffffffffffffffffff191614915050613bad565b600190505b949350505050565b600080600090507a184f03e93ff9f4daa797ed6e38ed64bf6a1f0100000000000000008310613c13577a184f03e93ff9f4daa797ed6e38ed64bf6a1f0100000000000000008381613c0957613c08615e4b565b5b0492506040810190505b6d04ee2d6d415b85acef81000000008310613c50576d04ee2d6d415b85acef81000000008381613c4657613c45615e4b565b5b0492506020810190505b662386f26fc100008310613c7f57662386f26fc100008381613c7557613c74615e4b565b5b0492506010810190505b6305f5e1008310613ca8576305f5e1008381613c9e57613c9d615e4b565b5b0492506008810190505b6127108310613ccd576127108381613cc357613cc2615e4b565b5b0492506004810190505b60648310613cf05760648381613ce657613ce5615e4b565b5b0492506002810190505b600a8310613cff576001810190505b80915050919050565b60007f80ac58cd000000000000000000000000000000000000000000000000000000007bffffffffffffffffffffffffffffffffffffffffffffffffffffffff1916827bffffffffffffffffffffffffffffffffffffffffffffffffffffffff19161480613dd357507f5b5e139f000000000000000000000000000000000000000000000000000000007bffffffffffffffffffffffffffffffffffffffffffffffffffffffff1916827bffffffffffffffffffffffffffffffffffffffffffffffffffffffff1916145b80613de35750613de282614076565b5b9050919050565b6060613e108273ffffffffffffffffffffffffffffffffffffffff16601460ff16613e17565b9050919050565b606060006002836002613e2a9190614f5a565b613e349190614d50565b67ffffffffffffffff811115613e4d57613e4c6144db565b5b6040519080825280601f01601f191660200182016040528015613e7f5781602001600182028036833780820191505090505b5090507f300000000000000000000000000000000000000000000000000000000000000081600081518110613eb757613eb66152d2565b5b60200101907effffffffffffffffffffffffffffffffffffffffffffffffffffffffffffff1916908160001a9053507f780000000000000000000000000000000000000000000000000000000000000081600181518110613f1b57613f1a6152d2565b5b60200101907effffffffffffffffffffffffffffffffffffffffffffffffffffffffffffff1916908160001a90535060006001846002613f5b9190614f5a565b613f659190614d50565b90505b6001811115614005577f3031323334353637383961626364656600000000000000000000000000000000600f861660108110613fa757613fa66152d2565b5b1a60f81b828281518110613fbe57613fbd6152d2565b5b60200101907effffffffffffffffffffffffffffffffffffffffffffffffffffffffffffff1916908160001a905350600485901c945080613ffe9061602f565b9050613f68565b5060008414614049576040517f08c379a0000000000000000000000000000000000000000000000000000000008152600401614040906160a4565b60405180910390fd5b8091505092915050565b6000808273ffffffffffffffffffffffffffffffffffffffff163b119050919050565b60007f01ffc9a7000000000000000000000000000000000000000000000000000000007bffffffffffffffffffffffffffffffffffffffffffffffffffffffff1916827bffffffffffffffffffffffffffffffffffffffffffffffffffffffff1916149050919050565b6000604051905090565b600080fd5b600080fd5b6000819050919050565b614107816140f4565b811461411257600080fd5b50565b600081359050614124816140fe565b92915050565b600073ffffffffffffffffffffffffffffffffffffffff82169050919050565b60006141558261412a565b9050919050565b6141658161414a565b811461417057600080fd5b50565b6000813590506141828161415c565b92915050565b6000806040838503121561419f5761419e6140ea565b5b60006141ad85828601614115565b92505060206141be85828601614173565b9150509250929050565b60007fffffffff0000000000000000000000000000000000000000000000000000000082169050919050565b6141fd816141c8565b811461420857600080fd5b50565b60008135905061421a816141f4565b92915050565b600060208284031215614236576142356140ea565b5b60006142448482850161420b565b91505092915050565b60008115159050919050565b6142628161424d565b82525050565b600060208201905061427d6000830184614259565b92915050565b600060208284031215614299576142986140ea565b5b60006142a784828501614115565b91505092915050565b6142b9816140f4565b82525050565b60006020820190506142d460008301846142b0565b92915050565b600081519050919050565b600082825260208201905092915050565b60005b838110156143145780820151818401526020810190506142f9565b60008484015250505050565b6000601f19601f8301169050919050565b600061433c826142da565b61434681856142e5565b93506143568185602086016142f6565b61435f81614320565b840191505092915050565b600060208201905081810360008301526143848184614331565b905092915050565b6143958161414a565b82525050565b60006020820190506143b0600083018461438c565b92915050565b600080604083850312156143cd576143cc6140ea565b5b60006143db85828601614173565b92505060206143ec85828601614115565b9150509250929050565b60008060006060848603121561440f5761440e6140ea565b5b600061441d86828701614173565b935050602061442e86828701614173565b925050604061443f86828701614115565b9150509250925092565b6000819050919050565b61445c81614449565b811461446757600080fd5b50565b60008135905061447981614453565b92915050565b600060208284031215614495576144946140ea565b5b60006144a38482850161446a565b91505092915050565b6144b581614449565b82525050565b60006020820190506144d060008301846144ac565b92915050565b600080fd5b7f4e487b7100000000000000000000000000000000000000000000000000000000600052604160045260246000fd5b61451382614320565b810181811067ffffffffffffffff82111715614532576145316144db565b5b80604052505050565b60006145456140e0565b9050614551828261450a565b919050565b600067ffffffffffffffff821115614571576145706144db565b5b602082029050602081019050919050565b600080fd5b600061459a61459584614556565b61453b565b905080838252602082019050602084028301858111156145bd576145bc614582565b5b835b818110156145e657806145d28882614115565b8452602084019350506020810190506145bf565b5050509392505050565b600082601f830112614605576146046144d6565b5b8135614615848260208601614587565b91505092915050565b600060208284031215614634576146336140ea565b5b600082013567ffffffffffffffff811115614652576146516140ef565b5b61465e848285016145f0565b91505092915050565b6000806040838503121561467e5761467d6140ea565b5b600061468c8582860161446a565b925050602061469d85828601614173565b9150509250929050565b6000806000606084860312156146c0576146bf6140ea565b5b60006146ce86828701614115565b93505060206146df86828701614115565b92505060406146f086828701614115565b9150509250925092565b6000602082840312156147105761470f6140ea565b5b600061471e84828501614173565b91505092915050565b6147308161424d565b811461473b57600080fd5b50565b60008135905061474d81614727565b92915050565b60008060006060848603121561476c5761476b6140ea565b5b600061477a8682870161473e565b935050602061478b8682870161473e565b925050604061479c8682870161473e565b9150509250925092565b600067ffffffffffffffff8211156147c1576147c06144db565b5b602082029050602081019050919050565b60006147e56147e0846147a6565b61453b565b9050808382526020820190506020840283018581111561480857614807614582565b5b835b81811015614831578061481d8882614173565b84526020840193505060208101905061480a565b5050509392505050565b600082601f8301126148505761484f6144d6565b5b81356148608482602086016147d2565b91505092915050565b60006020828403121561487f5761487e6140ea565b5b600082013567ffffffffffffffff81111561489d5761489c6140ef565b5b6148a98482850161483b565b91505092915050565b600080604083850312156148c9576148c86140ea565b5b60006148d785828601614173565b92505060206148e88582860161473e565b9150509250929050565b600080fd5b600067ffffffffffffffff821115614912576149116144db565b5b61491b82614320565b9050602081019050919050565b82818337600083830152505050565b600061494a614945846148f7565b61453b565b905082815260208101848484011115614966576149656148f2565b5b614971848285614928565b509392505050565b600082601f83011261498e5761498d6144d6565b5b813561499e848260208601614937565b91505092915050565b600080600080608085870312156149c1576149c06140ea565b5b60006149cf87828801614173565b94505060206149e087828801614173565b93505060406149f187828801614115565b925050606085013567ffffffffffffffff811115614a1257614a116140ef565b5b614a1e87828801614979565b91505092959194509250565b600067ffffffffffffffff821115614a4557614a446144db565b5b602082029050602081019050919050565b600080fd5b600060408284031215614a7157614a70614a56565b5b614a7b604061453b565b90506000614a8b84828501614173565b6000830152506020614a9f84828501614115565b60208301525092915050565b6000614abe614ab984614a2a565b61453b565b90508083825260208201905060408402830185811115614ae157614ae0614582565b5b835b81811015614b0a5780614af68882614a5b565b845260208401935050604081019050614ae3565b5050509392505050565b600082601f830112614b2957614b286144d6565b5b8135614b39848260208601614aab565b91505092915050565b600060208284031215614b5857614b576140ea565b5b600082013567ffffffffffffffff811115614b7657614b756140ef565b5b614b8284828501614b14565b91505092915050565b600067ffffffffffffffff821115614ba657614ba56144db565b5b614baf82614320565b9050602081019050919050565b6000614bcf614bca84614b8b565b61453b565b905082815260208101848484011115614beb57614bea6148f2565b5b614bf6848285614928565b509392505050565b600082601f830112614c1357614c126144d6565b5b8135614c23848260208601614bbc565b91505092915050565b600060208284031215614c4257614c416140ea565b5b600082013567ffffffffffffffff811115614c6057614c5f6140ef565b5b614c6c84828501614bfe565b91505092915050565b60008060408385031215614c8c57614c8b6140ea565b5b6000614c9a85828601614173565b9250506020614cab85828601614173565b9150509250929050565b7f4f47206d696e74206973206e6f74206f70656e00000000000000000000000000600082015250565b6000614ceb6013836142e5565b9150614cf682614cb5565b602082019050919050565b60006020820190508181036000830152614d1a81614cde565b9050919050565b7f4e487b7100000000000000000000000000000000000000000000000000000000600052601160045260246000fd5b6000614d5b826140f4565b9150614d66836140f4565b9250828201905080821115614d7e57614d7d614d21565b5b92915050565b7f737570706c792065786365656400000000000000000000000000000000000000600082015250565b6000614dba600d836142e5565b9150614dc582614d84565b602082019050919050565b60006020820190508181036000830152614de981614dad565b9050919050565b7f75736572206973206e6f742077686974656c697374656420666f72206f67206d60008201527f696e740000000000000000000000000000000000000000000000000000000000602082015250565b6000614e4c6023836142e5565b9150614e5782614df0565b604082019050919050565b60006020820190508181036000830152614e7b81614e3f565b9050919050565b7f75736572206d696e74207468657265206e667473000000000000000000000000600082015250565b6000614eb86014836142e5565b9150614ec382614e82565b602082019050919050565b60006020820190508181036000830152614ee781614eab565b9050919050565b7f657865636564206d696e74206c696d6974000000000000000000000000000000600082015250565b6000614f246011836142e5565b9150614f2f82614eee565b602082019050919050565b60006020820190508181036000830152614f5381614f17565b9050919050565b6000614f65826140f4565b9150614f70836140f4565b9250828202614f7e816140f4565b91508282048414831517614f9557614f94614d21565b5b5092915050565b7f757365722070617373206c6f77657220616d6f756e7400000000000000000000600082015250565b6000614fd26016836142e5565b9150614fdd82614f9c565b602082019050919050565b6000602082019050818103600083015261500181614fc5565b9050919050565b6000615013826140f4565b91507fffffffffffffffffffffffffffffffffffffffffffffffffffffffffffffffff820361504557615044614d21565b5b600182019050919050565b7f4574686572207472616e73666572206661696c65642e00000000000000000000600082015250565b60006150866016836142e5565b915061509182615050565b602082019050919050565b600060208201905081810360008301526150b581615079565b9050919050565b7f4e487b7100000000000000000000000000000000000000000000000000000000600052602260045260246000fd5b6000600282049050600182168061510357607f821691505b602082108103615116576151156150bc565b5b50919050565b7f4552433732313a20617070726f76616c20746f2063757272656e74206f776e6560008201527f7200000000000000000000000000000000000000000000000000000000000000602082015250565b60006151786021836142e5565b91506151838261511c565b604082019050919050565b600060208201905081810360008301526151a78161516b565b9050919050565b7f4552433732313a20617070726f76652063616c6c6572206973206e6f7420746f60008201527f6b656e206f776e6572206f7220617070726f76656420666f7220616c6c000000602082015250565b600061520a603d836142e5565b9150615215826151ae565b604082019050919050565b60006020820190508181036000830152615239816151fd565b9050919050565b7f4552433732313a2063616c6c6572206973206e6f7420746f6b656e206f776e6560008201527f72206f7220617070726f76656400000000000000000000000000000000000000602082015250565b600061529c602d836142e5565b91506152a782615240565b604082019050919050565b600060208201905081810360008301526152cb8161528f565b9050919050565b7f4e487b7100000000000000000000000000000000000000000000000000000000600052603260045260246000fd5b7f416363657373436f6e74726f6c3a2063616e206f6e6c792072656e6f756e636560008201527f20726f6c657320666f722073656c660000000000000000000000000000000000602082015250565b600061535d602f836142e5565b915061536882615301565b604082019050919050565b6000602082019050818103600083015261538c81615350565b9050919050565b7f5573657220686173206e6f742079657420706169640000000000000000000000600082015250565b60006153c96015836142e5565b91506153d482615393565b602082019050919050565b600060208201905081810360008301526153f8816153bc565b9050919050565b7f5075626c6963206d696e74206973206e6f74206f70656e000000000000000000600082015250565b60006154356017836142e5565b9150615440826153ff565b602082019050919050565b6000602082019050818103600083015261546481615428565b9050919050565b7f7573657220616c7265616479206d696e74207468657265206e66747300000000600082015250565b60006154a1601c836142e5565b91506154ac8261546b565b602082019050919050565b600060208201905081810360008301526154d081615494565b9050919050565b7f4552433732313a20696e76616c696420746f6b656e2049440000000000000000600082015250565b600061550d6018836142e5565b9150615518826154d7565b602082019050919050565b6000602082019050818103600083015261553c81615500565b9050919050565b7f4552433732313a2061646472657373207a65726f206973206e6f74206120766160008201527f6c6964206f776e65720000000000000000000000000000000000000000000000602082015250565b600061559f6029836142e5565b91506155aa82615543565b604082019050919050565b600060208201905081810360008301526155ce81615592565b9050919050565b7f574c206d696e74206973206e6f74206f70656e00000000000000000000000000600082015250565b600061560b6013836142e5565b9150615616826155d5565b602082019050919050565b6000602082019050818103600083015261563a816155fe565b9050919050565b7f75736572206973206e6f742077686974656c697374656420666f72207768697460008201527f656c6973746564206d696e740000000000000000000000000000000000000000602082015250565b600061569d602c836142e5565b91506156a882615641565b604082019050919050565b600060208201905081810360008301526156cc81615690565b9050919050565b60008190508160005260206000209050919050565b60006020601f8301049050919050565b600082821b905092915050565b6000600883026157357fffffffffffffffffffffffffffffffffffffffffffffffffffffffffffffffff826156f8565b61573f86836156f8565b95508019841693508086168417925050509392505050565b6000819050919050565b600061577c615777615772846140f4565b615757565b6140f4565b9050919050565b6000819050919050565b61579683615761565b6157aa6157a282615783565b848454615705565b825550505050565b600090565b6157bf6157b2565b6157ca81848461578d565b505050565b5b818110156157ee576157e36000826157b7565b6001810190506157d0565b5050565b601f82111561583357615804816156d3565b61580d846156e8565b8101602085101561581c578190505b615830615828856156e8565b8301826157cf565b50505b505050565b600082821c905092915050565b600061585660001984600802615838565b1980831691505092915050565b600061586f8383615845565b9150826002028217905092915050565b615888826142da565b67ffffffffffffffff8111156158a1576158a06144db565b5b6158ab82546150eb565b6158b68282856157f2565b600060209050601f8311600181146158e957600084156158d7578287015190505b6158e18582615863565b865550615949565b601f1984166158f7866156d3565b60005b8281101561591f578489015182556001820191506020850194506020810190506158fa565b8683101561593c5784890151615938601f891682615845565b8355505b6001600288020188555050505b505050505050565b7f4552433732313a206d696e7420746f20746865207a65726f2061646472657373600082015250565b60006159876020836142e5565b915061599282615951565b602082019050919050565b600060208201905081810360008301526159b68161597a565b9050919050565b7f4552433732313a20746f6b656e20616c7265616479206d696e74656400000000600082015250565b60006159f3601c836142e5565b91506159fe826159bd565b602082019050919050565b60006020820190508181036000830152615a22816159e6565b9050919050565b600081905092915050565b60008154615a41816150eb565b615a4b8186615a29565b94506001821660008114615a665760018114615a7b57615aae565b60ff1983168652811515820286019350615aae565b615a84856156d3565b60005b83811015615aa657815481890152600182019150602081019050615a87565b838801955050505b50505092915050565b6000615ac2826142da565b615acc8185615a29565b9350615adc8185602086016142f6565b80840191505092915050565b7f2e6a736f6e000000000000000000000000000000000000000000000000000000600082015250565b6000615b1e600583615a29565b9150615b2982615ae8565b600582019050919050565b6000615b408285615a34565b9150615b4c8284615ab7565b9150615b5782615b11565b91508190509392505050565b7f45524337323155524953746f726167653a2055524920736574206f66206e6f6e60008201527f6578697374656e7420746f6b656e000000000000000000000000000000000000602082015250565b6000615bbf602e836142e5565b9150615bca82615b63565b604082019050919050565b60006020820190508181036000830152615bee81615bb2565b9050919050565b7f4552433732313a207472616e736665722066726f6d20696e636f72726563742060008201527f6f776e6572000000000000000000000000000000000000000000000000000000602082015250565b6000615c516025836142e5565b9150615c5c82615bf5565b604082019050919050565b60006020820190508181036000830152615c8081615c44565b9050919050565b7f4552433732313a207472616e7366657220746f20746865207a65726f2061646460008201527f7265737300000000000000000000000000000000000000000000000000000000602082015250565b6000615ce36024836142e5565b9150615cee82615c87565b604082019050919050565b60006020820190508181036000830152615d1281615cd6565b9050919050565b7f4552433732313a20617070726f766520746f2063616c6c657200000000000000600082015250565b6000615d4f6019836142e5565b9150615d5a82615d19565b602082019050919050565b60006020820190508181036000830152615d7e81615d42565b9050919050565b7f4552433732313a207472616e7366657220746f206e6f6e20455243373231526560008201527f63656976657220696d706c656d656e7465720000000000000000000000000000602082015250565b6000615de16032836142e5565b9150615dec82615d85565b604082019050919050565b60006020820190508181036000830152615e1081615dd4565b9050919050565b6000615e22826140f4565b9150615e2d836140f4565b9250828203905081811115615e4557615e44614d21565b5b92915050565b7f4e487b7100000000000000000000000000000000000000000000000000000000600052601260045260246000fd5b7f416363657373436f6e74726f6c3a206163636f756e7420000000000000000000600082015250565b6000615eb0601783615a29565b9150615ebb82615e7a565b601782019050919050565b7f206973206d697373696e6720726f6c6520000000000000000000000000000000600082015250565b6000615efc601183615a29565b9150615f0782615ec6565b601182019050919050565b6000615f1d82615ea3565b9150615f298285615ab7565b9150615f3482615eef565b9150615f408284615ab7565b91508190509392505050565b600081519050919050565b600082825260208201905092915050565b6000615f7382615f4c565b615f7d8185615f57565b9350615f8d8185602086016142f6565b615f9681614320565b840191505092915050565b6000608082019050615fb6600083018761438c565b615fc3602083018661438c565b615fd060408301856142b0565b8181036060830152615fe28184615f68565b905095945050505050565b600081519050615ffc816141f4565b92915050565b600060208284031215616018576160176140ea565b5b600061602684828501615fed565b91505092915050565b600061603a826140f4565b91506000820361604d5761604c614d21565b5b600182039050919050565b7f537472696e67733a20686578206c656e67746820696e73756666696369656e74600082015250565b600061608e6020836142e5565b915061609982616058565b602082019050919050565b600060208201905081810360008301526160bd81616081565b905091905056fea26469706673582212208bcbfe4a2db34e02e07f95ee97ae90007026676fa259ccc00d2386596adaca2e64736f6c6343000813003368747470733a2f2f697066732e696f2f697066732f62616679626569676b7235733335706f696e6b69713569646372796366657975727779777770787a72617a6673323765653275366c65366d777a6d2f6a736f6e2f","opcodes":"PUSH1 0x80 PUSH1 0x40 MSTORE PUSH2 0x13C1 PUSH1 0x16 SSTORE PUSH1 0x0 PUSH1 0x17 SSTORE PUSH1 0x40 MLOAD DUP1 PUSH1 0x80 ADD PUSH1 0x40 MSTORE DUP1 PUSH1 0x56 DUP2 MSTORE PUSH1 0x20 ADD PUSH3 0x68D8 PUSH1 0x56 SWAP2 CODECOPY PUSH1 0x1C SWAP1 DUP2 PUSH3 0x39 SWAP2 SWAP1 PUSH3 0x64B JUMP JUMPDEST POP CALLVALUE DUP1 ISZERO PUSH3 0x47 JUMPI PUSH1 0x0 DUP1 REVERT JUMPDEST POP PUSH1 0x40 MLOAD PUSH3 0x692E CODESIZE SUB DUP1 PUSH3 0x692E DUP4 CODECOPY DUP2 DUP2 ADD PUSH1 0x40 MSTORE DUP2 ADD SWAP1 PUSH3 0x6D SWAP2 SWAP1 PUSH3 0x79C JUMP JUMPDEST PUSH1 0x40 MLOAD DUP1 PUSH1 0x40 ADD PUSH1 0x40 MSTORE DUP1 PUSH1 0x6 DUP2 MSTORE PUSH1 0x20 ADD PUSH32 0x5468756D62730000000000000000000000000000000000000000000000000000 DUP2 MSTORE POP PUSH1 0x40 MLOAD DUP1 PUSH1 0x40 ADD PUSH1 0x40 MSTORE DUP1 PUSH1 0x6 DUP2 MSTORE PUSH1 0x20 ADD PUSH32 0x5448554D42530000000000000000000000000000000000000000000000000000 DUP2 MSTORE POP DUP2 PUSH1 0x0 SWAP1 DUP2 PUSH3 0xEA SWAP2 SWAP1 PUSH3 0x64B JUMP JUMPDEST POP DUP1 PUSH1 0x1 SWAP1 DUP2 PUSH3 0xFC SWAP2 SWAP1 PUSH3 0x64B JUMP JUMPDEST POP POP POP PUSH1 0x0 PUSH1 0x7 PUSH1 0x0 PUSH2 0x100 EXP DUP2 SLOAD DUP2 PUSH1 0xFF MUL NOT AND SWAP1 DUP4 ISZERO ISZERO MUL OR SWAP1 SSTORE POP CALLER PUSH1 0xC PUSH1 0x0 PUSH2 0x100 EXP DUP2 SLOAD DUP2 PUSH20 0xFFFFFFFFFFFFFFFFFFFFFFFFFFFFFFFFFFFFFFFF MUL NOT AND SWAP1 DUP4 PUSH20 0xFFFFFFFFFFFFFFFFFFFFFFFFFFFFFFFFFFFFFFFF AND MUL OR SWAP1 SSTORE POP PUSH3 0x170 PUSH1 0x0 DUP1 SHL CALLER PUSH3 0x26C PUSH1 0x20 SHL PUSH1 0x20 SHR JUMP JUMPDEST PUSH3 0x1A2 PUSH32 0x65D7A28E3265B37A6474929F336521B332C1681B933F6CB9F3376673440D862A CALLER PUSH3 0x26C PUSH1 0x20 SHL PUSH1 0x20 SHR JUMP JUMPDEST PUSH3 0x1D4 PUSH32 0x9F2DF0FED2C77648DE5860A4CC508CD0818C85B8B8A1AB4CEEEF8D981C8956A6 CALLER PUSH3 0x26C PUSH1 0x20 SHL PUSH1 0x20 SHR JUMP JUMPDEST PUSH3 0x1E9 PUSH1 0x0 DUP1 SHL DUP3 PUSH3 0x26C PUSH1 0x20 SHL PUSH1 0x20 SHR JUMP JUMPDEST PUSH3 0x21B PUSH32 0x65D7A28E3265B37A6474929F336521B332C1681B933F6CB9F3376673440D862A DUP3 PUSH3 0x26C PUSH1 0x20 SHL PUSH1 0x20 SHR JUMP JUMPDEST PUSH3 0x24D PUSH32 0x9F2DF0FED2C77648DE5860A4CC508CD0818C85B8B8A1AB4CEEEF8D981C8956A6 DUP3 PUSH3 0x26C PUSH1 0x20 SHL PUSH1 0x20 SHR JUMP JUMPDEST PUSH1 0x0 PUSH1 0x1B DUP2 SWAP1 SSTORE POP PUSH1 0x0 PUSH1 0x9 DUP2 SWAP1 SSTORE POP PUSH1 0x2 PUSH1 0x18 DUP2 SWAP1 SSTORE POP POP PUSH3 0x7CE JUMP JUMPDEST PUSH3 0x27E DUP3 DUP3 PUSH3 0x35E PUSH1 0x20 SHL PUSH1 0x20 SHR JUMP JUMPDEST PUSH3 0x35A JUMPI PUSH1 0x1 PUSH1 0x8 PUSH1 0x0 DUP5 DUP2 MSTORE PUSH1 0x20 ADD SWAP1 DUP2 MSTORE PUSH1 0x20 ADD PUSH1 0x0 KECCAK256 PUSH1 0x0 ADD PUSH1 0x0 DUP4 PUSH20 0xFFFFFFFFFFFFFFFFFFFFFFFFFFFFFFFFFFFFFFFF AND PUSH20 0xFFFFFFFFFFFFFFFFFFFFFFFFFFFFFFFFFFFFFFFF AND DUP2 MSTORE PUSH1 0x20 ADD SWAP1 DUP2 MSTORE PUSH1 0x20 ADD PUSH1 0x0 KECCAK256 PUSH1 0x0 PUSH2 0x100 EXP DUP2 SLOAD DUP2 PUSH1 0xFF MUL NOT AND SWAP1 DUP4 ISZERO ISZERO MUL OR SWAP1 SSTORE POP PUSH3 0x2FF PUSH3 0x3C9 PUSH1 0x20 SHL PUSH1 0x20 SHR JUMP JUMPDEST PUSH20 0xFFFFFFFFFFFFFFFFFFFFFFFFFFFFFFFFFFFFFFFF AND DUP2 PUSH20 0xFFFFFFFFFFFFFFFFFFFFFFFFFFFFFFFFFFFFFFFF AND DUP4 PUSH32 0x2F8788117E7EFF1D82E926EC794901D17C78024A50270940304540A733656F0D PUSH1 0x40 MLOAD PUSH1 0x40 MLOAD DUP1 SWAP2 SUB SWAP1 LOG4 JUMPDEST POP POP JUMP JUMPDEST PUSH1 0x0 PUSH1 0x8 PUSH1 0x0 DUP5 DUP2 MSTORE PUSH1 0x20 ADD SWAP1 DUP2 MSTORE PUSH1 0x20 ADD PUSH1 0x0 KECCAK256 PUSH1 0x0 ADD PUSH1 0x0 DUP4 PUSH20 0xFFFFFFFFFFFFFFFFFFFFFFFFFFFFFFFFFFFFFFFF AND PUSH20 0xFFFFFFFFFFFFFFFFFFFFFFFFFFFFFFFFFFFFFFFF AND DUP2 MSTORE PUSH1 0x20 ADD SWAP1 DUP2 MSTORE PUSH1 0x20 ADD PUSH1 0x0 KECCAK256 PUSH1 0x0 SWAP1 SLOAD SWAP1 PUSH2 0x100 EXP SWAP1 DIV PUSH1 0xFF AND SWAP1 POP SWAP3 SWAP2 POP POP JUMP JUMPDEST PUSH1 0x0 CALLER SWAP1 POP SWAP1 JUMP JUMPDEST PUSH1 0x0 DUP2 MLOAD SWAP1 POP SWAP2 SWAP1 POP JUMP JUMPDEST PUSH32 0x4E487B7100000000000000000000000000000000000000000000000000000000 PUSH1 0x0 MSTORE PUSH1 0x41 PUSH1 0x4 MSTORE PUSH1 0x24 PUSH1 0x0 REVERT JUMPDEST PUSH32 0x4E487B7100000000000000000000000000000000000000000000000000000000 PUSH1 0x0 MSTORE PUSH1 0x22 PUSH1 0x4 MSTORE PUSH1 0x24 PUSH1 0x0 REVERT JUMPDEST PUSH1 0x0 PUSH1 0x2 DUP3 DIV SWAP1 POP PUSH1 0x1 DUP3 AND DUP1 PUSH3 0x453 JUMPI PUSH1 0x7F DUP3 AND SWAP2 POP JUMPDEST PUSH1 0x20 DUP3 LT DUP2 SUB PUSH3 0x469 JUMPI PUSH3 0x468 PUSH3 0x40B JUMP JUMPDEST JUMPDEST POP SWAP2 SWAP1 POP JUMP JUMPDEST PUSH1 0x0 DUP2 SWAP1 POP DUP2 PUSH1 0x0 MSTORE PUSH1 0x20 PUSH1 0x0 KECCAK256 SWAP1 POP SWAP2 SWAP1 POP JUMP JUMPDEST PUSH1 0x0 PUSH1 0x20 PUSH1 0x1F DUP4 ADD DIV SWAP1 POP SWAP2 SWAP1 POP JUMP JUMPDEST PUSH1 0x0 DUP3 DUP3 SHL SWAP1 POP SWAP3 SWAP2 POP POP JUMP JUMPDEST PUSH1 0x0 PUSH1 0x8 DUP4 MUL PUSH3 0x4D3 PUSH32 0xFFFFFFFFFFFFFFFFFFFFFFFFFFFFFFFFFFFFFFFFFFFFFFFFFFFFFFFFFFFFFFFF DUP3 PUSH3 0x494 JUMP JUMPDEST PUSH3 0x4DF DUP7 DUP4 PUSH3 0x494 JUMP JUMPDEST SWAP6 POP DUP1 NOT DUP5 AND SWAP4 POP DUP1 DUP7 AND DUP5 OR SWAP3 POP POP POP SWAP4 SWAP3 POP POP POP JUMP JUMPDEST PUSH1 0x0 DUP2 SWAP1 POP SWAP2 SWAP1 POP JUMP JUMPDEST PUSH1 0x0 DUP2 SWAP1 POP SWAP2 SWAP1 POP JUMP JUMPDEST PUSH1 0x0 PUSH3 0x52C PUSH3 0x526 PUSH3 0x520 DUP5 PUSH3 0x4F7 JUMP JUMPDEST PUSH3 0x501 JUMP JUMPDEST PUSH3 0x4F7 JUMP JUMPDEST SWAP1 POP SWAP2 SWAP1 POP JUMP JUMPDEST PUSH1 0x0 DUP2 SWAP1 POP SWAP2 SWAP1 POP JUMP JUMPDEST PUSH3 0x548 DUP4 PUSH3 0x50B JUMP JUMPDEST PUSH3 0x560 PUSH3 0x557 DUP3 PUSH3 0x533 JUMP JUMPDEST DUP5 DUP5 SLOAD PUSH3 0x4A1 JUMP JUMPDEST DUP3 SSTORE POP POP POP POP JUMP JUMPDEST PUSH1 0x0 SWAP1 JUMP JUMPDEST PUSH3 0x577 PUSH3 0x568 JUMP JUMPDEST PUSH3 0x584 DUP2 DUP5 DUP5 PUSH3 0x53D JUMP JUMPDEST POP POP POP JUMP JUMPDEST JUMPDEST DUP2 DUP2 LT ISZERO PUSH3 0x5AC JUMPI PUSH3 0x5A0 PUSH1 0x0 DUP3 PUSH3 0x56D JUMP JUMPDEST PUSH1 0x1 DUP2 ADD SWAP1 POP PUSH3 0x58A JUMP JUMPDEST POP POP JUMP JUMPDEST PUSH1 0x1F DUP3 GT ISZERO PUSH3 0x5FB JUMPI PUSH3 0x5C5 DUP2 PUSH3 0x46F JUMP JUMPDEST PUSH3 0x5D0 DUP5 PUSH3 0x484 JUMP JUMPDEST DUP2 ADD PUSH1 0x20 DUP6 LT ISZERO PUSH3 0x5E0 JUMPI DUP2 SWAP1 POP JUMPDEST PUSH3 0x5F8 PUSH3 0x5EF DUP6 PUSH3 0x484 JUMP JUMPDEST DUP4 ADD DUP3 PUSH3 0x589 JUMP JUMPDEST POP POP JUMPDEST POP POP POP JUMP JUMPDEST PUSH1 0x0 DUP3 DUP3 SHR SWAP1 POP SWAP3 SWAP2 POP POP JUMP JUMPDEST PUSH1 0x0 PUSH3 0x620 PUSH1 0x0 NOT DUP5 PUSH1 0x8 MUL PUSH3 0x600 JUMP JUMPDEST NOT DUP1 DUP4 AND SWAP2 POP POP SWAP3 SWAP2 POP POP JUMP JUMPDEST PUSH1 0x0 PUSH3 0x63B DUP4 DUP4 PUSH3 0x60D JUMP JUMPDEST SWAP2 POP DUP3 PUSH1 0x2 MUL DUP3 OR SWAP1 POP SWAP3 SWAP2 POP POP JUMP JUMPDEST PUSH3 0x656 DUP3 PUSH3 0x3D1 JUMP JUMPDEST PUSH8 0xFFFFFFFFFFFFFFFF DUP2 GT ISZERO PUSH3 0x672 JUMPI PUSH3 0x671 PUSH3 0x3DC JUMP JUMPDEST JUMPDEST PUSH3 0x67E DUP3 SLOAD PUSH3 0x43A JUMP JUMPDEST PUSH3 0x68B DUP3 DUP3 DUP6 PUSH3 0x5B0 JUMP JUMPDEST PUSH1 0x0 PUSH1 0x20 SWAP1 POP PUSH1 0x1F DUP4 GT PUSH1 0x1 DUP2 EQ PUSH3 0x6C3 JUMPI PUSH1 0x0 DUP5 ISZERO PUSH3 0x6AE JUMPI DUP3 DUP8 ADD MLOAD SWAP1 POP JUMPDEST PUSH3 0x6BA DUP6 DUP3 PUSH3 0x62D JUMP JUMPDEST DUP7 SSTORE POP PUSH3 0x72A JUMP JUMPDEST PUSH1 0x1F NOT DUP5 AND PUSH3 0x6D3 DUP7 PUSH3 0x46F JUMP JUMPDEST PUSH1 0x0 JUMPDEST DUP3 DUP2 LT ISZERO PUSH3 0x6FD JUMPI DUP5 DUP10 ADD MLOAD DUP3 SSTORE PUSH1 0x1 DUP3 ADD SWAP2 POP PUSH1 0x20 DUP6 ADD SWAP5 POP PUSH1 0x20 DUP2 ADD SWAP1 POP PUSH3 0x6D6 JUMP JUMPDEST DUP7 DUP4 LT ISZERO PUSH3 0x71D JUMPI DUP5 DUP10 ADD MLOAD PUSH3 0x719 PUSH1 0x1F DUP10 AND DUP3 PUSH3 0x60D JUMP JUMPDEST DUP4 SSTORE POP JUMPDEST PUSH1 0x1 PUSH1 0x2 DUP9 MUL ADD DUP9 SSTORE POP POP POP JUMPDEST POP POP POP POP POP POP JUMP JUMPDEST PUSH1 0x0 DUP1 REVERT JUMPDEST PUSH1 0x0 PUSH20 0xFFFFFFFFFFFFFFFFFFFFFFFFFFFFFFFFFFFFFFFF DUP3 AND SWAP1 POP SWAP2 SWAP1 POP JUMP JUMPDEST PUSH1 0x0 PUSH3 0x764 DUP3 PUSH3 0x737 JUMP JUMPDEST SWAP1 POP SWAP2 SWAP1 POP JUMP JUMPDEST PUSH3 0x776 DUP2 PUSH3 0x757 JUMP JUMPDEST DUP2 EQ PUSH3 0x782 JUMPI PUSH1 0x0 DUP1 REVERT JUMPDEST POP JUMP JUMPDEST PUSH1 0x0 DUP2 MLOAD SWAP1 POP PUSH3 0x796 DUP2 PUSH3 0x76B JUMP JUMPDEST SWAP3 SWAP2 POP POP JUMP JUMPDEST PUSH1 0x0 PUSH1 0x20 DUP3 DUP5 SUB SLT ISZERO PUSH3 0x7B5 JUMPI PUSH3 0x7B4 PUSH3 0x732 JUMP JUMPDEST JUMPDEST PUSH1 0x0 PUSH3 0x7C5 DUP5 DUP3 DUP6 ADD PUSH3 0x785 JUMP JUMPDEST SWAP2 POP POP SWAP3 SWAP2 POP POP JUMP JUMPDEST PUSH2 0x60FA DUP1 PUSH3 0x7DE PUSH1 0x0 CODECOPY PUSH1 0x0 RETURN INVALID PUSH1 0x80 PUSH1 0x40 MSTORE PUSH1 0x4 CALLDATASIZE LT PUSH2 0x39A JUMPI PUSH1 0x0 CALLDATALOAD PUSH1 0xE0 SHR DUP1 PUSH4 0x7192E111 GT PUSH2 0x1DC JUMPI DUP1 PUSH4 0xB88D4FDE GT PUSH2 0x102 JUMPI DUP1 PUSH4 0xD5391393 GT PUSH2 0xA0 JUMPI DUP1 PUSH4 0xE63AB1E9 GT PUSH2 0x6F JUMPI DUP1 PUSH4 0xE63AB1E9 EQ PUSH2 0xE7F JUMPI DUP1 PUSH4 0xE985E9C5 EQ PUSH2 0xEAA JUMPI DUP1 PUSH4 0xEDA1D5E9 EQ PUSH2 0xEE7 JUMPI DUP1 PUSH4 0xEFDC7788 EQ PUSH2 0xF24 JUMPI PUSH2 0x481 JUMP JUMPDEST DUP1 PUSH4 0xD5391393 EQ PUSH2 0xDD7 JUMPI DUP1 PUSH4 0xD547741F EQ PUSH2 0xE02 JUMPI DUP1 PUSH4 0xE1497A55 EQ PUSH2 0xE2B JUMPI DUP1 PUSH4 0xE62F49C9 EQ PUSH2 0xE56 JUMPI PUSH2 0x481 JUMP JUMPDEST DUP1 PUSH4 0xBF9E4A86 GT PUSH2 0xDC JUMPI DUP1 PUSH4 0xBF9E4A86 EQ PUSH2 0xD09 JUMPI DUP1 PUSH4 0xC7C3268B EQ PUSH2 0xD34 JUMPI DUP1 PUSH4 0xC87B56DD EQ PUSH2 0xD5D JUMPI DUP1 PUSH4 0xD3FC8CDF EQ PUSH2 0xD9A JUMPI PUSH2 0x481 JUMP JUMPDEST DUP1 PUSH4 0xB88D4FDE EQ PUSH2 0xC7A JUMPI DUP1 PUSH4 0xB92DEE70 EQ PUSH2 0xCA3 JUMPI DUP1 PUSH4 0xBE14B0B7 EQ PUSH2 0xCE0 JUMPI PUSH2 0x481 JUMP JUMPDEST DUP1 PUSH4 0xA10DE022 GT PUSH2 0x17A JUMPI DUP1 PUSH4 0xA8602FEA GT PUSH2 0x149 JUMPI DUP1 PUSH4 0xA8602FEA EQ PUSH2 0xBCF JUMPI DUP1 PUSH4 0xABE853E3 EQ PUSH2 0xBF8 JUMPI DUP1 PUSH4 0xAC568E84 EQ PUSH2 0xC35 JUMPI DUP1 PUSH4 0xB690CACA EQ PUSH2 0xC5E JUMPI PUSH2 0x481 JUMP JUMPDEST DUP1 PUSH4 0xA10DE022 EQ PUSH2 0xB01 JUMPI DUP1 PUSH4 0xA217FDDF EQ PUSH2 0xB3E JUMPI DUP1 PUSH4 0xA22CB465 EQ PUSH2 0xB69 JUMPI DUP1 PUSH4 0xA50DCC62 EQ PUSH2 0xB92 JUMPI PUSH2 0x481 JUMP JUMPDEST DUP1 PUSH4 0x91D14854 GT PUSH2 0x1B6 JUMPI DUP1 PUSH4 0x91D14854 EQ PUSH2 0xA45 JUMPI DUP1 PUSH4 0x93E0CDF2 EQ PUSH2 0xA82 JUMPI DUP1 PUSH4 0x95D89B41 EQ PUSH2 0xAAB JUMPI DUP1 PUSH4 0x9B4140CA EQ PUSH2 0xAD6 JUMPI PUSH2 0x481 JUMP JUMPDEST DUP1 PUSH4 0x7192E111 EQ PUSH2 0x9C6 JUMPI DUP1 PUSH4 0x81942B68 EQ PUSH2 0x9EF JUMPI DUP1 PUSH4 0x86D77FD4 EQ PUSH2 0xA1A JUMPI PUSH2 0x481 JUMP JUMPDEST DUP1 PUSH4 0x319948BA GT PUSH2 0x2C1 JUMPI DUP1 PUSH4 0x42842E0E GT PUSH2 0x25F JUMPI DUP1 PUSH4 0x6352211E GT PUSH2 0x22E JUMPI DUP1 PUSH4 0x6352211E EQ PUSH2 0x8E6 JUMPI DUP1 PUSH4 0x637DD2FC EQ PUSH2 0x923 JUMPI DUP1 PUSH4 0x70A08231 EQ PUSH2 0x94C JUMPI DUP1 PUSH4 0x711E3215 EQ PUSH2 0x989 JUMPI PUSH2 0x481 JUMP JUMPDEST DUP1 PUSH4 0x42842E0E EQ PUSH2 0x83E JUMPI DUP1 PUSH4 0x4E6A2690 EQ PUSH2 0x867 JUMPI DUP1 PUSH4 0x5C975ABB EQ PUSH2 0x890 JUMPI DUP1 PUSH4 0x61D027B3 EQ PUSH2 0x8BB JUMPI PUSH2 0x481 JUMP JUMPDEST DUP1 PUSH4 0x36568ABE GT PUSH2 0x29B JUMPI DUP1 PUSH4 0x36568ABE EQ PUSH2 0x7A5 JUMPI DUP1 PUSH4 0x37AD286A EQ PUSH2 0x7CE JUMPI DUP1 PUSH4 0x3CCFD60B EQ PUSH2 0x80B JUMPI DUP1 PUSH4 0x41A38E7F EQ PUSH2 0x822 JUMPI PUSH2 0x481 JUMP JUMPDEST DUP1 PUSH4 0x319948BA EQ PUSH2 0x714 JUMPI DUP1 PUSH4 0x33190F70 EQ PUSH2 0x73D JUMPI DUP1 PUSH4 0x33A1BB26 EQ PUSH2 0x77A JUMPI PUSH2 0x481 JUMP JUMPDEST DUP1 PUSH4 0x95EA7B3 GT PUSH2 0x339 JUMPI DUP1 PUSH4 0x23B872DD GT PUSH2 0x308 JUMPI DUP1 PUSH4 0x23B872DD EQ PUSH2 0x65C JUMPI DUP1 PUSH4 0x248A9CA3 EQ PUSH2 0x685 JUMPI DUP1 PUSH4 0x2A2308DE EQ PUSH2 0x6C2 JUMPI DUP1 PUSH4 0x2F2FF15D EQ PUSH2 0x6EB JUMPI PUSH2 0x481 JUMP JUMPDEST DUP1 PUSH4 0x95EA7B3 EQ PUSH2 0x5B2 JUMPI DUP1 PUSH4 0x144BEE42 EQ PUSH2 0x5DB JUMPI DUP1 PUSH4 0x18160DDD EQ PUSH2 0x606 JUMPI DUP1 PUSH4 0x23297F50 EQ PUSH2 0x631 JUMPI PUSH2 0x481 JUMP JUMPDEST DUP1 PUSH4 0x47FC9AA GT PUSH2 0x375 JUMPI DUP1 PUSH4 0x47FC9AA EQ PUSH2 0x508 JUMPI DUP1 PUSH4 0x4C76AF0 EQ PUSH2 0x533 JUMPI DUP1 PUSH4 0x6FDDE03 EQ PUSH2 0x54A JUMPI DUP1 PUSH4 0x81812FC EQ PUSH2 0x575 JUMPI PUSH2 0x481 JUMP JUMPDEST DUP1 PUSH3 0x163289 EQ PUSH2 0x486 JUMPI DUP1 PUSH4 0x1FFC9A7 EQ PUSH2 0x4A2 JUMPI DUP1 PUSH4 0x39122F3 EQ PUSH2 0x4DF JUMPI PUSH2 0x481 JUMP JUMPDEST CALLDATASIZE PUSH2 0x481 JUMPI PUSH1 0x1 PUSH1 0x1D PUSH1 0x0 CALLER PUSH20 0xFFFFFFFFFFFFFFFFFFFFFFFFFFFFFFFFFFFFFFFF AND PUSH20 0xFFFFFFFFFFFFFFFFFFFFFFFFFFFFFFFFFFFFFFFF AND DUP2 MSTORE PUSH1 0x20 ADD SWAP1 DUP2 MSTORE PUSH1 0x20 ADD PUSH1 0x0 KECCAK256 PUSH1 0x0 PUSH2 0x100 EXP DUP2 SLOAD DUP2 PUSH1 0xFF MUL NOT AND SWAP1 DUP4 ISZERO ISZERO MUL OR SWAP1 SSTORE POP CALLVALUE PUSH1 0x1E PUSH1 0x0 CALLER PUSH20 0xFFFFFFFFFFFFFFFFFFFFFFFFFFFFFFFFFFFFFFFF AND PUSH20 0xFFFFFFFFFFFFFFFFFFFFFFFFFFFFFFFFFFFFFFFF AND DUP2 MSTORE PUSH1 0x20 ADD SWAP1 DUP2 MSTORE PUSH1 0x20 ADD PUSH1 0x0 KECCAK256 DUP2 SWAP1 SSTORE POP CALLVALUE CALLER PUSH20 0xFFFFFFFFFFFFFFFFFFFFFFFFFFFFFFFFFFFFFFFF AND PUSH32 0x188C4D19B4FADD1889D9BD9BF0AB7C97E0719434751E6C05FEAC6339C1C001EC PUSH1 0x40 MLOAD PUSH1 0x40 MLOAD DUP1 SWAP2 SUB SWAP1 LOG3 STOP JUMPDEST PUSH1 0x0 DUP1 REVERT JUMPDEST PUSH2 0x4A0 PUSH1 0x4 DUP1 CALLDATASIZE SUB DUP2 ADD SWAP1 PUSH2 0x49B SWAP2 SWAP1 PUSH2 0x4188 JUMP JUMPDEST PUSH2 0xF4D JUMP JUMPDEST STOP JUMPDEST CALLVALUE DUP1 ISZERO PUSH2 0x4AE JUMPI PUSH1 0x0 DUP1 REVERT JUMPDEST POP PUSH2 0x4C9 PUSH1 0x4 DUP1 CALLDATASIZE SUB DUP2 ADD SWAP1 PUSH2 0x4C4 SWAP2 SWAP1 PUSH2 0x4220 JUMP JUMPDEST PUSH2 0x12AC JUMP JUMPDEST PUSH1 0x40 MLOAD PUSH2 0x4D6 SWAP2 SWAP1 PUSH2 0x4268 JUMP JUMPDEST PUSH1 0x40 MLOAD DUP1 SWAP2 SUB SWAP1 RETURN JUMPDEST CALLVALUE DUP1 ISZERO PUSH2 0x4EB JUMPI PUSH1 0x0 DUP1 REVERT JUMPDEST POP PUSH2 0x506 PUSH1 0x4 DUP1 CALLDATASIZE SUB DUP2 ADD SWAP1 PUSH2 0x501 SWAP2 SWAP1 PUSH2 0x4283 JUMP JUMPDEST PUSH2 0x12BE JUMP JUMPDEST STOP JUMPDEST CALLVALUE DUP1 ISZERO PUSH2 0x514 JUMPI PUSH1 0x0 DUP1 REVERT JUMPDEST POP PUSH2 0x51D PUSH2 0x12D6 JUMP JUMPDEST PUSH1 0x40 MLOAD PUSH2 0x52A SWAP2 SWAP1 PUSH2 0x42BF JUMP JUMPDEST PUSH1 0x40 MLOAD DUP1 SWAP2 SUB SWAP1 RETURN JUMPDEST CALLVALUE DUP1 ISZERO PUSH2 0x53F JUMPI PUSH1 0x0 DUP1 REVERT JUMPDEST POP PUSH2 0x548 PUSH2 0x12DC JUMP JUMPDEST STOP JUMPDEST CALLVALUE DUP1 ISZERO PUSH2 0x556 JUMPI PUSH1 0x0 DUP1 REVERT JUMPDEST POP PUSH2 0x55F PUSH2 0x1366 JUMP JUMPDEST PUSH1 0x40 MLOAD PUSH2 0x56C SWAP2 SWAP1 PUSH2 0x436A JUMP JUMPDEST PUSH1 0x40 MLOAD DUP1 SWAP2 SUB SWAP1 RETURN JUMPDEST CALLVALUE DUP1 ISZERO PUSH2 0x581 JUMPI PUSH1 0x0 DUP1 REVERT JUMPDEST POP PUSH2 0x59C PUSH1 0x4 DUP1 CALLDATASIZE SUB DUP2 ADD SWAP1 PUSH2 0x597 SWAP2 SWAP1 PUSH2 0x4283 JUMP JUMPDEST PUSH2 0x13F8 JUMP JUMPDEST PUSH1 0x40 MLOAD PUSH2 0x5A9 SWAP2 SWAP1 PUSH2 0x439B JUMP JUMPDEST PUSH1 0x40 MLOAD DUP1 SWAP2 SUB SWAP1 RETURN JUMPDEST CALLVALUE DUP1 ISZERO PUSH2 0x5BE JUMPI PUSH1 0x0 DUP1 REVERT JUMPDEST POP PUSH2 0x5D9 PUSH1 0x4 DUP1 CALLDATASIZE SUB DUP2 ADD SWAP1 PUSH2 0x5D4 SWAP2 SWAP1 PUSH2 0x43B6 JUMP JUMPDEST PUSH2 0x143E JUMP JUMPDEST STOP JUMPDEST CALLVALUE DUP1 ISZERO PUSH2 0x5E7 JUMPI PUSH1 0x0 DUP1 REVERT JUMPDEST POP PUSH2 0x5F0 PUSH2 0x1555 JUMP JUMPDEST PUSH1 0x40 MLOAD PUSH2 0x5FD SWAP2 SWAP1 PUSH2 0x42BF JUMP JUMPDEST PUSH1 0x40 MLOAD DUP1 SWAP2 SUB SWAP1 RETURN JUMPDEST CALLVALUE DUP1 ISZERO PUSH2 0x612 JUMPI PUSH1 0x0 DUP1 REVERT JUMPDEST POP PUSH2 0x61B PUSH2 0x155B JUMP JUMPDEST PUSH1 0x40 MLOAD PUSH2 0x628 SWAP2 SWAP1 PUSH2 0x42BF JUMP JUMPDEST PUSH1 0x40 MLOAD DUP1 SWAP2 SUB SWAP1 RETURN JUMPDEST CALLVALUE DUP1 ISZERO PUSH2 0x63D JUMPI PUSH1 0x0 DUP1 REVERT JUMPDEST POP PUSH2 0x646 PUSH2 0x1561 JUMP JUMPDEST PUSH1 0x40 MLOAD PUSH2 0x653 SWAP2 SWAP1 PUSH2 0x42BF JUMP JUMPDEST PUSH1 0x40 MLOAD DUP1 SWAP2 SUB SWAP1 RETURN JUMPDEST CALLVALUE DUP1 ISZERO PUSH2 0x668 JUMPI PUSH1 0x0 DUP1 REVERT JUMPDEST POP PUSH2 0x683 PUSH1 0x4 DUP1 CALLDATASIZE SUB DUP2 ADD SWAP1 PUSH2 0x67E SWAP2 SWAP1 PUSH2 0x43F6 JUMP JUMPDEST PUSH2 0x1567 JUMP JUMPDEST STOP JUMPDEST CALLVALUE DUP1 ISZERO PUSH2 0x691 JUMPI PUSH1 0x0 DUP1 REVERT JUMPDEST POP PUSH2 0x6AC PUSH1 0x4 DUP1 CALLDATASIZE SUB DUP2 ADD SWAP1 PUSH2 0x6A7 SWAP2 SWAP1 PUSH2 0x447F JUMP JUMPDEST PUSH2 0x15C7 JUMP JUMPDEST PUSH1 0x40 MLOAD PUSH2 0x6B9 SWAP2 SWAP1 PUSH2 0x44BB JUMP JUMPDEST PUSH1 0x40 MLOAD DUP1 SWAP2 SUB SWAP1 RETURN JUMPDEST CALLVALUE DUP1 ISZERO PUSH2 0x6CE JUMPI PUSH1 0x0 DUP1 REVERT JUMPDEST POP PUSH2 0x6E9 PUSH1 0x4 DUP1 CALLDATASIZE SUB DUP2 ADD SWAP1 PUSH2 0x6E4 SWAP2 SWAP1 PUSH2 0x461E JUMP JUMPDEST PUSH2 0x15E7 JUMP JUMPDEST STOP JUMPDEST CALLVALUE DUP1 ISZERO PUSH2 0x6F7 JUMPI PUSH1 0x0 DUP1 REVERT JUMPDEST POP PUSH2 0x712 PUSH1 0x4 DUP1 CALLDATASIZE SUB DUP2 ADD SWAP1 PUSH2 0x70D SWAP2 SWAP1 PUSH2 0x4667 JUMP JUMPDEST PUSH2 0x1666 JUMP JUMPDEST STOP JUMPDEST CALLVALUE DUP1 ISZERO PUSH2 0x720 JUMPI PUSH1 0x0 DUP1 REVERT JUMPDEST POP PUSH2 0x73B PUSH1 0x4 DUP1 CALLDATASIZE SUB DUP2 ADD SWAP1 PUSH2 0x736 SWAP2 SWAP1 PUSH2 0x46A7 JUMP JUMPDEST PUSH2 0x1687 JUMP JUMPDEST STOP JUMPDEST CALLVALUE DUP1 ISZERO PUSH2 0x749 JUMPI PUSH1 0x0 DUP1 REVERT JUMPDEST POP PUSH2 0x764 PUSH1 0x4 DUP1 CALLDATASIZE SUB DUP2 ADD SWAP1 PUSH2 0x75F SWAP2 SWAP1 PUSH2 0x46FA JUMP JUMPDEST PUSH2 0x16AF JUMP JUMPDEST PUSH1 0x40 MLOAD PUSH2 0x771 SWAP2 SWAP1 PUSH2 0x42BF JUMP JUMPDEST PUSH1 0x40 MLOAD DUP1 SWAP2 SUB SWAP1 RETURN JUMPDEST CALLVALUE DUP1 ISZERO PUSH2 0x786 JUMPI PUSH1 0x0 DUP1 REVERT JUMPDEST POP PUSH2 0x78F PUSH2 0x16C7 JUMP JUMPDEST PUSH1 0x40 MLOAD PUSH2 0x79C SWAP2 SWAP1 PUSH2 0x436A JUMP JUMPDEST PUSH1 0x40 MLOAD DUP1 SWAP2 SUB SWAP1 RETURN JUMPDEST CALLVALUE DUP1 ISZERO PUSH2 0x7B1 JUMPI PUSH1 0x0 DUP1 REVERT JUMPDEST POP PUSH2 0x7CC PUSH1 0x4 DUP1 CALLDATASIZE SUB DUP2 ADD SWAP1 PUSH2 0x7C7 SWAP2 SWAP1 PUSH2 0x4667 JUMP JUMPDEST PUSH2 0x1755 JUMP JUMPDEST STOP JUMPDEST CALLVALUE DUP1 ISZERO PUSH2 0x7DA JUMPI PUSH1 0x0 DUP1 REVERT JUMPDEST POP PUSH2 0x7F5 PUSH1 0x4 DUP1 CALLDATASIZE SUB DUP2 ADD SWAP1 PUSH2 0x7F0 SWAP2 SWAP1 PUSH2 0x46FA JUMP JUMPDEST PUSH2 0x17D8 JUMP JUMPDEST PUSH1 0x40 MLOAD PUSH2 0x802 SWAP2 SWAP1 PUSH2 0x4268 JUMP JUMPDEST PUSH1 0x40 MLOAD DUP1 SWAP2 SUB SWAP1 RETURN JUMPDEST CALLVALUE DUP1 ISZERO PUSH2 0x817 JUMPI PUSH1 0x0 DUP1 REVERT JUMPDEST POP PUSH2 0x820 PUSH2 0x17F8 JUMP JUMPDEST STOP JUMPDEST PUSH2 0x83C PUSH1 0x4 DUP1 CALLDATASIZE SUB DUP2 ADD SWAP1 PUSH2 0x837 SWAP2 SWAP1 PUSH2 0x4188 JUMP JUMPDEST PUSH2 0x19DC JUMP JUMPDEST STOP JUMPDEST CALLVALUE DUP1 ISZERO PUSH2 0x84A JUMPI PUSH1 0x0 DUP1 REVERT JUMPDEST POP PUSH2 0x865 PUSH1 0x4 DUP1 CALLDATASIZE SUB DUP2 ADD SWAP1 PUSH2 0x860 SWAP2 SWAP1 PUSH2 0x43F6 JUMP JUMPDEST PUSH2 0x1CAB JUMP JUMPDEST STOP JUMPDEST CALLVALUE DUP1 ISZERO PUSH2 0x873 JUMPI PUSH1 0x0 DUP1 REVERT JUMPDEST POP PUSH2 0x88E PUSH1 0x4 DUP1 CALLDATASIZE SUB DUP2 ADD SWAP1 PUSH2 0x889 SWAP2 SWAP1 PUSH2 0x4753 JUMP JUMPDEST PUSH2 0x1CCB JUMP JUMPDEST STOP JUMPDEST CALLVALUE DUP1 ISZERO PUSH2 0x89C JUMPI PUSH1 0x0 DUP1 REVERT JUMPDEST POP PUSH2 0x8A5 PUSH2 0x1D2C JUMP JUMPDEST PUSH1 0x40 MLOAD PUSH2 0x8B2 SWAP2 SWAP1 PUSH2 0x4268 JUMP JUMPDEST PUSH1 0x40 MLOAD DUP1 SWAP2 SUB SWAP1 RETURN JUMPDEST CALLVALUE DUP1 ISZERO PUSH2 0x8C7 JUMPI PUSH1 0x0 DUP1 REVERT JUMPDEST POP PUSH2 0x8D0 PUSH2 0x1D43 JUMP JUMPDEST PUSH1 0x40 MLOAD PUSH2 0x8DD SWAP2 SWAP1 PUSH2 0x439B JUMP JUMPDEST PUSH1 0x40 MLOAD DUP1 SWAP2 SUB SWAP1 RETURN JUMPDEST CALLVALUE DUP1 ISZERO PUSH2 0x8F2 JUMPI PUSH1 0x0 DUP1 REVERT JUMPDEST POP PUSH2 0x90D PUSH1 0x4 DUP1 CALLDATASIZE SUB DUP2 ADD SWAP1 PUSH2 0x908 SWAP2 SWAP1 PUSH2 0x4283 JUMP JUMPDEST PUSH2 0x1D69 JUMP JUMPDEST PUSH1 0x40 MLOAD PUSH2 0x91A SWAP2 SWAP1 PUSH2 0x439B JUMP JUMPDEST PUSH1 0x40 MLOAD DUP1 SWAP2 SUB SWAP1 RETURN JUMPDEST CALLVALUE DUP1 ISZERO PUSH2 0x92F JUMPI PUSH1 0x0 DUP1 REVERT JUMPDEST POP PUSH2 0x94A PUSH1 0x4 DUP1 CALLDATASIZE SUB DUP2 ADD SWAP1 PUSH2 0x945 SWAP2 SWAP1 PUSH2 0x4869 JUMP JUMPDEST PUSH2 0x1DEF JUMP JUMPDEST STOP JUMPDEST CALLVALUE DUP1 ISZERO PUSH2 0x958 JUMPI PUSH1 0x0 DUP1 REVERT JUMPDEST POP PUSH2 0x973 PUSH1 0x4 DUP1 CALLDATASIZE SUB DUP2 ADD SWAP1 PUSH2 0x96E SWAP2 SWAP1 PUSH2 0x46FA JUMP JUMPDEST PUSH2 0x1E92 JUMP JUMPDEST PUSH1 0x40 MLOAD PUSH2 0x980 SWAP2 SWAP1 PUSH2 0x42BF JUMP JUMPDEST PUSH1 0x40 MLOAD DUP1 SWAP2 SUB SWAP1 RETURN JUMPDEST CALLVALUE DUP1 ISZERO PUSH2 0x995 JUMPI PUSH1 0x0 DUP1 REVERT JUMPDEST POP PUSH2 0x9B0 PUSH1 0x4 DUP1 CALLDATASIZE SUB DUP2 ADD SWAP1 PUSH2 0x9AB SWAP2 SWAP1 PUSH2 0x4283 JUMP JUMPDEST PUSH2 0x1F49 JUMP JUMPDEST PUSH1 0x40 MLOAD PUSH2 0x9BD SWAP2 SWAP1 PUSH2 0x42BF JUMP JUMPDEST PUSH1 0x40 MLOAD DUP1 SWAP2 SUB SWAP1 RETURN JUMPDEST CALLVALUE DUP1 ISZERO PUSH2 0x9D2 JUMPI PUSH1 0x0 DUP1 REVERT JUMPDEST POP PUSH2 0x9ED PUSH1 0x4 DUP1 CALLDATASIZE SUB DUP2 ADD SWAP1 PUSH2 0x9E8 SWAP2 SWAP1 PUSH2 0x46A7 JUMP JUMPDEST PUSH2 0x1F61 JUMP JUMPDEST STOP JUMPDEST CALLVALUE DUP1 ISZERO PUSH2 0x9FB JUMPI PUSH1 0x0 DUP1 REVERT JUMPDEST POP PUSH2 0xA04 PUSH2 0x1F89 JUMP JUMPDEST PUSH1 0x40 MLOAD PUSH2 0xA11 SWAP2 SWAP1 PUSH2 0x42BF JUMP JUMPDEST PUSH1 0x40 MLOAD DUP1 SWAP2 SUB SWAP1 RETURN JUMPDEST CALLVALUE DUP1 ISZERO PUSH2 0xA26 JUMPI PUSH1 0x0 DUP1 REVERT JUMPDEST POP PUSH2 0xA2F PUSH2 0x1F8F JUMP JUMPDEST PUSH1 0x40 MLOAD PUSH2 0xA3C SWAP2 SWAP1 PUSH2 0x42BF JUMP JUMPDEST PUSH1 0x40 MLOAD DUP1 SWAP2 SUB SWAP1 RETURN JUMPDEST CALLVALUE DUP1 ISZERO PUSH2 0xA51 JUMPI PUSH1 0x0 DUP1 REVERT JUMPDEST POP PUSH2 0xA6C PUSH1 0x4 DUP1 CALLDATASIZE SUB DUP2 ADD SWAP1 PUSH2 0xA67 SWAP2 SWAP1 PUSH2 0x4667 JUMP JUMPDEST PUSH2 0x1F95 JUMP JUMPDEST PUSH1 0x40 MLOAD PUSH2 0xA79 SWAP2 SWAP1 PUSH2 0x4268 JUMP JUMPDEST PUSH1 0x40 MLOAD DUP1 SWAP2 SUB SWAP1 RETURN JUMPDEST CALLVALUE DUP1 ISZERO PUSH2 0xA8E JUMPI PUSH1 0x0 DUP1 REVERT JUMPDEST POP PUSH2 0xAA9 PUSH1 0x4 DUP1 CALLDATASIZE SUB DUP2 ADD SWAP1 PUSH2 0xAA4 SWAP2 SWAP1 PUSH2 0x4869 JUMP JUMPDEST PUSH2 0x2000 JUMP JUMPDEST STOP JUMPDEST CALLVALUE DUP1 ISZERO PUSH2 0xAB7 JUMPI PUSH1 0x0 DUP1 REVERT JUMPDEST POP PUSH2 0xAC0 PUSH2 0x20A3 JUMP JUMPDEST PUSH1 0x40 MLOAD PUSH2 0xACD SWAP2 SWAP1 PUSH2 0x436A JUMP JUMPDEST PUSH1 0x40 MLOAD DUP1 SWAP2 SUB SWAP1 RETURN JUMPDEST CALLVALUE DUP1 ISZERO PUSH2 0xAE2 JUMPI PUSH1 0x0 DUP1 REVERT JUMPDEST POP PUSH2 0xAEB PUSH2 0x2135 JUMP JUMPDEST PUSH1 0x40 MLOAD PUSH2 0xAF8 SWAP2 SWAP1 PUSH2 0x42BF JUMP JUMPDEST PUSH1 0x40 MLOAD DUP1 SWAP2 SUB SWAP1 RETURN JUMPDEST CALLVALUE DUP1 ISZERO PUSH2 0xB0D JUMPI PUSH1 0x0 DUP1 REVERT JUMPDEST POP PUSH2 0xB28 PUSH1 0x4 DUP1 CALLDATASIZE SUB DUP2 ADD SWAP1 PUSH2 0xB23 SWAP2 SWAP1 PUSH2 0x46FA JUMP JUMPDEST PUSH2 0x213B JUMP JUMPDEST PUSH1 0x40 MLOAD PUSH2 0xB35 SWAP2 SWAP1 PUSH2 0x42BF JUMP JUMPDEST PUSH1 0x40 MLOAD DUP1 SWAP2 SUB SWAP1 RETURN JUMPDEST CALLVALUE DUP1 ISZERO PUSH2 0xB4A JUMPI PUSH1 0x0 DUP1 REVERT JUMPDEST POP PUSH2 0xB53 PUSH2 0x2153 JUMP JUMPDEST PUSH1 0x40 MLOAD PUSH2 0xB60 SWAP2 SWAP1 PUSH2 0x44BB JUMP JUMPDEST PUSH1 0x40 MLOAD DUP1 SWAP2 SUB SWAP1 RETURN JUMPDEST CALLVALUE DUP1 ISZERO PUSH2 0xB75 JUMPI PUSH1 0x0 DUP1 REVERT JUMPDEST POP PUSH2 0xB90 PUSH1 0x4 DUP1 CALLDATASIZE SUB DUP2 ADD SWAP1 PUSH2 0xB8B SWAP2 SWAP1 PUSH2 0x48B2 JUMP JUMPDEST PUSH2 0x215A JUMP JUMPDEST STOP JUMPDEST CALLVALUE DUP1 ISZERO PUSH2 0xB9E JUMPI PUSH1 0x0 DUP1 REVERT JUMPDEST POP PUSH2 0xBB9 PUSH1 0x4 DUP1 CALLDATASIZE SUB DUP2 ADD SWAP1 PUSH2 0xBB4 SWAP2 SWAP1 PUSH2 0x46FA JUMP JUMPDEST PUSH2 0x2170 JUMP JUMPDEST PUSH1 0x40 MLOAD PUSH2 0xBC6 SWAP2 SWAP1 PUSH2 0x4268 JUMP JUMPDEST PUSH1 0x40 MLOAD DUP1 SWAP2 SUB SWAP1 RETURN JUMPDEST CALLVALUE DUP1 ISZERO PUSH2 0xBDB JUMPI PUSH1 0x0 DUP1 REVERT JUMPDEST POP PUSH2 0xBF6 PUSH1 0x4 DUP1 CALLDATASIZE SUB DUP2 ADD SWAP1 PUSH2 0xBF1 SWAP2 SWAP1 PUSH2 0x46FA JUMP JUMPDEST PUSH2 0x2190 JUMP JUMPDEST STOP JUMPDEST CALLVALUE DUP1 ISZERO PUSH2 0xC04 JUMPI PUSH1 0x0 DUP1 REVERT JUMPDEST POP PUSH2 0xC1F PUSH1 0x4 DUP1 CALLDATASIZE SUB DUP2 ADD SWAP1 PUSH2 0xC1A SWAP2 SWAP1 PUSH2 0x46FA JUMP JUMPDEST PUSH2 0x21E2 JUMP JUMPDEST PUSH1 0x40 MLOAD PUSH2 0xC2C SWAP2 SWAP1 PUSH2 0x42BF JUMP JUMPDEST PUSH1 0x40 MLOAD DUP1 SWAP2 SUB SWAP1 RETURN JUMPDEST CALLVALUE DUP1 ISZERO PUSH2 0xC41 JUMPI PUSH1 0x0 DUP1 REVERT JUMPDEST POP PUSH2 0xC5C PUSH1 0x4 DUP1 CALLDATASIZE SUB DUP2 ADD SWAP1 PUSH2 0xC57 SWAP2 SWAP1 PUSH2 0x4283 JUMP JUMPDEST PUSH2 0x21FA JUMP JUMPDEST STOP JUMPDEST PUSH2 0xC78 PUSH1 0x4 DUP1 CALLDATASIZE SUB DUP2 ADD SWAP1 PUSH2 0xC73 SWAP2 SWAP1 PUSH2 0x4188 JUMP JUMPDEST PUSH2 0x2212 JUMP JUMPDEST STOP JUMPDEST CALLVALUE DUP1 ISZERO PUSH2 0xC86 JUMPI PUSH1 0x0 DUP1 REVERT JUMPDEST POP PUSH2 0xCA1 PUSH1 0x4 DUP1 CALLDATASIZE SUB DUP2 ADD SWAP1 PUSH2 0xC9C SWAP2 SWAP1 PUSH2 0x49A7 JUMP JUMPDEST PUSH2 0x2571 JUMP JUMPDEST STOP JUMPDEST CALLVALUE DUP1 ISZERO PUSH2 0xCAF JUMPI PUSH1 0x0 DUP1 REVERT JUMPDEST POP PUSH2 0xCCA PUSH1 0x4 DUP1 CALLDATASIZE SUB DUP2 ADD SWAP1 PUSH2 0xCC5 SWAP2 SWAP1 PUSH2 0x4283 JUMP JUMPDEST PUSH2 0x25D3 JUMP JUMPDEST PUSH1 0x40 MLOAD PUSH2 0xCD7 SWAP2 SWAP1 PUSH2 0x4268 JUMP JUMPDEST PUSH1 0x40 MLOAD DUP1 SWAP2 SUB SWAP1 RETURN JUMPDEST CALLVALUE DUP1 ISZERO PUSH2 0xCEC JUMPI PUSH1 0x0 DUP1 REVERT JUMPDEST POP PUSH2 0xD07 PUSH1 0x4 DUP1 CALLDATASIZE SUB DUP2 ADD SWAP1 PUSH2 0xD02 SWAP2 SWAP1 PUSH2 0x4B42 JUMP JUMPDEST PUSH2 0x25F3 JUMP JUMPDEST STOP JUMPDEST CALLVALUE DUP1 ISZERO PUSH2 0xD15 JUMPI PUSH1 0x0 DUP1 REVERT JUMPDEST POP PUSH2 0xD1E PUSH2 0x275D JUMP JUMPDEST PUSH1 0x40 MLOAD PUSH2 0xD2B SWAP2 SWAP1 PUSH2 0x42BF JUMP JUMPDEST PUSH1 0x40 MLOAD DUP1 SWAP2 SUB SWAP1 RETURN JUMPDEST CALLVALUE DUP1 ISZERO PUSH2 0xD40 JUMPI PUSH1 0x0 DUP1 REVERT JUMPDEST POP PUSH2 0xD5B PUSH1 0x4 DUP1 CALLDATASIZE SUB DUP2 ADD SWAP1 PUSH2 0xD56 SWAP2 SWAP1 PUSH2 0x4C2C JUMP JUMPDEST PUSH2 0x2763 JUMP JUMPDEST STOP JUMPDEST CALLVALUE DUP1 ISZERO PUSH2 0xD69 JUMPI PUSH1 0x0 DUP1 REVERT JUMPDEST POP PUSH2 0xD84 PUSH1 0x4 DUP1 CALLDATASIZE SUB DUP2 ADD SWAP1 PUSH2 0xD7F SWAP2 SWAP1 PUSH2 0x4283 JUMP JUMPDEST PUSH2 0x2784 JUMP JUMPDEST PUSH1 0x40 MLOAD PUSH2 0xD91 SWAP2 SWAP1 PUSH2 0x436A JUMP JUMPDEST PUSH1 0x40 MLOAD DUP1 SWAP2 SUB SWAP1 RETURN JUMPDEST CALLVALUE DUP1 ISZERO PUSH2 0xDA6 JUMPI PUSH1 0x0 DUP1 REVERT JUMPDEST POP PUSH2 0xDC1 PUSH1 0x4 DUP1 CALLDATASIZE SUB DUP2 ADD SWAP1 PUSH2 0xDBC SWAP2 SWAP1 PUSH2 0x46FA JUMP JUMPDEST PUSH2 0x2796 JUMP JUMPDEST PUSH1 0x40 MLOAD PUSH2 0xDCE SWAP2 SWAP1 PUSH2 0x4268 JUMP JUMPDEST PUSH1 0x40 MLOAD DUP1 SWAP2 SUB SWAP1 RETURN JUMPDEST CALLVALUE DUP1 ISZERO PUSH2 0xDE3 JUMPI PUSH1 0x0 DUP1 REVERT JUMPDEST POP PUSH2 0xDEC PUSH2 0x27B6 JUMP JUMPDEST PUSH1 0x40 MLOAD PUSH2 0xDF9 SWAP2 SWAP1 PUSH2 0x44BB JUMP JUMPDEST PUSH1 0x40 MLOAD DUP1 SWAP2 SUB SWAP1 RETURN JUMPDEST CALLVALUE DUP1 ISZERO PUSH2 0xE0E JUMPI PUSH1 0x0 DUP1 REVERT JUMPDEST POP PUSH2 0xE29 PUSH1 0x4 DUP1 CALLDATASIZE SUB DUP2 ADD SWAP1 PUSH2 0xE24 SWAP2 SWAP1 PUSH2 0x4667 JUMP JUMPDEST PUSH2 0x27DA JUMP JUMPDEST STOP JUMPDEST CALLVALUE DUP1 ISZERO PUSH2 0xE37 JUMPI PUSH1 0x0 DUP1 REVERT JUMPDEST POP PUSH2 0xE40 PUSH2 0x27FB JUMP JUMPDEST PUSH1 0x40 MLOAD PUSH2 0xE4D SWAP2 SWAP1 PUSH2 0x42BF JUMP JUMPDEST PUSH1 0x40 MLOAD DUP1 SWAP2 SUB SWAP1 RETURN JUMPDEST CALLVALUE DUP1 ISZERO PUSH2 0xE62 JUMPI PUSH1 0x0 DUP1 REVERT JUMPDEST POP PUSH2 0xE7D PUSH1 0x4 DUP1 CALLDATASIZE SUB DUP2 ADD SWAP1 PUSH2 0xE78 SWAP2 SWAP1 PUSH2 0x461E JUMP JUMPDEST PUSH2 0x2801 JUMP JUMPDEST STOP JUMPDEST CALLVALUE DUP1 ISZERO PUSH2 0xE8B JUMPI PUSH1 0x0 DUP1 REVERT JUMPDEST POP PUSH2 0xE94 PUSH2 0x2963 JUMP JUMPDEST PUSH1 0x40 MLOAD PUSH2 0xEA1 SWAP2 SWAP1 PUSH2 0x44BB JUMP JUMPDEST PUSH1 0x40 MLOAD DUP1 SWAP2 SUB SWAP1 RETURN JUMPDEST CALLVALUE DUP1 ISZERO PUSH2 0xEB6 JUMPI PUSH1 0x0 DUP1 REVERT JUMPDEST POP PUSH2 0xED1 PUSH1 0x4 DUP1 CALLDATASIZE SUB DUP2 ADD SWAP1 PUSH2 0xECC SWAP2 SWAP1 PUSH2 0x4C75 JUMP JUMPDEST PUSH2 0x2987 JUMP JUMPDEST PUSH1 0x40 MLOAD PUSH2 0xEDE SWAP2 SWAP1 PUSH2 0x4268 JUMP JUMPDEST PUSH1 0x40 MLOAD DUP1 SWAP2 SUB SWAP1 RETURN JUMPDEST CALLVALUE DUP1 ISZERO PUSH2 0xEF3 JUMPI PUSH1 0x0 DUP1 REVERT JUMPDEST POP PUSH2 0xF0E PUSH1 0x4 DUP1 CALLDATASIZE SUB DUP2 ADD SWAP1 PUSH2 0xF09 SWAP2 SWAP1 PUSH2 0x46FA JUMP JUMPDEST PUSH2 0x2A1B JUMP JUMPDEST PUSH1 0x40 MLOAD PUSH2 0xF1B SWAP2 SWAP1 PUSH2 0x42BF JUMP JUMPDEST PUSH1 0x40 MLOAD DUP1 SWAP2 SUB SWAP1 RETURN JUMPDEST CALLVALUE DUP1 ISZERO PUSH2 0xF30 JUMPI PUSH1 0x0 DUP1 REVERT JUMPDEST POP PUSH2 0xF4B PUSH1 0x4 DUP1 CALLDATASIZE SUB DUP2 ADD SWAP1 PUSH2 0xF46 SWAP2 SWAP1 PUSH2 0x4283 JUMP JUMPDEST PUSH2 0x2A33 JUMP JUMPDEST STOP JUMPDEST DUP2 DUP2 PUSH1 0x15 PUSH1 0x0 SWAP1 SLOAD SWAP1 PUSH2 0x100 EXP SWAP1 DIV PUSH1 0xFF AND PUSH2 0xF9E JUMPI PUSH1 0x40 MLOAD PUSH32 0x8C379A000000000000000000000000000000000000000000000000000000000 DUP2 MSTORE PUSH1 0x4 ADD PUSH2 0xF95 SWAP1 PUSH2 0x4D01 JUMP JUMPDEST PUSH1 0x40 MLOAD DUP1 SWAP2 SUB SWAP1 REVERT JUMPDEST PUSH1 0x16 SLOAD DUP3 PUSH1 0x1B SLOAD PUSH2 0xFAF SWAP2 SWAP1 PUSH2 0x4D50 JUMP JUMPDEST GT ISZERO PUSH2 0xFF0 JUMPI PUSH1 0x40 MLOAD PUSH32 0x8C379A000000000000000000000000000000000000000000000000000000000 DUP2 MSTORE PUSH1 0x4 ADD PUSH2 0xFE7 SWAP1 PUSH2 0x4DD0 JUMP JUMPDEST PUSH1 0x40 MLOAD DUP1 SWAP2 SUB SWAP1 REVERT JUMPDEST PUSH1 0xE PUSH1 0x0 DUP3 PUSH20 0xFFFFFFFFFFFFFFFFFFFFFFFFFFFFFFFFFFFFFFFF AND PUSH20 0xFFFFFFFFFFFFFFFFFFFFFFFFFFFFFFFFFFFFFFFF AND DUP2 MSTORE PUSH1 0x20 ADD SWAP1 DUP2 MSTORE PUSH1 0x20 ADD PUSH1 0x0 KECCAK256 PUSH1 0x0 SWAP1 SLOAD SWAP1 PUSH2 0x100 EXP SWAP1 DIV PUSH1 0xFF AND PUSH2 0x107C JUMPI PUSH1 0x40 MLOAD PUSH32 0x8C379A000000000000000000000000000000000000000000000000000000000 DUP2 MSTORE PUSH1 0x4 ADD PUSH2 0x1073 SWAP1 PUSH2 0x4E62 JUMP JUMPDEST PUSH1 0x40 MLOAD DUP1 SWAP2 SUB SWAP1 REVERT JUMPDEST PUSH1 0x18 SLOAD PUSH1 0x11 PUSH1 0x0 DUP4 PUSH20 0xFFFFFFFFFFFFFFFFFFFFFFFFFFFFFFFFFFFFFFFF AND PUSH20 0xFFFFFFFFFFFFFFFFFFFFFFFFFFFFFFFFFFFFFFFF AND DUP2 MSTORE PUSH1 0x20 ADD SWAP1 DUP2 MSTORE PUSH1 0x20 ADD PUSH1 0x0 KECCAK256 SLOAD GT ISZERO PUSH2 0x1100 JUMPI PUSH1 0x40 MLOAD PUSH32 0x8C379A000000000000000000000000000000000000000000000000000000000 DUP2 MSTORE PUSH1 0x4 ADD PUSH2 0x10F7 SWAP1 PUSH2 0x4ECE JUMP JUMPDEST PUSH1 0x40 MLOAD DUP1 SWAP2 SUB SWAP1 REVERT JUMPDEST PUSH1 0x18 SLOAD DUP3 PUSH1 0x11 PUSH1 0x0 DUP5 PUSH20 0xFFFFFFFFFFFFFFFFFFFFFFFFFFFFFFFFFFFFFFFF AND PUSH20 0xFFFFFFFFFFFFFFFFFFFFFFFFFFFFFFFFFFFFFFFF AND DUP2 MSTORE PUSH1 0x20 ADD SWAP1 DUP2 MSTORE PUSH1 0x20 ADD PUSH1 0x0 KECCAK256 SLOAD PUSH2 0x114E SWAP2 SWAP1 PUSH2 0x4D50 JUMP JUMPDEST GT ISZERO PUSH2 0x118F JUMPI PUSH1 0x40 MLOAD PUSH32 0x8C379A000000000000000000000000000000000000000000000000000000000 DUP2 MSTORE PUSH1 0x4 ADD PUSH2 0x1186 SWAP1 PUSH2 0x4F3A JUMP JUMPDEST PUSH1 0x40 MLOAD DUP1 SWAP2 SUB SWAP1 REVERT JUMPDEST CALLVALUE PUSH1 0x9 SLOAD DUP4 PUSH2 0x119E SWAP2 SWAP1 PUSH2 0x4F5A JUMP JUMPDEST GT ISZERO PUSH2 0x11DF JUMPI PUSH1 0x40 MLOAD PUSH32 0x8C379A000000000000000000000000000000000000000000000000000000000 DUP2 MSTORE PUSH1 0x4 ADD PUSH2 0x11D6 SWAP1 PUSH2 0x4FE8 JUMP JUMPDEST PUSH1 0x40 MLOAD DUP1 SWAP2 SUB SWAP1 REVERT JUMPDEST PUSH1 0x0 JUMPDEST DUP5 DUP2 LT ISZERO PUSH2 0x12A5 JUMPI PUSH1 0x0 PUSH1 0x14 PUSH1 0x0 PUSH1 0x1B SLOAD DUP2 MSTORE PUSH1 0x20 ADD SWAP1 DUP2 MSTORE PUSH1 0x20 ADD PUSH1 0x0 KECCAK256 SLOAD SWAP1 POP PUSH1 0x1 PUSH1 0x1B PUSH1 0x0 DUP3 DUP3 SLOAD PUSH2 0x1217 SWAP2 SWAP1 PUSH2 0x4D50 JUMP JUMPDEST SWAP3 POP POP DUP2 SWAP1 SSTORE POP PUSH1 0x1 PUSH1 0x11 PUSH1 0x0 DUP8 PUSH20 0xFFFFFFFFFFFFFFFFFFFFFFFFFFFFFFFFFFFFFFFF AND PUSH20 0xFFFFFFFFFFFFFFFFFFFFFFFFFFFFFFFFFFFFFFFF AND DUP2 MSTORE PUSH1 0x20 ADD SWAP1 DUP2 MSTORE PUSH1 0x20 ADD PUSH1 0x0 KECCAK256 PUSH1 0x0 DUP3 DUP3 SLOAD PUSH2 0x126E SWAP2 SWAP1 PUSH2 0x4D50 JUMP JUMPDEST SWAP3 POP POP DUP2 SWAP1 SSTORE POP PUSH2 0x127F DUP6 DUP3 PUSH2 0x2B28 JUMP JUMPDEST PUSH2 0x1291 DUP2 PUSH2 0x128C DUP4 PUSH2 0x2D45 JUMP JUMPDEST PUSH2 0x2D79 JUMP JUMPDEST POP DUP1 DUP1 PUSH2 0x129D SWAP1 PUSH2 0x5008 JUMP JUMPDEST SWAP2 POP POP PUSH2 0x11E2 JUMP JUMPDEST POP POP POP POP POP JUMP JUMPDEST PUSH1 0x0 PUSH2 0x12B7 DUP3 PUSH2 0x2E1D JUMP JUMPDEST SWAP1 POP SWAP2 SWAP1 POP JUMP JUMPDEST PUSH1 0x0 DUP1 SHL PUSH2 0x12CB DUP2 PUSH2 0x2E97 JUMP JUMPDEST DUP2 PUSH1 0x17 DUP2 SWAP1 SSTORE POP POP POP JUMP JUMPDEST PUSH1 0x16 SLOAD DUP2 JUMP JUMPDEST PUSH1 0x0 DUP1 SHL PUSH2 0x12E9 DUP2 PUSH2 0x2E97 JUMP JUMPDEST PUSH1 0x0 CALLER PUSH20 0xFFFFFFFFFFFFFFFFFFFFFFFFFFFFFFFFFFFFFFFF AND PUSH2 0x8FC SELFBALANCE SWAP1 DUP2 ISZERO MUL SWAP1 PUSH1 0x40 MLOAD PUSH1 0x0 PUSH1 0x40 MLOAD DUP1 DUP4 SUB DUP2 DUP6 DUP9 DUP9 CALL SWAP4 POP POP POP POP SWAP1 POP DUP1 PUSH2 0x1362 JUMPI PUSH1 0x40 MLOAD PUSH32 0x8C379A000000000000000000000000000000000000000000000000000000000 DUP2 MSTORE PUSH1 0x4 ADD PUSH2 0x1359 SWAP1 PUSH2 0x509C JUMP JUMPDEST PUSH1 0x40 MLOAD DUP1 SWAP2 SUB SWAP1 REVERT JUMPDEST POP POP JUMP JUMPDEST PUSH1 0x60 PUSH1 0x0 DUP1 SLOAD PUSH2 0x1375 SWAP1 PUSH2 0x50EB JUMP JUMPDEST DUP1 PUSH1 0x1F ADD PUSH1 0x20 DUP1 SWAP2 DIV MUL PUSH1 0x20 ADD PUSH1 0x40 MLOAD SWAP1 DUP2 ADD PUSH1 0x40 MSTORE DUP1 SWAP3 SWAP2 SWAP1 DUP2 DUP2 MSTORE PUSH1 0x20 ADD DUP3 DUP1 SLOAD PUSH2 0x13A1 SWAP1 PUSH2 0x50EB JUMP JUMPDEST DUP1 ISZERO PUSH2 0x13EE JUMPI DUP1 PUSH1 0x1F LT PUSH2 0x13C3 JUMPI PUSH2 0x100 DUP1 DUP4 SLOAD DIV MUL DUP4 MSTORE SWAP2 PUSH1 0x20 ADD SWAP2 PUSH2 0x13EE JUMP JUMPDEST DUP3 ADD SWAP2 SWAP1 PUSH1 0x0 MSTORE PUSH1 0x20 PUSH1 0x0 KECCAK256 SWAP1 JUMPDEST DUP2 SLOAD DUP2 MSTORE SWAP1 PUSH1 0x1 ADD SWAP1 PUSH1 0x20 ADD DUP1 DUP4 GT PUSH2 0x13D1 JUMPI DUP3 SWAP1 SUB PUSH1 0x1F AND DUP3 ADD SWAP2 JUMPDEST POP POP POP POP POP SWAP1 POP SWAP1 JUMP JUMPDEST PUSH1 0x0 PUSH2 0x1403 DUP3 PUSH2 0x2EAB JUMP JUMPDEST PUSH1 0x4 PUSH1 0x0 DUP4 DUP2 MSTORE PUSH1 0x20 ADD SWAP1 DUP2 MSTORE PUSH1 0x20 ADD PUSH1 0x0 KECCAK256 PUSH1 0x0 SWAP1 SLOAD SWAP1 PUSH2 0x100 EXP SWAP1 DIV PUSH20 0xFFFFFFFFFFFFFFFFFFFFFFFFFFFFFFFFFFFFFFFF AND SWAP1 POP SWAP2 SWAP1 POP JUMP JUMPDEST PUSH1 0x0 PUSH2 0x1449 DUP3 PUSH2 0x1D69 JUMP JUMPDEST SWAP1 POP DUP1 PUSH20 0xFFFFFFFFFFFFFFFFFFFFFFFFFFFFFFFFFFFFFFFF AND DUP4 PUSH20 0xFFFFFFFFFFFFFFFFFFFFFFFFFFFFFFFFFFFFFFFF AND SUB PUSH2 0x14B9 JUMPI PUSH1 0x40 MLOAD PUSH32 0x8C379A000000000000000000000000000000000000000000000000000000000 DUP2 MSTORE PUSH1 0x4 ADD PUSH2 0x14B0 SWAP1 PUSH2 0x518E JUMP JUMPDEST PUSH1 0x40 MLOAD DUP1 SWAP2 SUB SWAP1 REVERT JUMPDEST DUP1 PUSH20 0xFFFFFFFFFFFFFFFFFFFFFFFFFFFFFFFFFFFFFFFF AND PUSH2 0x14D8 PUSH2 0x2EF6 JUMP JUMPDEST PUSH20 0xFFFFFFFFFFFFFFFFFFFFFFFFFFFFFFFFFFFFFFFF AND EQ DUP1 PUSH2 0x1507 JUMPI POP PUSH2 0x1506 DUP2 PUSH2 0x1501 PUSH2 0x2EF6 JUMP JUMPDEST PUSH2 0x2987 JUMP JUMPDEST JUMPDEST PUSH2 0x1546 JUMPI PUSH1 0x40 MLOAD PUSH32 0x8C379A000000000000000000000000000000000000000000000000000000000 DUP2 MSTORE PUSH1 0x4 ADD PUSH2 0x153D SWAP1 PUSH2 0x5220 JUMP JUMPDEST PUSH1 0x40 MLOAD DUP1 SWAP2 SUB SWAP1 REVERT JUMPDEST PUSH2 0x1550 DUP4 DUP4 PUSH2 0x2EFE JUMP JUMPDEST POP POP POP JUMP JUMPDEST PUSH1 0x17 SLOAD DUP2 JUMP JUMPDEST PUSH1 0x1B SLOAD DUP2 JUMP JUMPDEST PUSH1 0x9 SLOAD DUP2 JUMP JUMPDEST PUSH2 0x1578 PUSH2 0x1572 PUSH2 0x2EF6 JUMP JUMPDEST DUP3 PUSH2 0x2FB7 JUMP JUMPDEST PUSH2 0x15B7 JUMPI PUSH1 0x40 MLOAD PUSH32 0x8C379A000000000000000000000000000000000000000000000000000000000 DUP2 MSTORE PUSH1 0x4 ADD PUSH2 0x15AE SWAP1 PUSH2 0x52B2 JUMP JUMPDEST PUSH1 0x40 MLOAD DUP1 SWAP2 SUB SWAP1 REVERT JUMPDEST PUSH2 0x15C2 DUP4 DUP4 DUP4 PUSH2 0x304C JUMP JUMPDEST POP POP POP JUMP JUMPDEST PUSH1 0x0 PUSH1 0x8 PUSH1 0x0 DUP4 DUP2 MSTORE PUSH1 0x20 ADD SWAP1 DUP2 MSTORE PUSH1 0x20 ADD PUSH1 0x0 KECCAK256 PUSH1 0x1 ADD SLOAD SWAP1 POP SWAP2 SWAP1 POP JUMP JUMPDEST PUSH1 0x0 DUP1 SHL PUSH2 0x15F4 DUP2 PUSH2 0x2E97 JUMP JUMPDEST PUSH1 0x0 JUMPDEST DUP3 MLOAD DUP2 LT ISZERO PUSH2 0x1661 JUMPI DUP3 DUP2 DUP2 MLOAD DUP2 LT PUSH2 0x1613 JUMPI PUSH2 0x1612 PUSH2 0x52D2 JUMP JUMPDEST JUMPDEST PUSH1 0x20 MUL PUSH1 0x20 ADD ADD MLOAD PUSH1 0x14 PUSH1 0x0 PUSH1 0x17 SLOAD DUP2 MSTORE PUSH1 0x20 ADD SWAP1 DUP2 MSTORE PUSH1 0x20 ADD PUSH1 0x0 KECCAK256 DUP2 SWAP1 SSTORE POP PUSH1 0x1 PUSH1 0x17 PUSH1 0x0 DUP3 DUP3 SLOAD PUSH2 0x1647 SWAP2 SWAP1 PUSH2 0x4D50 JUMP JUMPDEST SWAP3 POP POP DUP2 SWAP1 SSTORE POP DUP1 DUP1 PUSH2 0x1659 SWAP1 PUSH2 0x5008 JUMP JUMPDEST SWAP2 POP POP PUSH2 0x15F7 JUMP JUMPDEST POP POP POP JUMP JUMPDEST PUSH2 0x166F DUP3 PUSH2 0x15C7 JUMP JUMPDEST PUSH2 0x1678 DUP2 PUSH2 0x2E97 JUMP JUMPDEST PUSH2 0x1682 DUP4 DUP4 PUSH2 0x3345 JUMP JUMPDEST POP POP POP JUMP JUMPDEST PUSH1 0x0 DUP1 SHL PUSH2 0x1694 DUP2 PUSH2 0x2E97 JUMP JUMPDEST DUP4 PUSH1 0x9 DUP2 SWAP1 SSTORE POP DUP3 PUSH1 0xA DUP2 SWAP1 SSTORE POP DUP2 PUSH1 0xB DUP2 SWAP1 SSTORE POP POP POP POP POP JUMP JUMPDEST PUSH1 0x1E PUSH1 0x20 MSTORE DUP1 PUSH1 0x0 MSTORE PUSH1 0x40 PUSH1 0x0 KECCAK256 PUSH1 0x0 SWAP2 POP SWAP1 POP SLOAD DUP2 JUMP JUMPDEST PUSH1 0x1C DUP1 SLOAD PUSH2 0x16D4 SWAP1 PUSH2 0x50EB JUMP JUMPDEST DUP1 PUSH1 0x1F ADD PUSH1 0x20 DUP1 SWAP2 DIV MUL PUSH1 0x20 ADD PUSH1 0x40 MLOAD SWAP1 DUP2 ADD PUSH1 0x40 MSTORE DUP1 SWAP3 SWAP2 SWAP1 DUP2 DUP2 MSTORE PUSH1 0x20 ADD DUP3 DUP1 SLOAD PUSH2 0x1700 SWAP1 PUSH2 0x50EB JUMP JUMPDEST DUP1 ISZERO PUSH2 0x174D JUMPI DUP1 PUSH1 0x1F LT PUSH2 0x1722 JUMPI PUSH2 0x100 DUP1 DUP4 SLOAD DIV MUL DUP4 MSTORE SWAP2 PUSH1 0x20 ADD SWAP2 PUSH2 0x174D JUMP JUMPDEST DUP3 ADD SWAP2 SWAP1 PUSH1 0x0 MSTORE PUSH1 0x20 PUSH1 0x0 KECCAK256 SWAP1 JUMPDEST DUP2 SLOAD DUP2 MSTORE SWAP1 PUSH1 0x1 ADD SWAP1 PUSH1 0x20 ADD DUP1 DUP4 GT PUSH2 0x1730 JUMPI DUP3 SWAP1 SUB PUSH1 0x1F AND DUP3 ADD SWAP2 JUMPDEST POP POP POP POP POP DUP2 JUMP JUMPDEST PUSH2 0x175D PUSH2 0x2EF6 JUMP JUMPDEST PUSH20 0xFFFFFFFFFFFFFFFFFFFFFFFFFFFFFFFFFFFFFFFF AND DUP2 PUSH20 0xFFFFFFFFFFFFFFFFFFFFFFFFFFFFFFFFFFFFFFFF AND EQ PUSH2 0x17CA JUMPI PUSH1 0x40 MLOAD PUSH32 0x8C379A000000000000000000000000000000000000000000000000000000000 DUP2 MSTORE PUSH1 0x4 ADD PUSH2 0x17C1 SWAP1 PUSH2 0x5373 JUMP JUMPDEST PUSH1 0x40 MLOAD DUP1 SWAP2 SUB SWAP1 REVERT JUMPDEST PUSH2 0x17D4 DUP3 DUP3 PUSH2 0x3426 JUMP JUMPDEST POP POP JUMP JUMPDEST PUSH1 0xF PUSH1 0x20 MSTORE DUP1 PUSH1 0x0 MSTORE PUSH1 0x40 PUSH1 0x0 KECCAK256 PUSH1 0x0 SWAP2 POP SLOAD SWAP1 PUSH2 0x100 EXP SWAP1 DIV PUSH1 0xFF AND DUP2 JUMP JUMPDEST PUSH1 0x1D PUSH1 0x0 CALLER PUSH20 0xFFFFFFFFFFFFFFFFFFFFFFFFFFFFFFFFFFFFFFFF AND PUSH20 0xFFFFFFFFFFFFFFFFFFFFFFFFFFFFFFFFFFFFFFFF AND DUP2 MSTORE PUSH1 0x20 ADD SWAP1 DUP2 MSTORE PUSH1 0x20 ADD PUSH1 0x0 KECCAK256 PUSH1 0x0 SWAP1 SLOAD SWAP1 PUSH2 0x100 EXP SWAP1 DIV PUSH1 0xFF AND PUSH2 0x1884 JUMPI PUSH1 0x40 MLOAD PUSH32 0x8C379A000000000000000000000000000000000000000000000000000000000 DUP2 MSTORE PUSH1 0x4 ADD PUSH2 0x187B SWAP1 PUSH2 0x53DF JUMP JUMPDEST PUSH1 0x40 MLOAD DUP1 SWAP2 SUB SWAP1 REVERT JUMPDEST PUSH1 0x0 PUSH1 0x1D PUSH1 0x0 CALLER PUSH20 0xFFFFFFFFFFFFFFFFFFFFFFFFFFFFFFFFFFFFFFFF AND PUSH20 0xFFFFFFFFFFFFFFFFFFFFFFFFFFFFFFFFFFFFFFFF AND DUP2 MSTORE PUSH1 0x20 ADD SWAP1 DUP2 MSTORE PUSH1 0x20 ADD PUSH1 0x0 KECCAK256 PUSH1 0x0 PUSH2 0x100 EXP DUP2 SLOAD DUP2 PUSH1 0xFF MUL NOT AND SWAP1 DUP4 ISZERO ISZERO MUL OR SWAP1 SSTORE POP PUSH1 0x0 PUSH1 0x1E PUSH1 0x0 CALLER PUSH20 0xFFFFFFFFFFFFFFFFFFFFFFFFFFFFFFFFFFFFFFFF AND PUSH20 0xFFFFFFFFFFFFFFFFFFFFFFFFFFFFFFFFFFFFFFFF AND DUP2 MSTORE PUSH1 0x20 ADD SWAP1 DUP2 MSTORE PUSH1 0x20 ADD PUSH1 0x0 KECCAK256 DUP2 SWAP1 SSTORE POP PUSH1 0x0 CALLER PUSH20 0xFFFFFFFFFFFFFFFFFFFFFFFFFFFFFFFFFFFFFFFF AND PUSH2 0x8FC PUSH1 0x1E PUSH1 0x0 CALLER PUSH20 0xFFFFFFFFFFFFFFFFFFFFFFFFFFFFFFFFFFFFFFFF AND PUSH20 0xFFFFFFFFFFFFFFFFFFFFFFFFFFFFFFFFFFFFFFFF AND DUP2 MSTORE PUSH1 0x20 ADD SWAP1 DUP2 MSTORE PUSH1 0x20 ADD PUSH1 0x0 KECCAK256 SLOAD SWAP1 DUP2 ISZERO MUL SWAP1 PUSH1 0x40 MLOAD PUSH1 0x0 PUSH1 0x40 MLOAD DUP1 DUP4 SUB DUP2 DUP6 DUP9 DUP9 CALL SWAP4 POP POP POP POP SWAP1 POP DUP1 PUSH2 0x19D9 JUMPI PUSH1 0x40 MLOAD PUSH32 0x8C379A000000000000000000000000000000000000000000000000000000000 DUP2 MSTORE PUSH1 0x4 ADD PUSH2 0x19D0 SWAP1 PUSH2 0x509C JUMP JUMPDEST PUSH1 0x40 MLOAD DUP1 SWAP2 SUB SWAP1 REVERT JUMPDEST POP JUMP JUMPDEST PUSH1 0x15 PUSH1 0x2 SWAP1 SLOAD SWAP1 PUSH2 0x100 EXP SWAP1 DIV PUSH1 0xFF AND PUSH2 0x1A2B JUMPI PUSH1 0x40 MLOAD PUSH32 0x8C379A000000000000000000000000000000000000000000000000000000000 DUP2 MSTORE PUSH1 0x4 ADD PUSH2 0x1A22 SWAP1 PUSH2 0x544B JUMP JUMPDEST PUSH1 0x40 MLOAD DUP1 SWAP2 SUB SWAP1 REVERT JUMPDEST PUSH1 0x16 SLOAD DUP3 PUSH1 0x1B SLOAD PUSH2 0x1A3C SWAP2 SWAP1 PUSH2 0x4D50 JUMP JUMPDEST GT ISZERO PUSH2 0x1A7D JUMPI PUSH1 0x40 MLOAD PUSH32 0x8C379A000000000000000000000000000000000000000000000000000000000 DUP2 MSTORE PUSH1 0x4 ADD PUSH2 0x1A74 SWAP1 PUSH2 0x4DD0 JUMP JUMPDEST PUSH1 0x40 MLOAD DUP1 SWAP2 SUB SWAP1 REVERT JUMPDEST PUSH1 0x1A SLOAD PUSH1 0x13 PUSH1 0x0 DUP4 PUSH20 0xFFFFFFFFFFFFFFFFFFFFFFFFFFFFFFFFFFFFFFFF AND PUSH20 0xFFFFFFFFFFFFFFFFFFFFFFFFFFFFFFFFFFFFFFFF AND DUP2 MSTORE PUSH1 0x20 ADD SWAP1 DUP2 MSTORE PUSH1 0x20 ADD PUSH1 0x0 KECCAK256 SLOAD GT ISZERO PUSH2 0x1B01 JUMPI PUSH1 0x40 MLOAD PUSH32 0x8C379A000000000000000000000000000000000000000000000000000000000 DUP2 MSTORE PUSH1 0x4 ADD PUSH2 0x1AF8 SWAP1 PUSH2 0x54B7 JUMP JUMPDEST PUSH1 0x40 MLOAD DUP1 SWAP2 SUB SWAP1 REVERT JUMPDEST PUSH1 0x1A SLOAD DUP3 PUSH1 0x13 PUSH1 0x0 DUP5 PUSH20 0xFFFFFFFFFFFFFFFFFFFFFFFFFFFFFFFFFFFFFFFF AND PUSH20 0xFFFFFFFFFFFFFFFFFFFFFFFFFFFFFFFFFFFFFFFF AND DUP2 MSTORE PUSH1 0x20 ADD SWAP1 DUP2 MSTORE PUSH1 0x20 ADD PUSH1 0x0 KECCAK256 SLOAD PUSH2 0x1B4F SWAP2 SWAP1 PUSH2 0x4D50 JUMP JUMPDEST GT ISZERO PUSH2 0x1B90 JUMPI PUSH1 0x40 MLOAD PUSH32 0x8C379A000000000000000000000000000000000000000000000000000000000 DUP2 MSTORE PUSH1 0x4 ADD PUSH2 0x1B87 SWAP1 PUSH2 0x4F3A JUMP JUMPDEST PUSH1 0x40 MLOAD DUP1 SWAP2 SUB SWAP1 REVERT JUMPDEST CALLVALUE PUSH1 0xB SLOAD DUP4 PUSH2 0x1B9F SWAP2 SWAP1 PUSH2 0x4F5A JUMP JUMPDEST GT ISZERO PUSH2 0x1BE0 JUMPI PUSH1 0x40 MLOAD PUSH32 0x8C379A000000000000000000000000000000000000000000000000000000000 DUP2 MSTORE PUSH1 0x4 ADD PUSH2 0x1BD7 SWAP1 PUSH2 0x4FE8 JUMP JUMPDEST PUSH1 0x40 MLOAD DUP1 SWAP2 SUB SWAP1 REVERT JUMPDEST PUSH1 0x0 JUMPDEST DUP3 DUP2 LT ISZERO PUSH2 0x1CA6 JUMPI PUSH1 0x0 PUSH1 0x14 PUSH1 0x0 PUSH1 0x1B SLOAD DUP2 MSTORE PUSH1 0x20 ADD SWAP1 DUP2 MSTORE PUSH1 0x20 ADD PUSH1 0x0 KECCAK256 SLOAD SWAP1 POP PUSH1 0x1 PUSH1 0x1B PUSH1 0x0 DUP3 DUP3 SLOAD PUSH2 0x1C18 SWAP2 SWAP1 PUSH2 0x4D50 JUMP JUMPDEST SWAP3 POP POP DUP2 SWAP1 SSTORE POP PUSH1 0x1 PUSH1 0x13 PUSH1 0x0 DUP6 PUSH20 0xFFFFFFFFFFFFFFFFFFFFFFFFFFFFFFFFFFFFFFFF AND PUSH20 0xFFFFFFFFFFFFFFFFFFFFFFFFFFFFFFFFFFFFFFFF AND DUP2 MSTORE PUSH1 0x20 ADD SWAP1 DUP2 MSTORE PUSH1 0x20 ADD PUSH1 0x0 KECCAK256 PUSH1 0x0 DUP3 DUP3 SLOAD PUSH2 0x1C6F SWAP2 SWAP1 PUSH2 0x4D50 JUMP JUMPDEST SWAP3 POP POP DUP2 SWAP1 SSTORE POP PUSH2 0x1C80 DUP4 DUP3 PUSH2 0x2B28 JUMP JUMPDEST PUSH2 0x1C92 DUP2 PUSH2 0x1C8D DUP4 PUSH2 0x2D45 JUMP JUMPDEST PUSH2 0x2D79 JUMP JUMPDEST POP DUP1 DUP1 PUSH2 0x1C9E SWAP1 PUSH2 0x5008 JUMP JUMPDEST SWAP2 POP POP PUSH2 0x1BE3 JUMP JUMPDEST POP POP POP JUMP JUMPDEST PUSH2 0x1CC6 DUP4 DUP4 DUP4 PUSH1 0x40 MLOAD DUP1 PUSH1 0x20 ADD PUSH1 0x40 MSTORE DUP1 PUSH1 0x0 DUP2 MSTORE POP PUSH2 0x2571 JUMP JUMPDEST POP POP POP JUMP JUMPDEST PUSH1 0x0 DUP1 SHL PUSH2 0x1CD8 DUP2 PUSH2 0x2E97 JUMP JUMPDEST DUP4 PUSH1 0x15 PUSH1 0x0 PUSH2 0x100 EXP DUP2 SLOAD DUP2 PUSH1 0xFF MUL NOT AND SWAP1 DUP4 ISZERO ISZERO MUL OR SWAP1 SSTORE POP DUP3 PUSH1 0x15 PUSH1 0x1 PUSH2 0x100 EXP DUP2 SLOAD DUP2 PUSH1 0xFF MUL NOT AND SWAP1 DUP4 ISZERO ISZERO MUL OR SWAP1 SSTORE POP DUP2 PUSH1 0x15 PUSH1 0x2 PUSH2 0x100 EXP DUP2 SLOAD DUP2 PUSH1 0xFF MUL NOT AND SWAP1 DUP4 ISZERO ISZERO MUL OR SWAP1 SSTORE POP POP POP POP POP JUMP JUMPDEST PUSH1 0x0 PUSH1 0x7 PUSH1 0x0 SWAP1 SLOAD SWAP1 PUSH2 0x100 EXP SWAP1 DIV PUSH1 0xFF AND SWAP1 POP SWAP1 JUMP JUMPDEST PUSH1 0xD PUSH1 0x0 SWAP1 SLOAD SWAP1 PUSH2 0x100 EXP SWAP1 DIV PUSH20 0xFFFFFFFFFFFFFFFFFFFFFFFFFFFFFFFFFFFFFFFF AND DUP2 JUMP JUMPDEST PUSH1 0x0 DUP1 PUSH2 0x1D75 DUP4 PUSH2 0x3508 JUMP JUMPDEST SWAP1 POP PUSH1 0x0 PUSH20 0xFFFFFFFFFFFFFFFFFFFFFFFFFFFFFFFFFFFFFFFF AND DUP2 PUSH20 0xFFFFFFFFFFFFFFFFFFFFFFFFFFFFFFFFFFFFFFFF AND SUB PUSH2 0x1DE6 JUMPI PUSH1 0x40 MLOAD PUSH32 0x8C379A000000000000000000000000000000000000000000000000000000000 DUP2 MSTORE PUSH1 0x4 ADD PUSH2 0x1DDD SWAP1 PUSH2 0x5523 JUMP JUMPDEST PUSH1 0x40 MLOAD DUP1 SWAP2 SUB SWAP1 REVERT JUMPDEST DUP1 SWAP2 POP POP SWAP2 SWAP1 POP JUMP JUMPDEST PUSH1 0x0 DUP1 SHL PUSH2 0x1DFC DUP2 PUSH2 0x2E97 JUMP JUMPDEST PUSH1 0x0 JUMPDEST DUP3 MLOAD DUP2 LT ISZERO PUSH2 0x1E8D JUMPI PUSH1 0x1 PUSH1 0xE PUSH1 0x0 DUP6 DUP5 DUP2 MLOAD DUP2 LT PUSH2 0x1E21 JUMPI PUSH2 0x1E20 PUSH2 0x52D2 JUMP JUMPDEST JUMPDEST PUSH1 0x20 MUL PUSH1 0x20 ADD ADD MLOAD PUSH20 0xFFFFFFFFFFFFFFFFFFFFFFFFFFFFFFFFFFFFFFFF AND PUSH20 0xFFFFFFFFFFFFFFFFFFFFFFFFFFFFFFFFFFFFFFFF AND DUP2 MSTORE PUSH1 0x20 ADD SWAP1 DUP2 MSTORE PUSH1 0x20 ADD PUSH1 0x0 KECCAK256 PUSH1 0x0 PUSH2 0x100 EXP DUP2 SLOAD DUP2 PUSH1 0xFF MUL NOT AND SWAP1 DUP4 ISZERO ISZERO MUL OR SWAP1 SSTORE POP DUP1 DUP1 PUSH2 0x1E85 SWAP1 PUSH2 0x5008 JUMP JUMPDEST SWAP2 POP POP PUSH2 0x1DFF JUMP JUMPDEST POP POP POP JUMP JUMPDEST PUSH1 0x0 DUP1 PUSH20 0xFFFFFFFFFFFFFFFFFFFFFFFFFFFFFFFFFFFFFFFF AND DUP3 PUSH20 0xFFFFFFFFFFFFFFFFFFFFFFFFFFFFFFFFFFFFFFFF AND SUB PUSH2 0x1F02 JUMPI PUSH1 0x40 MLOAD PUSH32 0x8C379A000000000000000000000000000000000000000000000000000000000 DUP2 MSTORE PUSH1 0x4 ADD PUSH2 0x1EF9 SWAP1 PUSH2 0x55B5 JUMP JUMPDEST PUSH1 0x40 MLOAD DUP1 SWAP2 SUB SWAP1 REVERT JUMPDEST PUSH1 0x3 PUSH1 0x0 DUP4 PUSH20 0xFFFFFFFFFFFFFFFFFFFFFFFFFFFFFFFFFFFFFFFF AND PUSH20 0xFFFFFFFFFFFFFFFFFFFFFFFFFFFFFFFFFFFFFFFF AND DUP2 MSTORE PUSH1 0x20 ADD SWAP1 DUP2 MSTORE PUSH1 0x20 ADD PUSH1 0x0 KECCAK256 SLOAD SWAP1 POP SWAP2 SWAP1 POP JUMP JUMPDEST PUSH1 0x14 PUSH1 0x20 MSTORE DUP1 PUSH1 0x0 MSTORE PUSH1 0x40 PUSH1 0x0 KECCAK256 PUSH1 0x0 SWAP2 POP SWAP1 POP SLOAD DUP2 JUMP JUMPDEST PUSH1 0x0 DUP1 SHL PUSH2 0x1F6E DUP2 PUSH2 0x2E97 JUMP JUMPDEST DUP4 PUSH1 0x18 DUP2 SWAP1 SSTORE POP DUP3 PUSH1 0x19 DUP2 SWAP1 SSTORE POP DUP2 PUSH1 0x1A DUP2 SWAP1 SSTORE POP POP POP POP POP JUMP JUMPDEST PUSH1 0x1A SLOAD DUP2 JUMP JUMPDEST PUSH1 0x19 SLOAD DUP2 JUMP JUMPDEST PUSH1 0x0 PUSH1 0x8 PUSH1 0x0 DUP5 DUP2 MSTORE PUSH1 0x20 ADD SWAP1 DUP2 MSTORE PUSH1 0x20 ADD PUSH1 0x0 KECCAK256 PUSH1 0x0 ADD PUSH1 0x0 DUP4 PUSH20 0xFFFFFFFFFFFFFFFFFFFFFFFFFFFFFFFFFFFFFFFF AND PUSH20 0xFFFFFFFFFFFFFFFFFFFFFFFFFFFFFFFFFFFFFFFF AND DUP2 MSTORE PUSH1 0x20 ADD SWAP1 DUP2 MSTORE PUSH1 0x20 ADD PUSH1 0x0 KECCAK256 PUSH1 0x0 SWAP1 SLOAD SWAP1 PUSH2 0x100 EXP SWAP1 DIV PUSH1 0xFF AND SWAP1 POP SWAP3 SWAP2 POP POP JUMP JUMPDEST PUSH1 0x0 DUP1 SHL PUSH2 0x200D DUP2 PUSH2 0x2E97 JUMP JUMPDEST PUSH1 0x0 JUMPDEST DUP3 MLOAD DUP2 LT ISZERO PUSH2 0x209E JUMPI PUSH1 0x1 PUSH1 0xF PUSH1 0x0 DUP6 DUP5 DUP2 MLOAD DUP2 LT PUSH2 0x2032 JUMPI PUSH2 0x2031 PUSH2 0x52D2 JUMP JUMPDEST JUMPDEST PUSH1 0x20 MUL PUSH1 0x20 ADD ADD MLOAD PUSH20 0xFFFFFFFFFFFFFFFFFFFFFFFFFFFFFFFFFFFFFFFF AND PUSH20 0xFFFFFFFFFFFFFFFFFFFFFFFFFFFFFFFFFFFFFFFF AND DUP2 MSTORE PUSH1 0x20 ADD SWAP1 DUP2 MSTORE PUSH1 0x20 ADD PUSH1 0x0 KECCAK256 PUSH1 0x0 PUSH2 0x100 EXP DUP2 SLOAD DUP2 PUSH1 0xFF MUL NOT AND SWAP1 DUP4 ISZERO ISZERO MUL OR SWAP1 SSTORE POP DUP1 DUP1 PUSH2 0x2096 SWAP1 PUSH2 0x5008 JUMP JUMPDEST SWAP2 POP POP PUSH2 0x2010 JUMP JUMPDEST POP POP POP JUMP JUMPDEST PUSH1 0x60 PUSH1 0x1 DUP1 SLOAD PUSH2 0x20B2 SWAP1 PUSH2 0x50EB JUMP JUMPDEST DUP1 PUSH1 0x1F ADD PUSH1 0x20 DUP1 SWAP2 DIV MUL PUSH1 0x20 ADD PUSH1 0x40 MLOAD SWAP1 DUP2 ADD PUSH1 0x40 MSTORE DUP1 SWAP3 SWAP2 SWAP1 DUP2 DUP2 MSTORE PUSH1 0x20 ADD DUP3 DUP1 SLOAD PUSH2 0x20DE SWAP1 PUSH2 0x50EB JUMP JUMPDEST DUP1 ISZERO PUSH2 0x212B JUMPI DUP1 PUSH1 0x1F LT PUSH2 0x2100 JUMPI PUSH2 0x100 DUP1 DUP4 SLOAD DIV MUL DUP4 MSTORE SWAP2 PUSH1 0x20 ADD SWAP2 PUSH2 0x212B JUMP JUMPDEST DUP3 ADD SWAP2 SWAP1 PUSH1 0x0 MSTORE PUSH1 0x20 PUSH1 0x0 KECCAK256 SWAP1 JUMPDEST DUP2 SLOAD DUP2 MSTORE SWAP1 PUSH1 0x1 ADD SWAP1 PUSH1 0x20 ADD DUP1 DUP4 GT PUSH2 0x210E JUMPI DUP3 SWAP1 SUB PUSH1 0x1F AND DUP3 ADD SWAP2 JUMPDEST POP POP POP POP POP SWAP1 POP SWAP1 JUMP JUMPDEST PUSH1 0x18 SLOAD DUP2 JUMP JUMPDEST PUSH1 0x11 PUSH1 0x20 MSTORE DUP1 PUSH1 0x0 MSTORE PUSH1 0x40 PUSH1 0x0 KECCAK256 PUSH1 0x0 SWAP2 POP SWAP1 POP SLOAD DUP2 JUMP JUMPDEST PUSH1 0x0 DUP1 SHL DUP2 JUMP JUMPDEST PUSH2 0x216C PUSH2 0x2165 PUSH2 0x2EF6 JUMP JUMPDEST DUP4 DUP4 PUSH2 0x3545 JUMP JUMPDEST POP POP JUMP JUMPDEST PUSH1 0xE PUSH1 0x20 MSTORE DUP1 PUSH1 0x0 MSTORE PUSH1 0x40 PUSH1 0x0 KECCAK256 PUSH1 0x0 SWAP2 POP SLOAD SWAP1 PUSH2 0x100 EXP SWAP1 DIV PUSH1 0xFF AND DUP2 JUMP JUMPDEST PUSH1 0x0 DUP1 SHL PUSH2 0x219D DUP2 PUSH2 0x2E97 JUMP JUMPDEST DUP2 PUSH1 0xD PUSH1 0x0 PUSH2 0x100 EXP DUP2 SLOAD DUP2 PUSH20 0xFFFFFFFFFFFFFFFFFFFFFFFFFFFFFFFFFFFFFFFF MUL NOT AND SWAP1 DUP4 PUSH20 0xFFFFFFFFFFFFFFFFFFFFFFFFFFFFFFFFFFFFFFFF AND MUL OR SWAP1 SSTORE POP POP POP JUMP JUMPDEST PUSH1 0x12 PUSH1 0x20 MSTORE DUP1 PUSH1 0x0 MSTORE PUSH1 0x40 PUSH1 0x0 KECCAK256 PUSH1 0x0 SWAP2 POP SWAP1 POP SLOAD DUP2 JUMP JUMPDEST PUSH1 0x0 DUP1 SHL PUSH2 0x2207 DUP2 PUSH2 0x2E97 JUMP JUMPDEST DUP2 PUSH1 0x16 DUP2 SWAP1 SSTORE POP POP POP JUMP JUMPDEST DUP2 DUP2 PUSH1 0x15 PUSH1 0x1 SWAP1 SLOAD SWAP1 PUSH2 0x100 EXP SWAP1 DIV PUSH1 0xFF AND PUSH2 0x2263 JUMPI PUSH1 0x40 MLOAD PUSH32 0x8C379A000000000000000000000000000000000000000000000000000000000 DUP2 MSTORE PUSH1 0x4 ADD PUSH2 0x225A SWAP1 PUSH2 0x5621 JUMP JUMPDEST PUSH1 0x40 MLOAD DUP1 SWAP2 SUB SWAP1 REVERT JUMPDEST PUSH1 0x16 SLOAD DUP3 PUSH1 0x1B SLOAD PUSH2 0x2274 SWAP2 SWAP1 PUSH2 0x4D50 JUMP JUMPDEST GT ISZERO PUSH2 0x22B5 JUMPI PUSH1 0x40 MLOAD PUSH32 0x8C379A000000000000000000000000000000000000000000000000000000000 DUP2 MSTORE PUSH1 0x4 ADD PUSH2 0x22AC SWAP1 PUSH2 0x4DD0 JUMP JUMPDEST PUSH1 0x40 MLOAD DUP1 SWAP2 SUB SWAP1 REVERT JUMPDEST PUSH1 0xF PUSH1 0x0 DUP3 PUSH20 0xFFFFFFFFFFFFFFFFFFFFFFFFFFFFFFFFFFFFFFFF AND PUSH20 0xFFFFFFFFFFFFFFFFFFFFFFFFFFFFFFFFFFFFFFFF AND DUP2 MSTORE PUSH1 0x20 ADD SWAP1 DUP2 MSTORE PUSH1 0x20 ADD PUSH1 0x0 KECCAK256 PUSH1 0x0 SWAP1 SLOAD SWAP1 PUSH2 0x100 EXP SWAP1 DIV PUSH1 0xFF AND PUSH2 0x2341 JUMPI PUSH1 0x40 MLOAD PUSH32 0x8C379A000000000000000000000000000000000000000000000000000000000 DUP2 MSTORE PUSH1 0x4 ADD PUSH2 0x2338 SWAP1 PUSH2 0x56B3 JUMP JUMPDEST PUSH1 0x40 MLOAD DUP1 SWAP2 SUB SWAP1 REVERT JUMPDEST PUSH1 0x19 SLOAD PUSH1 0x12 PUSH1 0x0 DUP4 PUSH20 0xFFFFFFFFFFFFFFFFFFFFFFFFFFFFFFFFFFFFFFFF AND PUSH20 0xFFFFFFFFFFFFFFFFFFFFFFFFFFFFFFFFFFFFFFFF AND DUP2 MSTORE PUSH1 0x20 ADD SWAP1 DUP2 MSTORE PUSH1 0x20 ADD PUSH1 0x0 KECCAK256 SLOAD GT ISZERO PUSH2 0x23C5 JUMPI PUSH1 0x40 MLOAD PUSH32 0x8C379A000000000000000000000000000000000000000000000000000000000 DUP2 MSTORE PUSH1 0x4 ADD PUSH2 0x23BC SWAP1 PUSH2 0x4ECE JUMP JUMPDEST PUSH1 0x40 MLOAD DUP1 SWAP2 SUB SWAP1 REVERT JUMPDEST PUSH1 0x19 SLOAD DUP3 PUSH1 0x12 PUSH1 0x0 DUP5 PUSH20 0xFFFFFFFFFFFFFFFFFFFFFFFFFFFFFFFFFFFFFFFF AND PUSH20 0xFFFFFFFFFFFFFFFFFFFFFFFFFFFFFFFFFFFFFFFF AND DUP2 MSTORE PUSH1 0x20 ADD SWAP1 DUP2 MSTORE PUSH1 0x20 ADD PUSH1 0x0 KECCAK256 SLOAD PUSH2 0x2413 SWAP2 SWAP1 PUSH2 0x4D50 JUMP JUMPDEST GT ISZERO PUSH2 0x2454 JUMPI PUSH1 0x40 MLOAD PUSH32 0x8C379A000000000000000000000000000000000000000000000000000000000 DUP2 MSTORE PUSH1 0x4 ADD PUSH2 0x244B SWAP1 PUSH2 0x4F3A JUMP JUMPDEST PUSH1 0x40 MLOAD DUP1 SWAP2 SUB SWAP1 REVERT JUMPDEST CALLVALUE PUSH1 0xA SLOAD DUP4 PUSH2 0x2463 SWAP2 SWAP1 PUSH2 0x4F5A JUMP JUMPDEST GT ISZERO PUSH2 0x24A4 JUMPI PUSH1 0x40 MLOAD PUSH32 0x8C379A000000000000000000000000000000000000000000000000000000000 DUP2 MSTORE PUSH1 0x4 ADD PUSH2 0x249B SWAP1 PUSH2 0x4FE8 JUMP JUMPDEST PUSH1 0x40 MLOAD DUP1 SWAP2 SUB SWAP1 REVERT JUMPDEST PUSH1 0x0 JUMPDEST DUP5 DUP2 LT ISZERO PUSH2 0x256A JUMPI PUSH1 0x0 PUSH1 0x14 PUSH1 0x0 PUSH1 0x1B SLOAD DUP2 MSTORE PUSH1 0x20 ADD SWAP1 DUP2 MSTORE PUSH1 0x20 ADD PUSH1 0x0 KECCAK256 SLOAD SWAP1 POP PUSH1 0x1 PUSH1 0x1B PUSH1 0x0 DUP3 DUP3 SLOAD PUSH2 0x24DC SWAP2 SWAP1 PUSH2 0x4D50 JUMP JUMPDEST SWAP3 POP POP DUP2 SWAP1 SSTORE POP PUSH1 0x1 PUSH1 0x12 PUSH1 0x0 DUP8 PUSH20 0xFFFFFFFFFFFFFFFFFFFFFFFFFFFFFFFFFFFFFFFF AND PUSH20 0xFFFFFFFFFFFFFFFFFFFFFFFFFFFFFFFFFFFFFFFF AND DUP2 MSTORE PUSH1 0x20 ADD SWAP1 DUP2 MSTORE PUSH1 0x20 ADD PUSH1 0x0 KECCAK256 PUSH1 0x0 DUP3 DUP3 SLOAD PUSH2 0x2533 SWAP2 SWAP1 PUSH2 0x4D50 JUMP JUMPDEST SWAP3 POP POP DUP2 SWAP1 SSTORE POP PUSH2 0x2544 DUP6 DUP3 PUSH2 0x2B28 JUMP JUMPDEST PUSH2 0x2556 DUP2 PUSH2 0x2551 DUP4 PUSH2 0x2D45 JUMP JUMPDEST PUSH2 0x2D79 JUMP JUMPDEST POP DUP1 DUP1 PUSH2 0x2562 SWAP1 PUSH2 0x5008 JUMP JUMPDEST SWAP2 POP POP PUSH2 0x24A7 JUMP JUMPDEST POP POP POP POP POP JUMP JUMPDEST PUSH2 0x2582 PUSH2 0x257C PUSH2 0x2EF6 JUMP JUMPDEST DUP4 PUSH2 0x2FB7 JUMP JUMPDEST PUSH2 0x25C1 JUMPI PUSH1 0x40 MLOAD PUSH32 0x8C379A000000000000000000000000000000000000000000000000000000000 DUP2 MSTORE PUSH1 0x4 ADD PUSH2 0x25B8 SWAP1 PUSH2 0x52B2 JUMP JUMPDEST PUSH1 0x40 MLOAD DUP1 SWAP2 SUB SWAP1 REVERT JUMPDEST PUSH2 0x25CD DUP5 DUP5 DUP5 DUP5 PUSH2 0x36B1 JUMP JUMPDEST POP POP POP POP JUMP JUMPDEST PUSH1 0x10 PUSH1 0x20 MSTORE DUP1 PUSH1 0x0 MSTORE PUSH1 0x40 PUSH1 0x0 KECCAK256 PUSH1 0x0 SWAP2 POP SLOAD SWAP1 PUSH2 0x100 EXP SWAP1 DIV PUSH1 0xFF AND DUP2 JUMP JUMPDEST PUSH32 0x9F2DF0FED2C77648DE5860A4CC508CD0818C85B8B8A1AB4CEEEF8D981C8956A6 PUSH2 0x261D DUP2 PUSH2 0x2E97 JUMP JUMPDEST PUSH1 0x0 JUMPDEST DUP3 MLOAD DUP2 LT ISZERO PUSH2 0x2758 JUMPI PUSH1 0x0 JUMPDEST DUP4 DUP3 DUP2 MLOAD DUP2 LT PUSH2 0x263F JUMPI PUSH2 0x263E PUSH2 0x52D2 JUMP JUMPDEST JUMPDEST PUSH1 0x20 MUL PUSH1 0x20 ADD ADD MLOAD PUSH1 0x20 ADD MLOAD DUP2 LT ISZERO PUSH2 0x2744 JUMPI PUSH1 0x16 SLOAD DUP5 DUP4 DUP2 MLOAD DUP2 LT PUSH2 0x2668 JUMPI PUSH2 0x2667 PUSH2 0x52D2 JUMP JUMPDEST JUMPDEST PUSH1 0x20 MUL PUSH1 0x20 ADD ADD MLOAD PUSH1 0x20 ADD MLOAD PUSH1 0x1B SLOAD PUSH2 0x2681 SWAP2 SWAP1 PUSH2 0x4D50 JUMP JUMPDEST GT ISZERO PUSH2 0x26C2 JUMPI PUSH1 0x40 MLOAD PUSH32 0x8C379A000000000000000000000000000000000000000000000000000000000 DUP2 MSTORE PUSH1 0x4 ADD PUSH2 0x26B9 SWAP1 PUSH2 0x4DD0 JUMP JUMPDEST PUSH1 0x40 MLOAD DUP1 SWAP2 SUB SWAP1 REVERT JUMPDEST PUSH1 0x0 PUSH1 0x14 PUSH1 0x0 PUSH1 0x1B SLOAD DUP2 MSTORE PUSH1 0x20 ADD SWAP1 DUP2 MSTORE PUSH1 0x20 ADD PUSH1 0x0 KECCAK256 SLOAD SWAP1 POP PUSH1 0x1 PUSH1 0x1B PUSH1 0x0 DUP3 DUP3 SLOAD PUSH2 0x26EF SWAP2 SWAP1 PUSH2 0x4D50 JUMP JUMPDEST SWAP3 POP POP DUP2 SWAP1 SSTORE POP PUSH2 0x271E DUP6 DUP5 DUP2 MLOAD DUP2 LT PUSH2 0x270C JUMPI PUSH2 0x270B PUSH2 0x52D2 JUMP JUMPDEST JUMPDEST PUSH1 0x20 MUL PUSH1 0x20 ADD ADD MLOAD PUSH1 0x0 ADD MLOAD DUP3 PUSH2 0x2B28 JUMP JUMPDEST PUSH2 0x2730 DUP2 PUSH2 0x272B DUP4 PUSH2 0x2D45 JUMP JUMPDEST PUSH2 0x2D79 JUMP JUMPDEST POP DUP1 DUP1 PUSH2 0x273C SWAP1 PUSH2 0x5008 JUMP JUMPDEST SWAP2 POP POP PUSH2 0x262C JUMP JUMPDEST POP DUP1 DUP1 PUSH2 0x2750 SWAP1 PUSH2 0x5008 JUMP JUMPDEST SWAP2 POP POP PUSH2 0x2620 JUMP JUMPDEST POP POP POP JUMP JUMPDEST PUSH1 0xB SLOAD DUP2 JUMP JUMPDEST PUSH1 0x0 DUP1 SHL PUSH2 0x2770 DUP2 PUSH2 0x2E97 JUMP JUMPDEST DUP2 PUSH1 0x1C SWAP1 DUP2 PUSH2 0x277F SWAP2 SWAP1 PUSH2 0x587F JUMP JUMPDEST POP POP POP JUMP JUMPDEST PUSH1 0x60 PUSH2 0x278F DUP3 PUSH2 0x2D45 JUMP JUMPDEST SWAP1 POP SWAP2 SWAP1 POP JUMP JUMPDEST PUSH1 0x1D PUSH1 0x20 MSTORE DUP1 PUSH1 0x0 MSTORE PUSH1 0x40 PUSH1 0x0 KECCAK256 PUSH1 0x0 SWAP2 POP SLOAD SWAP1 PUSH2 0x100 EXP SWAP1 DIV PUSH1 0xFF AND DUP2 JUMP JUMPDEST PUSH32 0x9F2DF0FED2C77648DE5860A4CC508CD0818C85B8B8A1AB4CEEEF8D981C8956A6 DUP2 JUMP JUMPDEST PUSH2 0x27E3 DUP3 PUSH2 0x15C7 JUMP JUMPDEST PUSH2 0x27EC DUP2 PUSH2 0x2E97 JUMP JUMPDEST PUSH2 0x27F6 DUP4 DUP4 PUSH2 0x3426 JUMP JUMPDEST POP POP POP JUMP JUMPDEST PUSH1 0xA SLOAD DUP2 JUMP JUMPDEST PUSH1 0x0 DUP1 SHL PUSH2 0x280E DUP2 PUSH2 0x2E97 JUMP JUMPDEST PUSH1 0x0 JUMPDEST DUP3 MLOAD DUP2 LT ISZERO PUSH2 0x295E JUMPI PUSH1 0x1 ISZERO ISZERO PUSH1 0x10 PUSH1 0x0 DUP6 DUP5 DUP2 MLOAD DUP2 LT PUSH2 0x2835 JUMPI PUSH2 0x2834 PUSH2 0x52D2 JUMP JUMPDEST JUMPDEST PUSH1 0x20 MUL PUSH1 0x20 ADD ADD MLOAD DUP2 MSTORE PUSH1 0x20 ADD SWAP1 DUP2 MSTORE PUSH1 0x20 ADD PUSH1 0x0 KECCAK256 PUSH1 0x0 SWAP1 SLOAD SWAP1 PUSH2 0x100 EXP SWAP1 DIV PUSH1 0xFF AND ISZERO ISZERO SUB PUSH2 0x28B7 JUMPI DUP3 DUP2 DUP2 MLOAD DUP2 LT PUSH2 0x2873 JUMPI PUSH2 0x2872 PUSH2 0x52D2 JUMP JUMPDEST JUMPDEST PUSH1 0x20 MUL PUSH1 0x20 ADD ADD MLOAD PUSH1 0x40 MLOAD PUSH32 0xCC0C523600000000000000000000000000000000000000000000000000000000 DUP2 MSTORE PUSH1 0x4 ADD PUSH2 0x28AE SWAP2 SWAP1 PUSH2 0x42BF JUMP JUMPDEST PUSH1 0x40 MLOAD DUP1 SWAP2 SUB SWAP1 REVERT JUMPDEST DUP3 DUP2 DUP2 MLOAD DUP2 LT PUSH2 0x28CA JUMPI PUSH2 0x28C9 PUSH2 0x52D2 JUMP JUMPDEST JUMPDEST PUSH1 0x20 MUL PUSH1 0x20 ADD ADD MLOAD PUSH1 0x14 PUSH1 0x0 PUSH1 0x17 SLOAD DUP2 MSTORE PUSH1 0x20 ADD SWAP1 DUP2 MSTORE PUSH1 0x20 ADD PUSH1 0x0 KECCAK256 DUP2 SWAP1 SSTORE POP PUSH1 0x1 PUSH1 0x10 PUSH1 0x0 DUP6 DUP5 DUP2 MLOAD DUP2 LT PUSH2 0x2904 JUMPI PUSH2 0x2903 PUSH2 0x52D2 JUMP JUMPDEST JUMPDEST PUSH1 0x20 MUL PUSH1 0x20 ADD ADD MLOAD DUP2 MSTORE PUSH1 0x20 ADD SWAP1 DUP2 MSTORE PUSH1 0x20 ADD PUSH1 0x0 KECCAK256 PUSH1 0x0 PUSH2 0x100 EXP DUP2 SLOAD DUP2 PUSH1 0xFF MUL NOT AND SWAP1 DUP4 ISZERO ISZERO MUL OR SWAP1 SSTORE POP PUSH1 0x1 PUSH1 0x17 PUSH1 0x0 DUP3 DUP3 SLOAD PUSH2 0x2944 SWAP2 SWAP1 PUSH2 0x4D50 JUMP JUMPDEST SWAP3 POP POP DUP2 SWAP1 SSTORE POP DUP1 DUP1 PUSH2 0x2956 SWAP1 PUSH2 0x5008 JUMP JUMPDEST SWAP2 POP POP PUSH2 0x2811 JUMP JUMPDEST POP POP POP JUMP JUMPDEST PUSH32 0x65D7A28E3265B37A6474929F336521B332C1681B933F6CB9F3376673440D862A DUP2 JUMP JUMPDEST PUSH1 0x0 PUSH1 0x5 PUSH1 0x0 DUP5 PUSH20 0xFFFFFFFFFFFFFFFFFFFFFFFFFFFFFFFFFFFFFFFF AND PUSH20 0xFFFFFFFFFFFFFFFFFFFFFFFFFFFFFFFFFFFFFFFF AND DUP2 MSTORE PUSH1 0x20 ADD SWAP1 DUP2 MSTORE PUSH1 0x20 ADD PUSH1 0x0 KECCAK256 PUSH1 0x0 DUP4 PUSH20 0xFFFFFFFFFFFFFFFFFFFFFFFFFFFFFFFFFFFFFFFF AND PUSH20 0xFFFFFFFFFFFFFFFFFFFFFFFFFFFFFFFFFFFFFFFF AND DUP2 MSTORE PUSH1 0x20 ADD SWAP1 DUP2 MSTORE PUSH1 0x20 ADD PUSH1 0x0 KECCAK256 PUSH1 0x0 SWAP1 SLOAD SWAP1 PUSH2 0x100 EXP SWAP1 DIV PUSH1 0xFF AND SWAP1 POP SWAP3 SWAP2 POP POP JUMP JUMPDEST PUSH1 0x13 PUSH1 0x20 MSTORE DUP1 PUSH1 0x0 MSTORE PUSH1 0x40 PUSH1 0x0 KECCAK256 PUSH1 0x0 SWAP2 POP SWAP1 POP SLOAD DUP2 JUMP JUMPDEST PUSH1 0x0 DUP1 SHL PUSH2 0x2A40 DUP2 PUSH2 0x2E97 JUMP JUMPDEST PUSH1 0x16 SLOAD DUP3 PUSH1 0x1B SLOAD PUSH2 0x2A51 SWAP2 SWAP1 PUSH2 0x4D50 JUMP JUMPDEST GT ISZERO PUSH2 0x2A92 JUMPI PUSH1 0x40 MLOAD PUSH32 0x8C379A000000000000000000000000000000000000000000000000000000000 DUP2 MSTORE PUSH1 0x4 ADD PUSH2 0x2A89 SWAP1 PUSH2 0x4DD0 JUMP JUMPDEST PUSH1 0x40 MLOAD DUP1 SWAP2 SUB SWAP1 REVERT JUMPDEST PUSH1 0x0 JUMPDEST DUP3 DUP2 LT ISZERO PUSH2 0x2B23 JUMPI PUSH1 0x0 PUSH1 0x14 PUSH1 0x0 PUSH1 0x1B SLOAD DUP2 MSTORE PUSH1 0x20 ADD SWAP1 DUP2 MSTORE PUSH1 0x20 ADD PUSH1 0x0 KECCAK256 SLOAD SWAP1 POP PUSH1 0x1 PUSH1 0x1B PUSH1 0x0 DUP3 DUP3 SLOAD PUSH2 0x2ACA SWAP2 SWAP1 PUSH2 0x4D50 JUMP JUMPDEST SWAP3 POP POP DUP2 SWAP1 SSTORE POP PUSH2 0x2AFD PUSH1 0xD PUSH1 0x0 SWAP1 SLOAD SWAP1 PUSH2 0x100 EXP SWAP1 DIV PUSH20 0xFFFFFFFFFFFFFFFFFFFFFFFFFFFFFFFFFFFFFFFF AND DUP3 PUSH2 0x2B28 JUMP JUMPDEST PUSH2 0x2B0F DUP2 PUSH2 0x2B0A DUP4 PUSH2 0x2D45 JUMP JUMPDEST PUSH2 0x2D79 JUMP JUMPDEST POP DUP1 DUP1 PUSH2 0x2B1B SWAP1 PUSH2 0x5008 JUMP JUMPDEST SWAP2 POP POP PUSH2 0x2A95 JUMP JUMPDEST POP POP POP JUMP JUMPDEST PUSH1 0x0 PUSH20 0xFFFFFFFFFFFFFFFFFFFFFFFFFFFFFFFFFFFFFFFF AND DUP3 PUSH20 0xFFFFFFFFFFFFFFFFFFFFFFFFFFFFFFFFFFFFFFFF AND SUB PUSH2 0x2B97 JUMPI PUSH1 0x40 MLOAD PUSH32 0x8C379A000000000000000000000000000000000000000000000000000000000 DUP2 MSTORE PUSH1 0x4 ADD PUSH2 0x2B8E SWAP1 PUSH2 0x599D JUMP JUMPDEST PUSH1 0x40 MLOAD DUP1 SWAP2 SUB SWAP1 REVERT JUMPDEST PUSH2 0x2BA0 DUP2 PUSH2 0x370D JUMP JUMPDEST ISZERO PUSH2 0x2BE0 JUMPI PUSH1 0x40 MLOAD PUSH32 0x8C379A000000000000000000000000000000000000000000000000000000000 DUP2 MSTORE PUSH1 0x4 ADD PUSH2 0x2BD7 SWAP1 PUSH2 0x5A09 JUMP JUMPDEST PUSH1 0x40 MLOAD DUP1 SWAP2 SUB SWAP1 REVERT JUMPDEST PUSH2 0x2BEE PUSH1 0x0 DUP4 DUP4 PUSH1 0x1 PUSH2 0x374E JUMP JUMPDEST PUSH2 0x2BF7 DUP2 PUSH2 0x370D JUMP JUMPDEST ISZERO PUSH2 0x2C37 JUMPI PUSH1 0x40 MLOAD PUSH32 0x8C379A000000000000000000000000000000000000000000000000000000000 DUP2 MSTORE PUSH1 0x4 ADD PUSH2 0x2C2E SWAP1 PUSH2 0x5A09 JUMP JUMPDEST PUSH1 0x40 MLOAD DUP1 SWAP2 SUB SWAP1 REVERT JUMPDEST PUSH1 0x1 PUSH1 0x3 PUSH1 0x0 DUP5 PUSH20 0xFFFFFFFFFFFFFFFFFFFFFFFFFFFFFFFFFFFFFFFF AND PUSH20 0xFFFFFFFFFFFFFFFFFFFFFFFFFFFFFFFFFFFFFFFF AND DUP2 MSTORE PUSH1 0x20 ADD SWAP1 DUP2 MSTORE PUSH1 0x20 ADD PUSH1 0x0 KECCAK256 PUSH1 0x0 DUP3 DUP3 SLOAD ADD SWAP3 POP POP DUP2 SWAP1 SSTORE POP DUP2 PUSH1 0x2 PUSH1 0x0 DUP4 DUP2 MSTORE PUSH1 0x20 ADD SWAP1 DUP2 MSTORE PUSH1 0x20 ADD PUSH1 0x0 KECCAK256 PUSH1 0x0 PUSH2 0x100 EXP DUP2 SLOAD DUP2 PUSH20 0xFFFFFFFFFFFFFFFFFFFFFFFFFFFFFFFFFFFFFFFF MUL NOT AND SWAP1 DUP4 PUSH20 0xFFFFFFFFFFFFFFFFFFFFFFFFFFFFFFFFFFFFFFFF AND MUL OR SWAP1 SSTORE POP DUP1 DUP3 PUSH20 0xFFFFFFFFFFFFFFFFFFFFFFFFFFFFFFFFFFFFFFFF AND PUSH1 0x0 PUSH20 0xFFFFFFFFFFFFFFFFFFFFFFFFFFFFFFFFFFFFFFFF AND PUSH32 0xDDF252AD1BE2C89B69C2B068FC378DAA952BA7F163C4A11628F55A4DF523B3EF PUSH1 0x40 MLOAD PUSH1 0x40 MLOAD DUP1 SWAP2 SUB SWAP1 LOG4 PUSH2 0x2D41 PUSH1 0x0 DUP4 DUP4 PUSH1 0x1 PUSH2 0x3874 JUMP JUMPDEST POP POP JUMP JUMPDEST PUSH1 0x60 PUSH1 0x1C PUSH2 0x2D52 DUP4 PUSH2 0x387A JUMP JUMPDEST PUSH1 0x40 MLOAD PUSH1 0x20 ADD PUSH2 0x2D63 SWAP3 SWAP2 SWAP1 PUSH2 0x5B34 JUMP JUMPDEST PUSH1 0x40 MLOAD PUSH1 0x20 DUP2 DUP4 SUB SUB DUP2 MSTORE SWAP1 PUSH1 0x40 MSTORE SWAP1 POP SWAP2 SWAP1 POP JUMP JUMPDEST PUSH2 0x2D82 DUP3 PUSH2 0x370D JUMP JUMPDEST PUSH2 0x2DC1 JUMPI PUSH1 0x40 MLOAD PUSH32 0x8C379A000000000000000000000000000000000000000000000000000000000 DUP2 MSTORE PUSH1 0x4 ADD PUSH2 0x2DB8 SWAP1 PUSH2 0x5BD5 JUMP JUMPDEST PUSH1 0x40 MLOAD DUP1 SWAP2 SUB SWAP1 REVERT JUMPDEST DUP1 PUSH1 0x6 PUSH1 0x0 DUP5 DUP2 MSTORE PUSH1 0x20 ADD SWAP1 DUP2 MSTORE PUSH1 0x20 ADD PUSH1 0x0 KECCAK256 SWAP1 DUP2 PUSH2 0x2DE1 SWAP2 SWAP1 PUSH2 0x587F JUMP JUMPDEST POP PUSH32 0xF8E1A15ABA9398E019F0B49DF1A4FDE98EE17AE345CB5F6B5E2C27F5033E8CE7 DUP3 PUSH1 0x40 MLOAD PUSH2 0x2E11 SWAP2 SWAP1 PUSH2 0x42BF JUMP JUMPDEST PUSH1 0x40 MLOAD DUP1 SWAP2 SUB SWAP1 LOG1 POP POP JUMP JUMPDEST PUSH1 0x0 PUSH32 0x7965DB0B00000000000000000000000000000000000000000000000000000000 PUSH28 0xFFFFFFFFFFFFFFFFFFFFFFFFFFFFFFFFFFFFFFFFFFFFFFFFFFFFFFFF NOT AND DUP3 PUSH28 0xFFFFFFFFFFFFFFFFFFFFFFFFFFFFFFFFFFFFFFFFFFFFFFFFFFFFFFFF NOT AND EQ DUP1 PUSH2 0x2E90 JUMPI POP PUSH2 0x2E8F DUP3 PUSH2 0x3948 JUMP JUMPDEST JUMPDEST SWAP1 POP SWAP2 SWAP1 POP JUMP JUMPDEST PUSH2 0x2EA8 DUP2 PUSH2 0x2EA3 PUSH2 0x2EF6 JUMP JUMPDEST PUSH2 0x39A9 JUMP JUMPDEST POP JUMP JUMPDEST PUSH2 0x2EB4 DUP2 PUSH2 0x370D JUMP JUMPDEST PUSH2 0x2EF3 JUMPI PUSH1 0x40 MLOAD PUSH32 0x8C379A000000000000000000000000000000000000000000000000000000000 DUP2 MSTORE PUSH1 0x4 ADD PUSH2 0x2EEA SWAP1 PUSH2 0x5523 JUMP JUMPDEST PUSH1 0x40 MLOAD DUP1 SWAP2 SUB SWAP1 REVERT JUMPDEST POP JUMP JUMPDEST PUSH1 0x0 CALLER SWAP1 POP SWAP1 JUMP JUMPDEST DUP2 PUSH1 0x4 PUSH1 0x0 DUP4 DUP2 MSTORE PUSH1 0x20 ADD SWAP1 DUP2 MSTORE PUSH1 0x20 ADD PUSH1 0x0 KECCAK256 PUSH1 0x0 PUSH2 0x100 EXP DUP2 SLOAD DUP2 PUSH20 0xFFFFFFFFFFFFFFFFFFFFFFFFFFFFFFFFFFFFFFFF MUL NOT AND SWAP1 DUP4 PUSH20 0xFFFFFFFFFFFFFFFFFFFFFFFFFFFFFFFFFFFFFFFF AND MUL OR SWAP1 SSTORE POP DUP1 DUP3 PUSH20 0xFFFFFFFFFFFFFFFFFFFFFFFFFFFFFFFFFFFFFFFF AND PUSH2 0x2F71 DUP4 PUSH2 0x1D69 JUMP JUMPDEST PUSH20 0xFFFFFFFFFFFFFFFFFFFFFFFFFFFFFFFFFFFFFFFF AND PUSH32 0x8C5BE1E5EBEC7D5BD14F71427D1E84F3DD0314C0F7B2291E5B200AC8C7C3B925 PUSH1 0x40 MLOAD PUSH1 0x40 MLOAD DUP1 SWAP2 SUB SWAP1 LOG4 POP POP JUMP JUMPDEST PUSH1 0x0 DUP1 PUSH2 0x2FC3 DUP4 PUSH2 0x1D69 JUMP JUMPDEST SWAP1 POP DUP1 PUSH20 0xFFFFFFFFFFFFFFFFFFFFFFFFFFFFFFFFFFFFFFFF AND DUP5 PUSH20 0xFFFFFFFFFFFFFFFFFFFFFFFFFFFFFFFFFFFFFFFF AND EQ DUP1 PUSH2 0x3005 JUMPI POP PUSH2 0x3004 DUP2 DUP6 PUSH2 0x2987 JUMP JUMPDEST JUMPDEST DUP1 PUSH2 0x3043 JUMPI POP DUP4 PUSH20 0xFFFFFFFFFFFFFFFFFFFFFFFFFFFFFFFFFFFFFFFF AND PUSH2 0x302B DUP5 PUSH2 0x13F8 JUMP JUMPDEST PUSH20 0xFFFFFFFFFFFFFFFFFFFFFFFFFFFFFFFFFFFFFFFF AND EQ JUMPDEST SWAP2 POP POP SWAP3 SWAP2 POP POP JUMP JUMPDEST DUP3 PUSH20 0xFFFFFFFFFFFFFFFFFFFFFFFFFFFFFFFFFFFFFFFF AND PUSH2 0x306C DUP3 PUSH2 0x1D69 JUMP JUMPDEST PUSH20 0xFFFFFFFFFFFFFFFFFFFFFFFFFFFFFFFFFFFFFFFF AND EQ PUSH2 0x30C2 JUMPI PUSH1 0x40 MLOAD PUSH32 0x8C379A000000000000000000000000000000000000000000000000000000000 DUP2 MSTORE PUSH1 0x4 ADD PUSH2 0x30B9 SWAP1 PUSH2 0x5C67 JUMP JUMPDEST PUSH1 0x40 MLOAD DUP1 SWAP2 SUB SWAP1 REVERT JUMPDEST PUSH1 0x0 PUSH20 0xFFFFFFFFFFFFFFFFFFFFFFFFFFFFFFFFFFFFFFFF AND DUP3 PUSH20 0xFFFFFFFFFFFFFFFFFFFFFFFFFFFFFFFFFFFFFFFF AND SUB PUSH2 0x3131 JUMPI PUSH1 0x40 MLOAD PUSH32 0x8C379A000000000000000000000000000000000000000000000000000000000 DUP2 MSTORE PUSH1 0x4 ADD PUSH2 0x3128 SWAP1 PUSH2 0x5CF9 JUMP JUMPDEST PUSH1 0x40 MLOAD DUP1 SWAP2 SUB SWAP1 REVERT JUMPDEST PUSH2 0x313E DUP4 DUP4 DUP4 PUSH1 0x1 PUSH2 0x374E JUMP JUMPDEST DUP3 PUSH20 0xFFFFFFFFFFFFFFFFFFFFFFFFFFFFFFFFFFFFFFFF AND PUSH2 0x315E DUP3 PUSH2 0x1D69 JUMP JUMPDEST PUSH20 0xFFFFFFFFFFFFFFFFFFFFFFFFFFFFFFFFFFFFFFFF AND EQ PUSH2 0x31B4 JUMPI PUSH1 0x40 MLOAD PUSH32 0x8C379A000000000000000000000000000000000000000000000000000000000 DUP2 MSTORE PUSH1 0x4 ADD PUSH2 0x31AB SWAP1 PUSH2 0x5C67 JUMP JUMPDEST PUSH1 0x40 MLOAD DUP1 SWAP2 SUB SWAP1 REVERT JUMPDEST PUSH1 0x4 PUSH1 0x0 DUP3 DUP2 MSTORE PUSH1 0x20 ADD SWAP1 DUP2 MSTORE PUSH1 0x20 ADD PUSH1 0x0 KECCAK256 PUSH1 0x0 PUSH2 0x100 EXP DUP2 SLOAD SWAP1 PUSH20 0xFFFFFFFFFFFFFFFFFFFFFFFFFFFFFFFFFFFFFFFF MUL NOT AND SWAP1 SSTORE PUSH1 0x1 PUSH1 0x3 PUSH1 0x0 DUP6 PUSH20 0xFFFFFFFFFFFFFFFFFFFFFFFFFFFFFFFFFFFFFFFF AND PUSH20 0xFFFFFFFFFFFFFFFFFFFFFFFFFFFFFFFFFFFFFFFF AND DUP2 MSTORE PUSH1 0x20 ADD SWAP1 DUP2 MSTORE PUSH1 0x20 ADD PUSH1 0x0 KECCAK256 PUSH1 0x0 DUP3 DUP3 SLOAD SUB SWAP3 POP POP DUP2 SWAP1 SSTORE POP PUSH1 0x1 PUSH1 0x3 PUSH1 0x0 DUP5 PUSH20 0xFFFFFFFFFFFFFFFFFFFFFFFFFFFFFFFFFFFFFFFF AND PUSH20 0xFFFFFFFFFFFFFFFFFFFFFFFFFFFFFFFFFFFFFFFF AND DUP2 MSTORE PUSH1 0x20 ADD SWAP1 DUP2 MSTORE PUSH1 0x20 ADD PUSH1 0x0 KECCAK256 PUSH1 0x0 DUP3 DUP3 SLOAD ADD SWAP3 POP POP DUP2 SWAP1 SSTORE POP DUP2 PUSH1 0x2 PUSH1 0x0 DUP4 DUP2 MSTORE PUSH1 0x20 ADD SWAP1 DUP2 MSTORE PUSH1 0x20 ADD PUSH1 0x0 KECCAK256 PUSH1 0x0 PUSH2 0x100 EXP DUP2 SLOAD DUP2 PUSH20 0xFFFFFFFFFFFFFFFFFFFFFFFFFFFFFFFFFFFFFFFF MUL NOT AND SWAP1 DUP4 PUSH20 0xFFFFFFFFFFFFFFFFFFFFFFFFFFFFFFFFFFFFFFFF AND MUL OR SWAP1 SSTORE POP DUP1 DUP3 PUSH20 0xFFFFFFFFFFFFFFFFFFFFFFFFFFFFFFFFFFFFFFFF AND DUP5 PUSH20 0xFFFFFFFFFFFFFFFFFFFFFFFFFFFFFFFFFFFFFFFF AND PUSH32 0xDDF252AD1BE2C89B69C2B068FC378DAA952BA7F163C4A11628F55A4DF523B3EF PUSH1 0x40 MLOAD PUSH1 0x40 MLOAD DUP1 SWAP2 SUB SWAP1 LOG4 PUSH2 0x3340 DUP4 DUP4 DUP4 PUSH1 0x1 PUSH2 0x3874 JUMP JUMPDEST POP POP POP JUMP JUMPDEST PUSH2 0x334F DUP3 DUP3 PUSH2 0x1F95 JUMP JUMPDEST PUSH2 0x3422 JUMPI PUSH1 0x1 PUSH1 0x8 PUSH1 0x0 DUP5 DUP2 MSTORE PUSH1 0x20 ADD SWAP1 DUP2 MSTORE PUSH1 0x20 ADD PUSH1 0x0 KECCAK256 PUSH1 0x0 ADD PUSH1 0x0 DUP4 PUSH20 0xFFFFFFFFFFFFFFFFFFFFFFFFFFFFFFFFFFFFFFFF AND PUSH20 0xFFFFFFFFFFFFFFFFFFFFFFFFFFFFFFFFFFFFFFFF AND DUP2 MSTORE PUSH1 0x20 ADD SWAP1 DUP2 MSTORE PUSH1 0x20 ADD PUSH1 0x0 KECCAK256 PUSH1 0x0 PUSH2 0x100 EXP DUP2 SLOAD DUP2 PUSH1 0xFF MUL NOT AND SWAP1 DUP4 ISZERO ISZERO MUL OR SWAP1 SSTORE POP PUSH2 0x33C7 PUSH2 0x2EF6 JUMP JUMPDEST PUSH20 0xFFFFFFFFFFFFFFFFFFFFFFFFFFFFFFFFFFFFFFFF AND DUP2 PUSH20 0xFFFFFFFFFFFFFFFFFFFFFFFFFFFFFFFFFFFFFFFF AND DUP4 PUSH32 0x2F8788117E7EFF1D82E926EC794901D17C78024A50270940304540A733656F0D PUSH1 0x40 MLOAD PUSH1 0x40 MLOAD DUP1 SWAP2 SUB SWAP1 LOG4 JUMPDEST POP POP JUMP JUMPDEST PUSH2 0x3430 DUP3 DUP3 PUSH2 0x1F95 JUMP JUMPDEST ISZERO PUSH2 0x3504 JUMPI PUSH1 0x0 PUSH1 0x8 PUSH1 0x0 DUP5 DUP2 MSTORE PUSH1 0x20 ADD SWAP1 DUP2 MSTORE PUSH1 0x20 ADD PUSH1 0x0 KECCAK256 PUSH1 0x0 ADD PUSH1 0x0 DUP4 PUSH20 0xFFFFFFFFFFFFFFFFFFFFFFFFFFFFFFFFFFFFFFFF AND PUSH20 0xFFFFFFFFFFFFFFFFFFFFFFFFFFFFFFFFFFFFFFFF AND DUP2 MSTORE PUSH1 0x20 ADD SWAP1 DUP2 MSTORE PUSH1 0x20 ADD PUSH1 0x0 KECCAK256 PUSH1 0x0 PUSH2 0x100 EXP DUP2 SLOAD DUP2 PUSH1 0xFF MUL NOT AND SWAP1 DUP4 ISZERO ISZERO MUL OR SWAP1 SSTORE POP PUSH2 0x34A9 PUSH2 0x2EF6 JUMP JUMPDEST PUSH20 0xFFFFFFFFFFFFFFFFFFFFFFFFFFFFFFFFFFFFFFFF AND DUP2 PUSH20 0xFFFFFFFFFFFFFFFFFFFFFFFFFFFFFFFFFFFFFFFF AND DUP4 PUSH32 0xF6391F5C32D9C69D2A47EA670B442974B53935D1EDC7FD64EB21E047A839171B PUSH1 0x40 MLOAD PUSH1 0x40 MLOAD DUP1 SWAP2 SUB SWAP1 LOG4 JUMPDEST POP POP JUMP JUMPDEST PUSH1 0x0 PUSH1 0x2 PUSH1 0x0 DUP4 DUP2 MSTORE PUSH1 0x20 ADD SWAP1 DUP2 MSTORE PUSH1 0x20 ADD PUSH1 0x0 KECCAK256 PUSH1 0x0 SWAP1 SLOAD SWAP1 PUSH2 0x100 EXP SWAP1 DIV PUSH20 0xFFFFFFFFFFFFFFFFFFFFFFFFFFFFFFFFFFFFFFFF AND SWAP1 POP SWAP2 SWAP1 POP JUMP JUMPDEST DUP2 PUSH20 0xFFFFFFFFFFFFFFFFFFFFFFFFFFFFFFFFFFFFFFFF AND DUP4 PUSH20 0xFFFFFFFFFFFFFFFFFFFFFFFFFFFFFFFFFFFFFFFF AND SUB PUSH2 0x35B3 JUMPI PUSH1 0x40 MLOAD PUSH32 0x8C379A000000000000000000000000000000000000000000000000000000000 DUP2 MSTORE PUSH1 0x4 ADD PUSH2 0x35AA SWAP1 PUSH2 0x5D65 JUMP JUMPDEST PUSH1 0x40 MLOAD DUP1 SWAP2 SUB SWAP1 REVERT JUMPDEST DUP1 PUSH1 0x5 PUSH1 0x0 DUP6 PUSH20 0xFFFFFFFFFFFFFFFFFFFFFFFFFFFFFFFFFFFFFFFF AND PUSH20 0xFFFFFFFFFFFFFFFFFFFFFFFFFFFFFFFFFFFFFFFF AND DUP2 MSTORE PUSH1 0x20 ADD SWAP1 DUP2 MSTORE PUSH1 0x20 ADD PUSH1 0x0 KECCAK256 PUSH1 0x0 DUP5 PUSH20 0xFFFFFFFFFFFFFFFFFFFFFFFFFFFFFFFFFFFFFFFF AND PUSH20 0xFFFFFFFFFFFFFFFFFFFFFFFFFFFFFFFFFFFFFFFF AND DUP2 MSTORE PUSH1 0x20 ADD SWAP1 DUP2 MSTORE PUSH1 0x20 ADD PUSH1 0x0 KECCAK256 PUSH1 0x0 PUSH2 0x100 EXP DUP2 SLOAD DUP2 PUSH1 0xFF MUL NOT AND SWAP1 DUP4 ISZERO ISZERO MUL OR SWAP1 SSTORE POP DUP2 PUSH20 0xFFFFFFFFFFFFFFFFFFFFFFFFFFFFFFFFFFFFFFFF AND DUP4 PUSH20 0xFFFFFFFFFFFFFFFFFFFFFFFFFFFFFFFFFFFFFFFF AND PUSH32 0x17307EAB39AB6107E8899845AD3D59BD9653F200F220920489CA2B5937696C31 DUP4 PUSH1 0x40 MLOAD PUSH2 0x36A4 SWAP2 SWAP1 PUSH2 0x4268 JUMP JUMPDEST PUSH1 0x40 MLOAD DUP1 SWAP2 SUB SWAP1 LOG3 POP POP POP JUMP JUMPDEST PUSH2 0x36BC DUP5 DUP5 DUP5 PUSH2 0x304C JUMP JUMPDEST PUSH2 0x36C8 DUP5 DUP5 DUP5 DUP5 PUSH2 0x3A2E JUMP JUMPDEST PUSH2 0x3707 JUMPI PUSH1 0x40 MLOAD PUSH32 0x8C379A000000000000000000000000000000000000000000000000000000000 DUP2 MSTORE PUSH1 0x4 ADD PUSH2 0x36FE SWAP1 PUSH2 0x5DF7 JUMP JUMPDEST PUSH1 0x40 MLOAD DUP1 SWAP2 SUB SWAP1 REVERT JUMPDEST POP POP POP POP JUMP JUMPDEST PUSH1 0x0 DUP1 PUSH20 0xFFFFFFFFFFFFFFFFFFFFFFFFFFFFFFFFFFFFFFFF AND PUSH2 0x372F DUP4 PUSH2 0x3508 JUMP JUMPDEST PUSH20 0xFFFFFFFFFFFFFFFFFFFFFFFFFFFFFFFFFFFFFFFF AND EQ ISZERO SWAP1 POP SWAP2 SWAP1 POP JUMP JUMPDEST PUSH1 0x1 DUP2 GT ISZERO PUSH2 0x386E JUMPI PUSH1 0x0 PUSH20 0xFFFFFFFFFFFFFFFFFFFFFFFFFFFFFFFFFFFFFFFF AND DUP5 PUSH20 0xFFFFFFFFFFFFFFFFFFFFFFFFFFFFFFFFFFFFFFFF AND EQ PUSH2 0x37E2 JUMPI DUP1 PUSH1 0x3 PUSH1 0x0 DUP7 PUSH20 0xFFFFFFFFFFFFFFFFFFFFFFFFFFFFFFFFFFFFFFFF AND PUSH20 0xFFFFFFFFFFFFFFFFFFFFFFFFFFFFFFFFFFFFFFFF AND DUP2 MSTORE PUSH1 0x20 ADD SWAP1 DUP2 MSTORE PUSH1 0x20 ADD PUSH1 0x0 KECCAK256 PUSH1 0x0 DUP3 DUP3 SLOAD PUSH2 0x37DA SWAP2 SWAP1 PUSH2 0x5E17 JUMP JUMPDEST SWAP3 POP POP DUP2 SWAP1 SSTORE POP JUMPDEST PUSH1 0x0 PUSH20 0xFFFFFFFFFFFFFFFFFFFFFFFFFFFFFFFFFFFFFFFF AND DUP4 PUSH20 0xFFFFFFFFFFFFFFFFFFFFFFFFFFFFFFFFFFFFFFFF AND EQ PUSH2 0x386D JUMPI DUP1 PUSH1 0x3 PUSH1 0x0 DUP6 PUSH20 0xFFFFFFFFFFFFFFFFFFFFFFFFFFFFFFFFFFFFFFFF AND PUSH20 0xFFFFFFFFFFFFFFFFFFFFFFFFFFFFFFFFFFFFFFFF AND DUP2 MSTORE PUSH1 0x20 ADD SWAP1 DUP2 MSTORE PUSH1 0x20 ADD PUSH1 0x0 KECCAK256 PUSH1 0x0 DUP3 DUP3 SLOAD PUSH2 0x3865 SWAP2 SWAP1 PUSH2 0x4D50 JUMP JUMPDEST SWAP3 POP POP DUP2 SWAP1 SSTORE POP JUMPDEST JUMPDEST POP POP POP POP JUMP JUMPDEST POP POP POP POP JUMP JUMPDEST PUSH1 0x60 PUSH1 0x0 PUSH1 0x1 PUSH2 0x3889 DUP5 PUSH2 0x3BB5 JUMP JUMPDEST ADD SWAP1 POP PUSH1 0x0 DUP2 PUSH8 0xFFFFFFFFFFFFFFFF DUP2 GT ISZERO PUSH2 0x38A8 JUMPI PUSH2 0x38A7 PUSH2 0x44DB JUMP JUMPDEST JUMPDEST PUSH1 0x40 MLOAD SWAP1 DUP1 DUP3 MSTORE DUP1 PUSH1 0x1F ADD PUSH1 0x1F NOT AND PUSH1 0x20 ADD DUP3 ADD PUSH1 0x40 MSTORE DUP1 ISZERO PUSH2 0x38DA JUMPI DUP2 PUSH1 0x20 ADD PUSH1 0x1 DUP3 MUL DUP1 CALLDATASIZE DUP4 CALLDATACOPY DUP1 DUP3 ADD SWAP2 POP POP SWAP1 POP JUMPDEST POP SWAP1 POP PUSH1 0x0 DUP3 PUSH1 0x20 ADD DUP3 ADD SWAP1 POP JUMPDEST PUSH1 0x1 ISZERO PUSH2 0x393D JUMPI DUP1 DUP1 PUSH1 0x1 SWAP1 SUB SWAP2 POP POP PUSH32 0x3031323334353637383961626364656600000000000000000000000000000000 PUSH1 0xA DUP7 MOD BYTE DUP2 MSTORE8 PUSH1 0xA DUP6 DUP2 PUSH2 0x3931 JUMPI PUSH2 0x3930 PUSH2 0x5E4B JUMP JUMPDEST JUMPDEST DIV SWAP5 POP PUSH1 0x0 DUP6 SUB PUSH2 0x38E8 JUMPI JUMPDEST DUP2 SWAP4 POP POP POP POP SWAP2 SWAP1 POP JUMP JUMPDEST PUSH1 0x0 PUSH4 0x49064906 PUSH1 0xE0 SHL PUSH28 0xFFFFFFFFFFFFFFFFFFFFFFFFFFFFFFFFFFFFFFFFFFFFFFFFFFFFFFFF NOT AND DUP3 PUSH28 0xFFFFFFFFFFFFFFFFFFFFFFFFFFFFFFFFFFFFFFFFFFFFFFFFFFFFFFFF NOT AND EQ DUP1 PUSH2 0x39A2 JUMPI POP PUSH2 0x39A1 DUP3 PUSH2 0x3D08 JUMP JUMPDEST JUMPDEST SWAP1 POP SWAP2 SWAP1 POP JUMP JUMPDEST PUSH2 0x39B3 DUP3 DUP3 PUSH2 0x1F95 JUMP JUMPDEST PUSH2 0x3A2A JUMPI PUSH2 0x39C0 DUP2 PUSH2 0x3DEA JUMP JUMPDEST PUSH2 0x39CE DUP4 PUSH1 0x0 SHR PUSH1 0x20 PUSH2 0x3E17 JUMP JUMPDEST PUSH1 0x40 MLOAD PUSH1 0x20 ADD PUSH2 0x39DF SWAP3 SWAP2 SWAP1 PUSH2 0x5F12 JUMP JUMPDEST PUSH1 0x40 MLOAD PUSH1 0x20 DUP2 DUP4 SUB SUB DUP2 MSTORE SWAP1 PUSH1 0x40 MSTORE PUSH1 0x40 MLOAD PUSH32 0x8C379A000000000000000000000000000000000000000000000000000000000 DUP2 MSTORE PUSH1 0x4 ADD PUSH2 0x3A21 SWAP2 SWAP1 PUSH2 0x436A JUMP JUMPDEST PUSH1 0x40 MLOAD DUP1 SWAP2 SUB SWAP1 REVERT JUMPDEST POP POP JUMP JUMPDEST PUSH1 0x0 PUSH2 0x3A4F DUP5 PUSH20 0xFFFFFFFFFFFFFFFFFFFFFFFFFFFFFFFFFFFFFFFF AND PUSH2 0x4053 JUMP JUMPDEST ISZERO PUSH2 0x3BA8 JUMPI DUP4 PUSH20 0xFFFFFFFFFFFFFFFFFFFFFFFFFFFFFFFFFFFFFFFF AND PUSH4 0x150B7A02 PUSH2 0x3A78 PUSH2 0x2EF6 JUMP JUMPDEST DUP8 DUP7 DUP7 PUSH1 0x40 MLOAD DUP6 PUSH4 0xFFFFFFFF AND PUSH1 0xE0 SHL DUP2 MSTORE PUSH1 0x4 ADD PUSH2 0x3A9A SWAP5 SWAP4 SWAP3 SWAP2 SWAP1 PUSH2 0x5FA1 JUMP JUMPDEST PUSH1 0x20 PUSH1 0x40 MLOAD DUP1 DUP4 SUB DUP2 PUSH1 0x0 DUP8 GAS CALL SWAP3 POP POP POP DUP1 ISZERO PUSH2 0x3AD6 JUMPI POP PUSH1 0x40 MLOAD RETURNDATASIZE PUSH1 0x1F NOT PUSH1 0x1F DUP3 ADD AND DUP3 ADD DUP1 PUSH1 0x40 MSTORE POP DUP2 ADD SWAP1 PUSH2 0x3AD3 SWAP2 SWAP1 PUSH2 0x6002 JUMP JUMPDEST PUSH1 0x1 JUMPDEST PUSH2 0x3B58 JUMPI RETURNDATASIZE DUP1 PUSH1 0x0 DUP2 EQ PUSH2 0x3B06 JUMPI PUSH1 0x40 MLOAD SWAP2 POP PUSH1 0x1F NOT PUSH1 0x3F RETURNDATASIZE ADD AND DUP3 ADD PUSH1 0x40 MSTORE RETURNDATASIZE DUP3 MSTORE RETURNDATASIZE PUSH1 0x0 PUSH1 0x20 DUP5 ADD RETURNDATACOPY PUSH2 0x3B0B JUMP JUMPDEST PUSH1 0x60 SWAP2 POP JUMPDEST POP PUSH1 0x0 DUP2 MLOAD SUB PUSH2 0x3B50 JUMPI PUSH1 0x40 MLOAD PUSH32 0x8C379A000000000000000000000000000000000000000000000000000000000 DUP2 MSTORE PUSH1 0x4 ADD PUSH2 0x3B47 SWAP1 PUSH2 0x5DF7 JUMP JUMPDEST PUSH1 0x40 MLOAD DUP1 SWAP2 SUB SWAP1 REVERT JUMPDEST DUP1 MLOAD DUP2 PUSH1 0x20 ADD REVERT JUMPDEST PUSH4 0x150B7A02 PUSH1 0xE0 SHL PUSH28 0xFFFFFFFFFFFFFFFFFFFFFFFFFFFFFFFFFFFFFFFFFFFFFFFFFFFFFFFF NOT AND DUP2 PUSH28 0xFFFFFFFFFFFFFFFFFFFFFFFFFFFFFFFFFFFFFFFFFFFFFFFFFFFFFFFF NOT AND EQ SWAP2 POP POP PUSH2 0x3BAD JUMP JUMPDEST PUSH1 0x1 SWAP1 POP JUMPDEST SWAP5 SWAP4 POP POP POP POP JUMP JUMPDEST PUSH1 0x0 DUP1 PUSH1 0x0 SWAP1 POP PUSH27 0x184F03E93FF9F4DAA797ED6E38ED64BF6A1F010000000000000000 DUP4 LT PUSH2 0x3C13 JUMPI PUSH27 0x184F03E93FF9F4DAA797ED6E38ED64BF6A1F010000000000000000 DUP4 DUP2 PUSH2 0x3C09 JUMPI PUSH2 0x3C08 PUSH2 0x5E4B JUMP JUMPDEST JUMPDEST DIV SWAP3 POP PUSH1 0x40 DUP2 ADD SWAP1 POP JUMPDEST PUSH14 0x4EE2D6D415B85ACEF8100000000 DUP4 LT PUSH2 0x3C50 JUMPI PUSH14 0x4EE2D6D415B85ACEF8100000000 DUP4 DUP2 PUSH2 0x3C46 JUMPI PUSH2 0x3C45 PUSH2 0x5E4B JUMP JUMPDEST JUMPDEST DIV SWAP3 POP PUSH1 0x20 DUP2 ADD SWAP1 POP JUMPDEST PUSH7 0x2386F26FC10000 DUP4 LT PUSH2 0x3C7F JUMPI PUSH7 0x2386F26FC10000 DUP4 DUP2 PUSH2 0x3C75 JUMPI PUSH2 0x3C74 PUSH2 0x5E4B JUMP JUMPDEST JUMPDEST DIV SWAP3 POP PUSH1 0x10 DUP2 ADD SWAP1 POP JUMPDEST PUSH4 0x5F5E100 DUP4 LT PUSH2 0x3CA8 JUMPI PUSH4 0x5F5E100 DUP4 DUP2 PUSH2 0x3C9E JUMPI PUSH2 0x3C9D PUSH2 0x5E4B JUMP JUMPDEST JUMPDEST DIV SWAP3 POP PUSH1 0x8 DUP2 ADD SWAP1 POP JUMPDEST PUSH2 0x2710 DUP4 LT PUSH2 0x3CCD JUMPI PUSH2 0x2710 DUP4 DUP2 PUSH2 0x3CC3 JUMPI PUSH2 0x3CC2 PUSH2 0x5E4B JUMP JUMPDEST JUMPDEST DIV SWAP3 POP PUSH1 0x4 DUP2 ADD SWAP1 POP JUMPDEST PUSH1 0x64 DUP4 LT PUSH2 0x3CF0 JUMPI PUSH1 0x64 DUP4 DUP2 PUSH2 0x3CE6 JUMPI PUSH2 0x3CE5 PUSH2 0x5E4B JUMP JUMPDEST JUMPDEST DIV SWAP3 POP PUSH1 0x2 DUP2 ADD SWAP1 POP JUMPDEST PUSH1 0xA DUP4 LT PUSH2 0x3CFF JUMPI PUSH1 0x1 DUP2 ADD SWAP1 POP JUMPDEST DUP1 SWAP2 POP POP SWAP2 SWAP1 POP JUMP JUMPDEST PUSH1 0x0 PUSH32 0x80AC58CD00000000000000000000000000000000000000000000000000000000 PUSH28 0xFFFFFFFFFFFFFFFFFFFFFFFFFFFFFFFFFFFFFFFFFFFFFFFFFFFFFFFF NOT AND DUP3 PUSH28 0xFFFFFFFFFFFFFFFFFFFFFFFFFFFFFFFFFFFFFFFFFFFFFFFFFFFFFFFF NOT AND EQ DUP1 PUSH2 0x3DD3 JUMPI POP PUSH32 0x5B5E139F00000000000000000000000000000000000000000000000000000000 PUSH28 0xFFFFFFFFFFFFFFFFFFFFFFFFFFFFFFFFFFFFFFFFFFFFFFFFFFFFFFFF NOT AND DUP3 PUSH28 0xFFFFFFFFFFFFFFFFFFFFFFFFFFFFFFFFFFFFFFFFFFFFFFFFFFFFFFFF NOT AND EQ JUMPDEST DUP1 PUSH2 0x3DE3 JUMPI POP PUSH2 0x3DE2 DUP3 PUSH2 0x4076 JUMP JUMPDEST JUMPDEST SWAP1 POP SWAP2 SWAP1 POP JUMP JUMPDEST PUSH1 0x60 PUSH2 0x3E10 DUP3 PUSH20 0xFFFFFFFFFFFFFFFFFFFFFFFFFFFFFFFFFFFFFFFF AND PUSH1 0x14 PUSH1 0xFF AND PUSH2 0x3E17 JUMP JUMPDEST SWAP1 POP SWAP2 SWAP1 POP JUMP JUMPDEST PUSH1 0x60 PUSH1 0x0 PUSH1 0x2 DUP4 PUSH1 0x2 PUSH2 0x3E2A SWAP2 SWAP1 PUSH2 0x4F5A JUMP JUMPDEST PUSH2 0x3E34 SWAP2 SWAP1 PUSH2 0x4D50 JUMP JUMPDEST PUSH8 0xFFFFFFFFFFFFFFFF DUP2 GT ISZERO PUSH2 0x3E4D JUMPI PUSH2 0x3E4C PUSH2 0x44DB JUMP JUMPDEST JUMPDEST PUSH1 0x40 MLOAD SWAP1 DUP1 DUP3 MSTORE DUP1 PUSH1 0x1F ADD PUSH1 0x1F NOT AND PUSH1 0x20 ADD DUP3 ADD PUSH1 0x40 MSTORE DUP1 ISZERO PUSH2 0x3E7F JUMPI DUP2 PUSH1 0x20 ADD PUSH1 0x1 DUP3 MUL DUP1 CALLDATASIZE DUP4 CALLDATACOPY DUP1 DUP3 ADD SWAP2 POP POP SWAP1 POP JUMPDEST POP SWAP1 POP PUSH32 0x3000000000000000000000000000000000000000000000000000000000000000 DUP2 PUSH1 0x0 DUP2 MLOAD DUP2 LT PUSH2 0x3EB7 JUMPI PUSH2 0x3EB6 PUSH2 0x52D2 JUMP JUMPDEST JUMPDEST PUSH1 0x20 ADD ADD SWAP1 PUSH31 0xFFFFFFFFFFFFFFFFFFFFFFFFFFFFFFFFFFFFFFFFFFFFFFFFFFFFFFFFFFFFFF NOT AND SWAP1 DUP2 PUSH1 0x0 BYTE SWAP1 MSTORE8 POP PUSH32 0x7800000000000000000000000000000000000000000000000000000000000000 DUP2 PUSH1 0x1 DUP2 MLOAD DUP2 LT PUSH2 0x3F1B JUMPI PUSH2 0x3F1A PUSH2 0x52D2 JUMP JUMPDEST JUMPDEST PUSH1 0x20 ADD ADD SWAP1 PUSH31 0xFFFFFFFFFFFFFFFFFFFFFFFFFFFFFFFFFFFFFFFFFFFFFFFFFFFFFFFFFFFFFF NOT AND SWAP1 DUP2 PUSH1 0x0 BYTE SWAP1 MSTORE8 POP PUSH1 0x0 PUSH1 0x1 DUP5 PUSH1 0x2 PUSH2 0x3F5B SWAP2 SWAP1 PUSH2 0x4F5A JUMP JUMPDEST PUSH2 0x3F65 SWAP2 SWAP1 PUSH2 0x4D50 JUMP JUMPDEST SWAP1 POP JUMPDEST PUSH1 0x1 DUP2 GT ISZERO PUSH2 0x4005 JUMPI PUSH32 0x3031323334353637383961626364656600000000000000000000000000000000 PUSH1 0xF DUP7 AND PUSH1 0x10 DUP2 LT PUSH2 0x3FA7 JUMPI PUSH2 0x3FA6 PUSH2 0x52D2 JUMP JUMPDEST JUMPDEST BYTE PUSH1 0xF8 SHL DUP3 DUP3 DUP2 MLOAD DUP2 LT PUSH2 0x3FBE JUMPI PUSH2 0x3FBD PUSH2 0x52D2 JUMP JUMPDEST JUMPDEST PUSH1 0x20 ADD ADD SWAP1 PUSH31 0xFFFFFFFFFFFFFFFFFFFFFFFFFFFFFFFFFFFFFFFFFFFFFFFFFFFFFFFFFFFFFF NOT AND SWAP1 DUP2 PUSH1 0x0 BYTE SWAP1 MSTORE8 POP PUSH1 0x4 DUP6 SWAP1 SHR SWAP5 POP DUP1 PUSH2 0x3FFE SWAP1 PUSH2 0x602F JUMP JUMPDEST SWAP1 POP PUSH2 0x3F68 JUMP JUMPDEST POP PUSH1 0x0 DUP5 EQ PUSH2 0x4049 JUMPI PUSH1 0x40 MLOAD PUSH32 0x8C379A000000000000000000000000000000000000000000000000000000000 DUP2 MSTORE PUSH1 0x4 ADD PUSH2 0x4040 SWAP1 PUSH2 0x60A4 JUMP JUMPDEST PUSH1 0x40 MLOAD DUP1 SWAP2 SUB SWAP1 REVERT JUMPDEST DUP1 SWAP2 POP POP SWAP3 SWAP2 POP POP JUMP JUMPDEST PUSH1 0x0 DUP1 DUP3 PUSH20 0xFFFFFFFFFFFFFFFFFFFFFFFFFFFFFFFFFFFFFFFF AND EXTCODESIZE GT SWAP1 POP SWAP2 SWAP1 POP JUMP JUMPDEST PUSH1 0x0 PUSH32 0x1FFC9A700000000000000000000000000000000000000000000000000000000 PUSH28 0xFFFFFFFFFFFFFFFFFFFFFFFFFFFFFFFFFFFFFFFFFFFFFFFFFFFFFFFF NOT AND DUP3 PUSH28 0xFFFFFFFFFFFFFFFFFFFFFFFFFFFFFFFFFFFFFFFFFFFFFFFFFFFFFFFF NOT AND EQ SWAP1 POP SWAP2 SWAP1 POP JUMP JUMPDEST PUSH1 0x0 PUSH1 0x40 MLOAD SWAP1 POP SWAP1 JUMP JUMPDEST PUSH1 0x0 DUP1 REVERT JUMPDEST PUSH1 0x0 DUP1 REVERT JUMPDEST PUSH1 0x0 DUP2 SWAP1 POP SWAP2 SWAP1 POP JUMP JUMPDEST PUSH2 0x4107 DUP2 PUSH2 0x40F4 JUMP JUMPDEST DUP2 EQ PUSH2 0x4112 JUMPI PUSH1 0x0 DUP1 REVERT JUMPDEST POP JUMP JUMPDEST PUSH1 0x0 DUP2 CALLDATALOAD SWAP1 POP PUSH2 0x4124 DUP2 PUSH2 0x40FE JUMP JUMPDEST SWAP3 SWAP2 POP POP JUMP JUMPDEST PUSH1 0x0 PUSH20 0xFFFFFFFFFFFFFFFFFFFFFFFFFFFFFFFFFFFFFFFF DUP3 AND SWAP1 POP SWAP2 SWAP1 POP JUMP JUMPDEST PUSH1 0x0 PUSH2 0x4155 DUP3 PUSH2 0x412A JUMP JUMPDEST SWAP1 POP SWAP2 SWAP1 POP JUMP JUMPDEST PUSH2 0x4165 DUP2 PUSH2 0x414A JUMP JUMPDEST DUP2 EQ PUSH2 0x4170 JUMPI PUSH1 0x0 DUP1 REVERT JUMPDEST POP JUMP JUMPDEST PUSH1 0x0 DUP2 CALLDATALOAD SWAP1 POP PUSH2 0x4182 DUP2 PUSH2 0x415C JUMP JUMPDEST SWAP3 SWAP2 POP POP JUMP JUMPDEST PUSH1 0x0 DUP1 PUSH1 0x40 DUP4 DUP6 SUB SLT ISZERO PUSH2 0x419F JUMPI PUSH2 0x419E PUSH2 0x40EA JUMP JUMPDEST JUMPDEST PUSH1 0x0 PUSH2 0x41AD DUP6 DUP3 DUP7 ADD PUSH2 0x4115 JUMP JUMPDEST SWAP3 POP POP PUSH1 0x20 PUSH2 0x41BE DUP6 DUP3 DUP7 ADD PUSH2 0x4173 JUMP JUMPDEST SWAP2 POP POP SWAP3 POP SWAP3 SWAP1 POP JUMP JUMPDEST PUSH1 0x0 PUSH32 0xFFFFFFFF00000000000000000000000000000000000000000000000000000000 DUP3 AND SWAP1 POP SWAP2 SWAP1 POP JUMP JUMPDEST PUSH2 0x41FD DUP2 PUSH2 0x41C8 JUMP JUMPDEST DUP2 EQ PUSH2 0x4208 JUMPI PUSH1 0x0 DUP1 REVERT JUMPDEST POP JUMP JUMPDEST PUSH1 0x0 DUP2 CALLDATALOAD SWAP1 POP PUSH2 0x421A DUP2 PUSH2 0x41F4 JUMP JUMPDEST SWAP3 SWAP2 POP POP JUMP JUMPDEST PUSH1 0x0 PUSH1 0x20 DUP3 DUP5 SUB SLT ISZERO PUSH2 0x4236 JUMPI PUSH2 0x4235 PUSH2 0x40EA JUMP JUMPDEST JUMPDEST PUSH1 0x0 PUSH2 0x4244 DUP5 DUP3 DUP6 ADD PUSH2 0x420B JUMP JUMPDEST SWAP2 POP POP SWAP3 SWAP2 POP POP JUMP JUMPDEST PUSH1 0x0 DUP2 ISZERO ISZERO SWAP1 POP SWAP2 SWAP1 POP JUMP JUMPDEST PUSH2 0x4262 DUP2 PUSH2 0x424D JUMP JUMPDEST DUP3 MSTORE POP POP JUMP JUMPDEST PUSH1 0x0 PUSH1 0x20 DUP3 ADD SWAP1 POP PUSH2 0x427D PUSH1 0x0 DUP4 ADD DUP5 PUSH2 0x4259 JUMP JUMPDEST SWAP3 SWAP2 POP POP JUMP JUMPDEST PUSH1 0x0 PUSH1 0x20 DUP3 DUP5 SUB SLT ISZERO PUSH2 0x4299 JUMPI PUSH2 0x4298 PUSH2 0x40EA JUMP JUMPDEST JUMPDEST PUSH1 0x0 PUSH2 0x42A7 DUP5 DUP3 DUP6 ADD PUSH2 0x4115 JUMP JUMPDEST SWAP2 POP POP SWAP3 SWAP2 POP POP JUMP JUMPDEST PUSH2 0x42B9 DUP2 PUSH2 0x40F4 JUMP JUMPDEST DUP3 MSTORE POP POP JUMP JUMPDEST PUSH1 0x0 PUSH1 0x20 DUP3 ADD SWAP1 POP PUSH2 0x42D4 PUSH1 0x0 DUP4 ADD DUP5 PUSH2 0x42B0 JUMP JUMPDEST SWAP3 SWAP2 POP POP JUMP JUMPDEST PUSH1 0x0 DUP2 MLOAD SWAP1 POP SWAP2 SWAP1 POP JUMP JUMPDEST PUSH1 0x0 DUP3 DUP3 MSTORE PUSH1 0x20 DUP3 ADD SWAP1 POP SWAP3 SWAP2 POP POP JUMP JUMPDEST PUSH1 0x0 JUMPDEST DUP4 DUP2 LT ISZERO PUSH2 0x4314 JUMPI DUP1 DUP3 ADD MLOAD DUP2 DUP5 ADD MSTORE PUSH1 0x20 DUP2 ADD SWAP1 POP PUSH2 0x42F9 JUMP JUMPDEST PUSH1 0x0 DUP5 DUP5 ADD MSTORE POP POP POP POP JUMP JUMPDEST PUSH1 0x0 PUSH1 0x1F NOT PUSH1 0x1F DUP4 ADD AND SWAP1 POP SWAP2 SWAP1 POP JUMP JUMPDEST PUSH1 0x0 PUSH2 0x433C DUP3 PUSH2 0x42DA JUMP JUMPDEST PUSH2 0x4346 DUP2 DUP6 PUSH2 0x42E5 JUMP JUMPDEST SWAP4 POP PUSH2 0x4356 DUP2 DUP6 PUSH1 0x20 DUP7 ADD PUSH2 0x42F6 JUMP JUMPDEST PUSH2 0x435F DUP2 PUSH2 0x4320 JUMP JUMPDEST DUP5 ADD SWAP2 POP POP SWAP3 SWAP2 POP POP JUMP JUMPDEST PUSH1 0x0 PUSH1 0x20 DUP3 ADD SWAP1 POP DUP2 DUP2 SUB PUSH1 0x0 DUP4 ADD MSTORE PUSH2 0x4384 DUP2 DUP5 PUSH2 0x4331 JUMP JUMPDEST SWAP1 POP SWAP3 SWAP2 POP POP JUMP JUMPDEST PUSH2 0x4395 DUP2 PUSH2 0x414A JUMP JUMPDEST DUP3 MSTORE POP POP JUMP JUMPDEST PUSH1 0x0 PUSH1 0x20 DUP3 ADD SWAP1 POP PUSH2 0x43B0 PUSH1 0x0 DUP4 ADD DUP5 PUSH2 0x438C JUMP JUMPDEST SWAP3 SWAP2 POP POP JUMP JUMPDEST PUSH1 0x0 DUP1 PUSH1 0x40 DUP4 DUP6 SUB SLT ISZERO PUSH2 0x43CD JUMPI PUSH2 0x43CC PUSH2 0x40EA JUMP JUMPDEST JUMPDEST PUSH1 0x0 PUSH2 0x43DB DUP6 DUP3 DUP7 ADD PUSH2 0x4173 JUMP JUMPDEST SWAP3 POP POP PUSH1 0x20 PUSH2 0x43EC DUP6 DUP3 DUP7 ADD PUSH2 0x4115 JUMP JUMPDEST SWAP2 POP POP SWAP3 POP SWAP3 SWAP1 POP JUMP JUMPDEST PUSH1 0x0 DUP1 PUSH1 0x0 PUSH1 0x60 DUP5 DUP7 SUB SLT ISZERO PUSH2 0x440F JUMPI PUSH2 0x440E PUSH2 0x40EA JUMP JUMPDEST JUMPDEST PUSH1 0x0 PUSH2 0x441D DUP7 DUP3 DUP8 ADD PUSH2 0x4173 JUMP JUMPDEST SWAP4 POP POP PUSH1 0x20 PUSH2 0x442E DUP7 DUP3 DUP8 ADD PUSH2 0x4173 JUMP JUMPDEST SWAP3 POP POP PUSH1 0x40 PUSH2 0x443F DUP7 DUP3 DUP8 ADD PUSH2 0x4115 JUMP JUMPDEST SWAP2 POP POP SWAP3 POP SWAP3 POP SWAP3 JUMP JUMPDEST PUSH1 0x0 DUP2 SWAP1 POP SWAP2 SWAP1 POP JUMP JUMPDEST PUSH2 0x445C DUP2 PUSH2 0x4449 JUMP JUMPDEST DUP2 EQ PUSH2 0x4467 JUMPI PUSH1 0x0 DUP1 REVERT JUMPDEST POP JUMP JUMPDEST PUSH1 0x0 DUP2 CALLDATALOAD SWAP1 POP PUSH2 0x4479 DUP2 PUSH2 0x4453 JUMP JUMPDEST SWAP3 SWAP2 POP POP JUMP JUMPDEST PUSH1 0x0 PUSH1 0x20 DUP3 DUP5 SUB SLT ISZERO PUSH2 0x4495 JUMPI PUSH2 0x4494 PUSH2 0x40EA JUMP JUMPDEST JUMPDEST PUSH1 0x0 PUSH2 0x44A3 DUP5 DUP3 DUP6 ADD PUSH2 0x446A JUMP JUMPDEST SWAP2 POP POP SWAP3 SWAP2 POP POP JUMP JUMPDEST PUSH2 0x44B5 DUP2 PUSH2 0x4449 JUMP JUMPDEST DUP3 MSTORE POP POP JUMP JUMPDEST PUSH1 0x0 PUSH1 0x20 DUP3 ADD SWAP1 POP PUSH2 0x44D0 PUSH1 0x0 DUP4 ADD DUP5 PUSH2 0x44AC JUMP JUMPDEST SWAP3 SWAP2 POP POP JUMP JUMPDEST PUSH1 0x0 DUP1 REVERT JUMPDEST PUSH32 0x4E487B7100000000000000000000000000000000000000000000000000000000 PUSH1 0x0 MSTORE PUSH1 0x41 PUSH1 0x4 MSTORE PUSH1 0x24 PUSH1 0x0 REVERT JUMPDEST PUSH2 0x4513 DUP3 PUSH2 0x4320 JUMP JUMPDEST DUP2 ADD DUP2 DUP2 LT PUSH8 0xFFFFFFFFFFFFFFFF DUP3 GT OR ISZERO PUSH2 0x4532 JUMPI PUSH2 0x4531 PUSH2 0x44DB JUMP JUMPDEST JUMPDEST DUP1 PUSH1 0x40 MSTORE POP POP POP JUMP JUMPDEST PUSH1 0x0 PUSH2 0x4545 PUSH2 0x40E0 JUMP JUMPDEST SWAP1 POP PUSH2 0x4551 DUP3 DUP3 PUSH2 0x450A JUMP JUMPDEST SWAP2 SWAP1 POP JUMP JUMPDEST PUSH1 0x0 PUSH8 0xFFFFFFFFFFFFFFFF DUP3 GT ISZERO PUSH2 0x4571 JUMPI PUSH2 0x4570 PUSH2 0x44DB JUMP JUMPDEST JUMPDEST PUSH1 0x20 DUP3 MUL SWAP1 POP PUSH1 0x20 DUP2 ADD SWAP1 POP SWAP2 SWAP1 POP JUMP JUMPDEST PUSH1 0x0 DUP1 REVERT JUMPDEST PUSH1 0x0 PUSH2 0x459A PUSH2 0x4595 DUP5 PUSH2 0x4556 JUMP JUMPDEST PUSH2 0x453B JUMP JUMPDEST SWAP1 POP DUP1 DUP4 DUP3 MSTORE PUSH1 0x20 DUP3 ADD SWAP1 POP PUSH1 0x20 DUP5 MUL DUP4 ADD DUP6 DUP2 GT ISZERO PUSH2 0x45BD JUMPI PUSH2 0x45BC PUSH2 0x4582 JUMP JUMPDEST JUMPDEST DUP4 JUMPDEST DUP2 DUP2 LT ISZERO PUSH2 0x45E6 JUMPI DUP1 PUSH2 0x45D2 DUP9 DUP3 PUSH2 0x4115 JUMP JUMPDEST DUP5 MSTORE PUSH1 0x20 DUP5 ADD SWAP4 POP POP PUSH1 0x20 DUP2 ADD SWAP1 POP PUSH2 0x45BF JUMP JUMPDEST POP POP POP SWAP4 SWAP3 POP POP POP JUMP JUMPDEST PUSH1 0x0 DUP3 PUSH1 0x1F DUP4 ADD SLT PUSH2 0x4605 JUMPI PUSH2 0x4604 PUSH2 0x44D6 JUMP JUMPDEST JUMPDEST DUP2 CALLDATALOAD PUSH2 0x4615 DUP5 DUP3 PUSH1 0x20 DUP7 ADD PUSH2 0x4587 JUMP JUMPDEST SWAP2 POP POP SWAP3 SWAP2 POP POP JUMP JUMPDEST PUSH1 0x0 PUSH1 0x20 DUP3 DUP5 SUB SLT ISZERO PUSH2 0x4634 JUMPI PUSH2 0x4633 PUSH2 0x40EA JUMP JUMPDEST JUMPDEST PUSH1 0x0 DUP3 ADD CALLDATALOAD PUSH8 0xFFFFFFFFFFFFFFFF DUP2 GT ISZERO PUSH2 0x4652 JUMPI PUSH2 0x4651 PUSH2 0x40EF JUMP JUMPDEST JUMPDEST PUSH2 0x465E DUP5 DUP3 DUP6 ADD PUSH2 0x45F0 JUMP JUMPDEST SWAP2 POP POP SWAP3 SWAP2 POP POP JUMP JUMPDEST PUSH1 0x0 DUP1 PUSH1 0x40 DUP4 DUP6 SUB SLT ISZERO PUSH2 0x467E JUMPI PUSH2 0x467D PUSH2 0x40EA JUMP JUMPDEST JUMPDEST PUSH1 0x0 PUSH2 0x468C DUP6 DUP3 DUP7 ADD PUSH2 0x446A JUMP JUMPDEST SWAP3 POP POP PUSH1 0x20 PUSH2 0x469D DUP6 DUP3 DUP7 ADD PUSH2 0x4173 JUMP JUMPDEST SWAP2 POP POP SWAP3 POP SWAP3 SWAP1 POP JUMP JUMPDEST PUSH1 0x0 DUP1 PUSH1 0x0 PUSH1 0x60 DUP5 DUP7 SUB SLT ISZERO PUSH2 0x46C0 JUMPI PUSH2 0x46BF PUSH2 0x40EA JUMP JUMPDEST JUMPDEST PUSH1 0x0 PUSH2 0x46CE DUP7 DUP3 DUP8 ADD PUSH2 0x4115 JUMP JUMPDEST SWAP4 POP POP PUSH1 0x20 PUSH2 0x46DF DUP7 DUP3 DUP8 ADD PUSH2 0x4115 JUMP JUMPDEST SWAP3 POP POP PUSH1 0x40 PUSH2 0x46F0 DUP7 DUP3 DUP8 ADD PUSH2 0x4115 JUMP JUMPDEST SWAP2 POP POP SWAP3 POP SWAP3 POP SWAP3 JUMP JUMPDEST PUSH1 0x0 PUSH1 0x20 DUP3 DUP5 SUB SLT ISZERO PUSH2 0x4710 JUMPI PUSH2 0x470F PUSH2 0x40EA JUMP JUMPDEST JUMPDEST PUSH1 0x0 PUSH2 0x471E DUP5 DUP3 DUP6 ADD PUSH2 0x4173 JUMP JUMPDEST SWAP2 POP POP SWAP3 SWAP2 POP POP JUMP JUMPDEST PUSH2 0x4730 DUP2 PUSH2 0x424D JUMP JUMPDEST DUP2 EQ PUSH2 0x473B JUMPI PUSH1 0x0 DUP1 REVERT JUMPDEST POP JUMP JUMPDEST PUSH1 0x0 DUP2 CALLDATALOAD SWAP1 POP PUSH2 0x474D DUP2 PUSH2 0x4727 JUMP JUMPDEST SWAP3 SWAP2 POP POP JUMP JUMPDEST PUSH1 0x0 DUP1 PUSH1 0x0 PUSH1 0x60 DUP5 DUP7 SUB SLT ISZERO PUSH2 0x476C JUMPI PUSH2 0x476B PUSH2 0x40EA JUMP JUMPDEST JUMPDEST PUSH1 0x0 PUSH2 0x477A DUP7 DUP3 DUP8 ADD PUSH2 0x473E JUMP JUMPDEST SWAP4 POP POP PUSH1 0x20 PUSH2 0x478B DUP7 DUP3 DUP8 ADD PUSH2 0x473E JUMP JUMPDEST SWAP3 POP POP PUSH1 0x40 PUSH2 0x479C DUP7 DUP3 DUP8 ADD PUSH2 0x473E JUMP JUMPDEST SWAP2 POP POP SWAP3 POP SWAP3 POP SWAP3 JUMP JUMPDEST PUSH1 0x0 PUSH8 0xFFFFFFFFFFFFFFFF DUP3 GT ISZERO PUSH2 0x47C1 JUMPI PUSH2 0x47C0 PUSH2 0x44DB JUMP JUMPDEST JUMPDEST PUSH1 0x20 DUP3 MUL SWAP1 POP PUSH1 0x20 DUP2 ADD SWAP1 POP SWAP2 SWAP1 POP JUMP JUMPDEST PUSH1 0x0 PUSH2 0x47E5 PUSH2 0x47E0 DUP5 PUSH2 0x47A6 JUMP JUMPDEST PUSH2 0x453B JUMP JUMPDEST SWAP1 POP DUP1 DUP4 DUP3 MSTORE PUSH1 0x20 DUP3 ADD SWAP1 POP PUSH1 0x20 DUP5 MUL DUP4 ADD DUP6 DUP2 GT ISZERO PUSH2 0x4808 JUMPI PUSH2 0x4807 PUSH2 0x4582 JUMP JUMPDEST JUMPDEST DUP4 JUMPDEST DUP2 DUP2 LT ISZERO PUSH2 0x4831 JUMPI DUP1 PUSH2 0x481D DUP9 DUP3 PUSH2 0x4173 JUMP JUMPDEST DUP5 MSTORE PUSH1 0x20 DUP5 ADD SWAP4 POP POP PUSH1 0x20 DUP2 ADD SWAP1 POP PUSH2 0x480A JUMP JUMPDEST POP POP POP SWAP4 SWAP3 POP POP POP JUMP JUMPDEST PUSH1 0x0 DUP3 PUSH1 0x1F DUP4 ADD SLT PUSH2 0x4850 JUMPI PUSH2 0x484F PUSH2 0x44D6 JUMP JUMPDEST JUMPDEST DUP2 CALLDATALOAD PUSH2 0x4860 DUP5 DUP3 PUSH1 0x20 DUP7 ADD PUSH2 0x47D2 JUMP JUMPDEST SWAP2 POP POP SWAP3 SWAP2 POP POP JUMP JUMPDEST PUSH1 0x0 PUSH1 0x20 DUP3 DUP5 SUB SLT ISZERO PUSH2 0x487F JUMPI PUSH2 0x487E PUSH2 0x40EA JUMP JUMPDEST JUMPDEST PUSH1 0x0 DUP3 ADD CALLDATALOAD PUSH8 0xFFFFFFFFFFFFFFFF DUP2 GT ISZERO PUSH2 0x489D JUMPI PUSH2 0x489C PUSH2 0x40EF JUMP JUMPDEST JUMPDEST PUSH2 0x48A9 DUP5 DUP3 DUP6 ADD PUSH2 0x483B JUMP JUMPDEST SWAP2 POP POP SWAP3 SWAP2 POP POP JUMP JUMPDEST PUSH1 0x0 DUP1 PUSH1 0x40 DUP4 DUP6 SUB SLT ISZERO PUSH2 0x48C9 JUMPI PUSH2 0x48C8 PUSH2 0x40EA JUMP JUMPDEST JUMPDEST PUSH1 0x0 PUSH2 0x48D7 DUP6 DUP3 DUP7 ADD PUSH2 0x4173 JUMP JUMPDEST SWAP3 POP POP PUSH1 0x20 PUSH2 0x48E8 DUP6 DUP3 DUP7 ADD PUSH2 0x473E JUMP JUMPDEST SWAP2 POP POP SWAP3 POP SWAP3 SWAP1 POP JUMP JUMPDEST PUSH1 0x0 DUP1 REVERT JUMPDEST PUSH1 0x0 PUSH8 0xFFFFFFFFFFFFFFFF DUP3 GT ISZERO PUSH2 0x4912 JUMPI PUSH2 0x4911 PUSH2 0x44DB JUMP JUMPDEST JUMPDEST PUSH2 0x491B DUP3 PUSH2 0x4320 JUMP JUMPDEST SWAP1 POP PUSH1 0x20 DUP2 ADD SWAP1 POP SWAP2 SWAP1 POP JUMP JUMPDEST DUP3 DUP2 DUP4 CALLDATACOPY PUSH1 0x0 DUP4 DUP4 ADD MSTORE POP POP POP JUMP JUMPDEST PUSH1 0x0 PUSH2 0x494A PUSH2 0x4945 DUP5 PUSH2 0x48F7 JUMP JUMPDEST PUSH2 0x453B JUMP JUMPDEST SWAP1 POP DUP3 DUP2 MSTORE PUSH1 0x20 DUP2 ADD DUP5 DUP5 DUP5 ADD GT ISZERO PUSH2 0x4966 JUMPI PUSH2 0x4965 PUSH2 0x48F2 JUMP JUMPDEST JUMPDEST PUSH2 0x4971 DUP5 DUP3 DUP6 PUSH2 0x4928 JUMP JUMPDEST POP SWAP4 SWAP3 POP POP POP JUMP JUMPDEST PUSH1 0x0 DUP3 PUSH1 0x1F DUP4 ADD SLT PUSH2 0x498E JUMPI PUSH2 0x498D PUSH2 0x44D6 JUMP JUMPDEST JUMPDEST DUP2 CALLDATALOAD PUSH2 0x499E DUP5 DUP3 PUSH1 0x20 DUP7 ADD PUSH2 0x4937 JUMP JUMPDEST SWAP2 POP POP SWAP3 SWAP2 POP POP JUMP JUMPDEST PUSH1 0x0 DUP1 PUSH1 0x0 DUP1 PUSH1 0x80 DUP6 DUP8 SUB SLT ISZERO PUSH2 0x49C1 JUMPI PUSH2 0x49C0 PUSH2 0x40EA JUMP JUMPDEST JUMPDEST PUSH1 0x0 PUSH2 0x49CF DUP8 DUP3 DUP9 ADD PUSH2 0x4173 JUMP JUMPDEST SWAP5 POP POP PUSH1 0x20 PUSH2 0x49E0 DUP8 DUP3 DUP9 ADD PUSH2 0x4173 JUMP JUMPDEST SWAP4 POP POP PUSH1 0x40 PUSH2 0x49F1 DUP8 DUP3 DUP9 ADD PUSH2 0x4115 JUMP JUMPDEST SWAP3 POP POP PUSH1 0x60 DUP6 ADD CALLDATALOAD PUSH8 0xFFFFFFFFFFFFFFFF DUP2 GT ISZERO PUSH2 0x4A12 JUMPI PUSH2 0x4A11 PUSH2 0x40EF JUMP JUMPDEST JUMPDEST PUSH2 0x4A1E DUP8 DUP3 DUP9 ADD PUSH2 0x4979 JUMP JUMPDEST SWAP2 POP POP SWAP3 SWAP6 SWAP2 SWAP5 POP SWAP3 POP JUMP JUMPDEST PUSH1 0x0 PUSH8 0xFFFFFFFFFFFFFFFF DUP3 GT ISZERO PUSH2 0x4A45 JUMPI PUSH2 0x4A44 PUSH2 0x44DB JUMP JUMPDEST JUMPDEST PUSH1 0x20 DUP3 MUL SWAP1 POP PUSH1 0x20 DUP2 ADD SWAP1 POP SWAP2 SWAP1 POP JUMP JUMPDEST PUSH1 0x0 DUP1 REVERT JUMPDEST PUSH1 0x0 PUSH1 0x40 DUP3 DUP5 SUB SLT ISZERO PUSH2 0x4A71 JUMPI PUSH2 0x4A70 PUSH2 0x4A56 JUMP JUMPDEST JUMPDEST PUSH2 0x4A7B PUSH1 0x40 PUSH2 0x453B JUMP JUMPDEST SWAP1 POP PUSH1 0x0 PUSH2 0x4A8B DUP5 DUP3 DUP6 ADD PUSH2 0x4173 JUMP JUMPDEST PUSH1 0x0 DUP4 ADD MSTORE POP PUSH1 0x20 PUSH2 0x4A9F DUP5 DUP3 DUP6 ADD PUSH2 0x4115 JUMP JUMPDEST PUSH1 0x20 DUP4 ADD MSTORE POP SWAP3 SWAP2 POP POP JUMP JUMPDEST PUSH1 0x0 PUSH2 0x4ABE PUSH2 0x4AB9 DUP5 PUSH2 0x4A2A JUMP JUMPDEST PUSH2 0x453B JUMP JUMPDEST SWAP1 POP DUP1 DUP4 DUP3 MSTORE PUSH1 0x20 DUP3 ADD SWAP1 POP PUSH1 0x40 DUP5 MUL DUP4 ADD DUP6 DUP2 GT ISZERO PUSH2 0x4AE1 JUMPI PUSH2 0x4AE0 PUSH2 0x4582 JUMP JUMPDEST JUMPDEST DUP4 JUMPDEST DUP2 DUP2 LT ISZERO PUSH2 0x4B0A JUMPI DUP1 PUSH2 0x4AF6 DUP9 DUP3 PUSH2 0x4A5B JUMP JUMPDEST DUP5 MSTORE PUSH1 0x20 DUP5 ADD SWAP4 POP POP PUSH1 0x40 DUP2 ADD SWAP1 POP PUSH2 0x4AE3 JUMP JUMPDEST POP POP POP SWAP4 SWAP3 POP POP POP JUMP JUMPDEST PUSH1 0x0 DUP3 PUSH1 0x1F DUP4 ADD SLT PUSH2 0x4B29 JUMPI PUSH2 0x4B28 PUSH2 0x44D6 JUMP JUMPDEST JUMPDEST DUP2 CALLDATALOAD PUSH2 0x4B39 DUP5 DUP3 PUSH1 0x20 DUP7 ADD PUSH2 0x4AAB JUMP JUMPDEST SWAP2 POP POP SWAP3 SWAP2 POP POP JUMP JUMPDEST PUSH1 0x0 PUSH1 0x20 DUP3 DUP5 SUB SLT ISZERO PUSH2 0x4B58 JUMPI PUSH2 0x4B57 PUSH2 0x40EA JUMP JUMPDEST JUMPDEST PUSH1 0x0 DUP3 ADD CALLDATALOAD PUSH8 0xFFFFFFFFFFFFFFFF DUP2 GT ISZERO PUSH2 0x4B76 JUMPI PUSH2 0x4B75 PUSH2 0x40EF JUMP JUMPDEST JUMPDEST PUSH2 0x4B82 DUP5 DUP3 DUP6 ADD PUSH2 0x4B14 JUMP JUMPDEST SWAP2 POP POP SWAP3 SWAP2 POP POP JUMP JUMPDEST PUSH1 0x0 PUSH8 0xFFFFFFFFFFFFFFFF DUP3 GT ISZERO PUSH2 0x4BA6 JUMPI PUSH2 0x4BA5 PUSH2 0x44DB JUMP JUMPDEST JUMPDEST PUSH2 0x4BAF DUP3 PUSH2 0x4320 JUMP JUMPDEST SWAP1 POP PUSH1 0x20 DUP2 ADD SWAP1 POP SWAP2 SWAP1 POP JUMP JUMPDEST PUSH1 0x0 PUSH2 0x4BCF PUSH2 0x4BCA DUP5 PUSH2 0x4B8B JUMP JUMPDEST PUSH2 0x453B JUMP JUMPDEST SWAP1 POP DUP3 DUP2 MSTORE PUSH1 0x20 DUP2 ADD DUP5 DUP5 DUP5 ADD GT ISZERO PUSH2 0x4BEB JUMPI PUSH2 0x4BEA PUSH2 0x48F2 JUMP JUMPDEST JUMPDEST PUSH2 0x4BF6 DUP5 DUP3 DUP6 PUSH2 0x4928 JUMP JUMPDEST POP SWAP4 SWAP3 POP POP POP JUMP JUMPDEST PUSH1 0x0 DUP3 PUSH1 0x1F DUP4 ADD SLT PUSH2 0x4C13 JUMPI PUSH2 0x4C12 PUSH2 0x44D6 JUMP JUMPDEST JUMPDEST DUP2 CALLDATALOAD PUSH2 0x4C23 DUP5 DUP3 PUSH1 0x20 DUP7 ADD PUSH2 0x4BBC JUMP JUMPDEST SWAP2 POP POP SWAP3 SWAP2 POP POP JUMP JUMPDEST PUSH1 0x0 PUSH1 0x20 DUP3 DUP5 SUB SLT ISZERO PUSH2 0x4C42 JUMPI PUSH2 0x4C41 PUSH2 0x40EA JUMP JUMPDEST JUMPDEST PUSH1 0x0 DUP3 ADD CALLDATALOAD PUSH8 0xFFFFFFFFFFFFFFFF DUP2 GT ISZERO PUSH2 0x4C60 JUMPI PUSH2 0x4C5F PUSH2 0x40EF JUMP JUMPDEST JUMPDEST PUSH2 0x4C6C DUP5 DUP3 DUP6 ADD PUSH2 0x4BFE JUMP JUMPDEST SWAP2 POP POP SWAP3 SWAP2 POP POP JUMP JUMPDEST PUSH1 0x0 DUP1 PUSH1 0x40 DUP4 DUP6 SUB SLT ISZERO PUSH2 0x4C8C JUMPI PUSH2 0x4C8B PUSH2 0x40EA JUMP JUMPDEST JUMPDEST PUSH1 0x0 PUSH2 0x4C9A DUP6 DUP3 DUP7 ADD PUSH2 0x4173 JUMP JUMPDEST SWAP3 POP POP PUSH1 0x20 PUSH2 0x4CAB DUP6 DUP3 DUP7 ADD PUSH2 0x4173 JUMP JUMPDEST SWAP2 POP POP SWAP3 POP SWAP3 SWAP1 POP JUMP JUMPDEST PUSH32 0x4F47206D696E74206973206E6F74206F70656E00000000000000000000000000 PUSH1 0x0 DUP3 ADD MSTORE POP JUMP JUMPDEST PUSH1 0x0 PUSH2 0x4CEB PUSH1 0x13 DUP4 PUSH2 0x42E5 JUMP JUMPDEST SWAP2 POP PUSH2 0x4CF6 DUP3 PUSH2 0x4CB5 JUMP JUMPDEST PUSH1 0x20 DUP3 ADD SWAP1 POP SWAP2 SWAP1 POP JUMP JUMPDEST PUSH1 0x0 PUSH1 0x20 DUP3 ADD SWAP1 POP DUP2 DUP2 SUB PUSH1 0x0 DUP4 ADD MSTORE PUSH2 0x4D1A DUP2 PUSH2 0x4CDE JUMP JUMPDEST SWAP1 POP SWAP2 SWAP1 POP JUMP JUMPDEST PUSH32 0x4E487B7100000000000000000000000000000000000000000000000000000000 PUSH1 0x0 MSTORE PUSH1 0x11 PUSH1 0x4 MSTORE PUSH1 0x24 PUSH1 0x0 REVERT JUMPDEST PUSH1 0x0 PUSH2 0x4D5B DUP3 PUSH2 0x40F4 JUMP JUMPDEST SWAP2 POP PUSH2 0x4D66 DUP4 PUSH2 0x40F4 JUMP JUMPDEST SWAP3 POP DUP3 DUP3 ADD SWAP1 POP DUP1 DUP3 GT ISZERO PUSH2 0x4D7E JUMPI PUSH2 0x4D7D PUSH2 0x4D21 JUMP JUMPDEST JUMPDEST SWAP3 SWAP2 POP POP JUMP JUMPDEST PUSH32 0x737570706C792065786365656400000000000000000000000000000000000000 PUSH1 0x0 DUP3 ADD MSTORE POP JUMP JUMPDEST PUSH1 0x0 PUSH2 0x4DBA PUSH1 0xD DUP4 PUSH2 0x42E5 JUMP JUMPDEST SWAP2 POP PUSH2 0x4DC5 DUP3 PUSH2 0x4D84 JUMP JUMPDEST PUSH1 0x20 DUP3 ADD SWAP1 POP SWAP2 SWAP1 POP JUMP JUMPDEST PUSH1 0x0 PUSH1 0x20 DUP3 ADD SWAP1 POP DUP2 DUP2 SUB PUSH1 0x0 DUP4 ADD MSTORE PUSH2 0x4DE9 DUP2 PUSH2 0x4DAD JUMP JUMPDEST SWAP1 POP SWAP2 SWAP1 POP JUMP JUMPDEST PUSH32 0x75736572206973206E6F742077686974656C697374656420666F72206F67206D PUSH1 0x0 DUP3 ADD MSTORE PUSH32 0x696E740000000000000000000000000000000000000000000000000000000000 PUSH1 0x20 DUP3 ADD MSTORE POP JUMP JUMPDEST PUSH1 0x0 PUSH2 0x4E4C PUSH1 0x23 DUP4 PUSH2 0x42E5 JUMP JUMPDEST SWAP2 POP PUSH2 0x4E57 DUP3 PUSH2 0x4DF0 JUMP JUMPDEST PUSH1 0x40 DUP3 ADD SWAP1 POP SWAP2 SWAP1 POP JUMP JUMPDEST PUSH1 0x0 PUSH1 0x20 DUP3 ADD SWAP1 POP DUP2 DUP2 SUB PUSH1 0x0 DUP4 ADD MSTORE PUSH2 0x4E7B DUP2 PUSH2 0x4E3F JUMP JUMPDEST SWAP1 POP SWAP2 SWAP1 POP JUMP JUMPDEST PUSH32 0x75736572206D696E74207468657265206E667473000000000000000000000000 PUSH1 0x0 DUP3 ADD MSTORE POP JUMP JUMPDEST PUSH1 0x0 PUSH2 0x4EB8 PUSH1 0x14 DUP4 PUSH2 0x42E5 JUMP JUMPDEST SWAP2 POP PUSH2 0x4EC3 DUP3 PUSH2 0x4E82 JUMP JUMPDEST PUSH1 0x20 DUP3 ADD SWAP1 POP SWAP2 SWAP1 POP JUMP JUMPDEST PUSH1 0x0 PUSH1 0x20 DUP3 ADD SWAP1 POP DUP2 DUP2 SUB PUSH1 0x0 DUP4 ADD MSTORE PUSH2 0x4EE7 DUP2 PUSH2 0x4EAB JUMP JUMPDEST SWAP1 POP SWAP2 SWAP1 POP JUMP JUMPDEST PUSH32 0x657865636564206D696E74206C696D6974000000000000000000000000000000 PUSH1 0x0 DUP3 ADD MSTORE POP JUMP JUMPDEST PUSH1 0x0 PUSH2 0x4F24 PUSH1 0x11 DUP4 PUSH2 0x42E5 JUMP JUMPDEST SWAP2 POP PUSH2 0x4F2F DUP3 PUSH2 0x4EEE JUMP JUMPDEST PUSH1 0x20 DUP3 ADD SWAP1 POP SWAP2 SWAP1 POP JUMP JUMPDEST PUSH1 0x0 PUSH1 0x20 DUP3 ADD SWAP1 POP DUP2 DUP2 SUB PUSH1 0x0 DUP4 ADD MSTORE PUSH2 0x4F53 DUP2 PUSH2 0x4F17 JUMP JUMPDEST SWAP1 POP SWAP2 SWAP1 POP JUMP JUMPDEST PUSH1 0x0 PUSH2 0x4F65 DUP3 PUSH2 0x40F4 JUMP JUMPDEST SWAP2 POP PUSH2 0x4F70 DUP4 PUSH2 0x40F4 JUMP JUMPDEST SWAP3 POP DUP3 DUP3 MUL PUSH2 0x4F7E DUP2 PUSH2 0x40F4 JUMP JUMPDEST SWAP2 POP DUP3 DUP3 DIV DUP5 EQ DUP4 ISZERO OR PUSH2 0x4F95 JUMPI PUSH2 0x4F94 PUSH2 0x4D21 JUMP JUMPDEST JUMPDEST POP SWAP3 SWAP2 POP POP JUMP JUMPDEST PUSH32 0x757365722070617373206C6F77657220616D6F756E7400000000000000000000 PUSH1 0x0 DUP3 ADD MSTORE POP JUMP JUMPDEST PUSH1 0x0 PUSH2 0x4FD2 PUSH1 0x16 DUP4 PUSH2 0x42E5 JUMP JUMPDEST SWAP2 POP PUSH2 0x4FDD DUP3 PUSH2 0x4F9C JUMP JUMPDEST PUSH1 0x20 DUP3 ADD SWAP1 POP SWAP2 SWAP1 POP JUMP JUMPDEST PUSH1 0x0 PUSH1 0x20 DUP3 ADD SWAP1 POP DUP2 DUP2 SUB PUSH1 0x0 DUP4 ADD MSTORE PUSH2 0x5001 DUP2 PUSH2 0x4FC5 JUMP JUMPDEST SWAP1 POP SWAP2 SWAP1 POP JUMP JUMPDEST PUSH1 0x0 PUSH2 0x5013 DUP3 PUSH2 0x40F4 JUMP JUMPDEST SWAP2 POP PUSH32 0xFFFFFFFFFFFFFFFFFFFFFFFFFFFFFFFFFFFFFFFFFFFFFFFFFFFFFFFFFFFFFFFF DUP3 SUB PUSH2 0x5045 JUMPI PUSH2 0x5044 PUSH2 0x4D21 JUMP JUMPDEST JUMPDEST PUSH1 0x1 DUP3 ADD SWAP1 POP SWAP2 SWAP1 POP JUMP JUMPDEST PUSH32 0x4574686572207472616E73666572206661696C65642E00000000000000000000 PUSH1 0x0 DUP3 ADD MSTORE POP JUMP JUMPDEST PUSH1 0x0 PUSH2 0x5086 PUSH1 0x16 DUP4 PUSH2 0x42E5 JUMP JUMPDEST SWAP2 POP PUSH2 0x5091 DUP3 PUSH2 0x5050 JUMP JUMPDEST PUSH1 0x20 DUP3 ADD SWAP1 POP SWAP2 SWAP1 POP JUMP JUMPDEST PUSH1 0x0 PUSH1 0x20 DUP3 ADD SWAP1 POP DUP2 DUP2 SUB PUSH1 0x0 DUP4 ADD MSTORE PUSH2 0x50B5 DUP2 PUSH2 0x5079 JUMP JUMPDEST SWAP1 POP SWAP2 SWAP1 POP JUMP JUMPDEST PUSH32 0x4E487B7100000000000000000000000000000000000000000000000000000000 PUSH1 0x0 MSTORE PUSH1 0x22 PUSH1 0x4 MSTORE PUSH1 0x24 PUSH1 0x0 REVERT JUMPDEST PUSH1 0x0 PUSH1 0x2 DUP3 DIV SWAP1 POP PUSH1 0x1 DUP3 AND DUP1 PUSH2 0x5103 JUMPI PUSH1 0x7F DUP3 AND SWAP2 POP JUMPDEST PUSH1 0x20 DUP3 LT DUP2 SUB PUSH2 0x5116 JUMPI PUSH2 0x5115 PUSH2 0x50BC JUMP JUMPDEST JUMPDEST POP SWAP2 SWAP1 POP JUMP JUMPDEST PUSH32 0x4552433732313A20617070726F76616C20746F2063757272656E74206F776E65 PUSH1 0x0 DUP3 ADD MSTORE PUSH32 0x7200000000000000000000000000000000000000000000000000000000000000 PUSH1 0x20 DUP3 ADD MSTORE POP JUMP JUMPDEST PUSH1 0x0 PUSH2 0x5178 PUSH1 0x21 DUP4 PUSH2 0x42E5 JUMP JUMPDEST SWAP2 POP PUSH2 0x5183 DUP3 PUSH2 0x511C JUMP JUMPDEST PUSH1 0x40 DUP3 ADD SWAP1 POP SWAP2 SWAP1 POP JUMP JUMPDEST PUSH1 0x0 PUSH1 0x20 DUP3 ADD SWAP1 POP DUP2 DUP2 SUB PUSH1 0x0 DUP4 ADD MSTORE PUSH2 0x51A7 DUP2 PUSH2 0x516B JUMP JUMPDEST SWAP1 POP SWAP2 SWAP1 POP JUMP JUMPDEST PUSH32 0x4552433732313A20617070726F76652063616C6C6572206973206E6F7420746F PUSH1 0x0 DUP3 ADD MSTORE PUSH32 0x6B656E206F776E6572206F7220617070726F76656420666F7220616C6C000000 PUSH1 0x20 DUP3 ADD MSTORE POP JUMP JUMPDEST PUSH1 0x0 PUSH2 0x520A PUSH1 0x3D DUP4 PUSH2 0x42E5 JUMP JUMPDEST SWAP2 POP PUSH2 0x5215 DUP3 PUSH2 0x51AE JUMP JUMPDEST PUSH1 0x40 DUP3 ADD SWAP1 POP SWAP2 SWAP1 POP JUMP JUMPDEST PUSH1 0x0 PUSH1 0x20 DUP3 ADD SWAP1 POP DUP2 DUP2 SUB PUSH1 0x0 DUP4 ADD MSTORE PUSH2 0x5239 DUP2 PUSH2 0x51FD JUMP JUMPDEST SWAP1 POP SWAP2 SWAP1 POP JUMP JUMPDEST PUSH32 0x4552433732313A2063616C6C6572206973206E6F7420746F6B656E206F776E65 PUSH1 0x0 DUP3 ADD MSTORE PUSH32 0x72206F7220617070726F76656400000000000000000000000000000000000000 PUSH1 0x20 DUP3 ADD MSTORE POP JUMP JUMPDEST PUSH1 0x0 PUSH2 0x529C PUSH1 0x2D DUP4 PUSH2 0x42E5 JUMP JUMPDEST SWAP2 POP PUSH2 0x52A7 DUP3 PUSH2 0x5240 JUMP JUMPDEST PUSH1 0x40 DUP3 ADD SWAP1 POP SWAP2 SWAP1 POP JUMP JUMPDEST PUSH1 0x0 PUSH1 0x20 DUP3 ADD SWAP1 POP DUP2 DUP2 SUB PUSH1 0x0 DUP4 ADD MSTORE PUSH2 0x52CB DUP2 PUSH2 0x528F JUMP JUMPDEST SWAP1 POP SWAP2 SWAP1 POP JUMP JUMPDEST PUSH32 0x4E487B7100000000000000000000000000000000000000000000000000000000 PUSH1 0x0 MSTORE PUSH1 0x32 PUSH1 0x4 MSTORE PUSH1 0x24 PUSH1 0x0 REVERT JUMPDEST PUSH32 0x416363657373436F6E74726F6C3A2063616E206F6E6C792072656E6F756E6365 PUSH1 0x0 DUP3 ADD MSTORE PUSH32 0x20726F6C657320666F722073656C660000000000000000000000000000000000 PUSH1 0x20 DUP3 ADD MSTORE POP JUMP JUMPDEST PUSH1 0x0 PUSH2 0x535D PUSH1 0x2F DUP4 PUSH2 0x42E5 JUMP JUMPDEST SWAP2 POP PUSH2 0x5368 DUP3 PUSH2 0x5301 JUMP JUMPDEST PUSH1 0x40 DUP3 ADD SWAP1 POP SWAP2 SWAP1 POP JUMP JUMPDEST PUSH1 0x0 PUSH1 0x20 DUP3 ADD SWAP1 POP DUP2 DUP2 SUB PUSH1 0x0 DUP4 ADD MSTORE PUSH2 0x538C DUP2 PUSH2 0x5350 JUMP JUMPDEST SWAP1 POP SWAP2 SWAP1 POP JUMP JUMPDEST PUSH32 0x5573657220686173206E6F742079657420706169640000000000000000000000 PUSH1 0x0 DUP3 ADD MSTORE POP JUMP JUMPDEST PUSH1 0x0 PUSH2 0x53C9 PUSH1 0x15 DUP4 PUSH2 0x42E5 JUMP JUMPDEST SWAP2 POP PUSH2 0x53D4 DUP3 PUSH2 0x5393 JUMP JUMPDEST PUSH1 0x20 DUP3 ADD SWAP1 POP SWAP2 SWAP1 POP JUMP JUMPDEST PUSH1 0x0 PUSH1 0x20 DUP3 ADD SWAP1 POP DUP2 DUP2 SUB PUSH1 0x0 DUP4 ADD MSTORE PUSH2 0x53F8 DUP2 PUSH2 0x53BC JUMP JUMPDEST SWAP1 POP SWAP2 SWAP1 POP JUMP JUMPDEST PUSH32 0x5075626C6963206D696E74206973206E6F74206F70656E000000000000000000 PUSH1 0x0 DUP3 ADD MSTORE POP JUMP JUMPDEST PUSH1 0x0 PUSH2 0x5435 PUSH1 0x17 DUP4 PUSH2 0x42E5 JUMP JUMPDEST SWAP2 POP PUSH2 0x5440 DUP3 PUSH2 0x53FF JUMP JUMPDEST PUSH1 0x20 DUP3 ADD SWAP1 POP SWAP2 SWAP1 POP JUMP JUMPDEST PUSH1 0x0 PUSH1 0x20 DUP3 ADD SWAP1 POP DUP2 DUP2 SUB PUSH1 0x0 DUP4 ADD MSTORE PUSH2 0x5464 DUP2 PUSH2 0x5428 JUMP JUMPDEST SWAP1 POP SWAP2 SWAP1 POP JUMP JUMPDEST PUSH32 0x7573657220616C7265616479206D696E74207468657265206E66747300000000 PUSH1 0x0 DUP3 ADD MSTORE POP JUMP JUMPDEST PUSH1 0x0 PUSH2 0x54A1 PUSH1 0x1C DUP4 PUSH2 0x42E5 JUMP JUMPDEST SWAP2 POP PUSH2 0x54AC DUP3 PUSH2 0x546B JUMP JUMPDEST PUSH1 0x20 DUP3 ADD SWAP1 POP SWAP2 SWAP1 POP JUMP JUMPDEST PUSH1 0x0 PUSH1 0x20 DUP3 ADD SWAP1 POP DUP2 DUP2 SUB PUSH1 0x0 DUP4 ADD MSTORE PUSH2 0x54D0 DUP2 PUSH2 0x5494 JUMP JUMPDEST SWAP1 POP SWAP2 SWAP1 POP JUMP JUMPDEST PUSH32 0x4552433732313A20696E76616C696420746F6B656E2049440000000000000000 PUSH1 0x0 DUP3 ADD MSTORE POP JUMP JUMPDEST PUSH1 0x0 PUSH2 0x550D PUSH1 0x18 DUP4 PUSH2 0x42E5 JUMP JUMPDEST SWAP2 POP PUSH2 0x5518 DUP3 PUSH2 0x54D7 JUMP JUMPDEST PUSH1 0x20 DUP3 ADD SWAP1 POP SWAP2 SWAP1 POP JUMP JUMPDEST PUSH1 0x0 PUSH1 0x20 DUP3 ADD SWAP1 POP DUP2 DUP2 SUB PUSH1 0x0 DUP4 ADD MSTORE PUSH2 0x553C DUP2 PUSH2 0x5500 JUMP JUMPDEST SWAP1 POP SWAP2 SWAP1 POP JUMP JUMPDEST PUSH32 0x4552433732313A2061646472657373207A65726F206973206E6F742061207661 PUSH1 0x0 DUP3 ADD MSTORE PUSH32 0x6C6964206F776E65720000000000000000000000000000000000000000000000 PUSH1 0x20 DUP3 ADD MSTORE POP JUMP JUMPDEST PUSH1 0x0 PUSH2 0x559F PUSH1 0x29 DUP4 PUSH2 0x42E5 JUMP JUMPDEST SWAP2 POP PUSH2 0x55AA DUP3 PUSH2 0x5543 JUMP JUMPDEST PUSH1 0x40 DUP3 ADD SWAP1 POP SWAP2 SWAP1 POP JUMP JUMPDEST PUSH1 0x0 PUSH1 0x20 DUP3 ADD SWAP1 POP DUP2 DUP2 SUB PUSH1 0x0 DUP4 ADD MSTORE PUSH2 0x55CE DUP2 PUSH2 0x5592 JUMP JUMPDEST SWAP1 POP SWAP2 SWAP1 POP JUMP JUMPDEST PUSH32 0x574C206D696E74206973206E6F74206F70656E00000000000000000000000000 PUSH1 0x0 DUP3 ADD MSTORE POP JUMP JUMPDEST PUSH1 0x0 PUSH2 0x560B PUSH1 0x13 DUP4 PUSH2 0x42E5 JUMP JUMPDEST SWAP2 POP PUSH2 0x5616 DUP3 PUSH2 0x55D5 JUMP JUMPDEST PUSH1 0x20 DUP3 ADD SWAP1 POP SWAP2 SWAP1 POP JUMP JUMPDEST PUSH1 0x0 PUSH1 0x20 DUP3 ADD SWAP1 POP DUP2 DUP2 SUB PUSH1 0x0 DUP4 ADD MSTORE PUSH2 0x563A DUP2 PUSH2 0x55FE JUMP JUMPDEST SWAP1 POP SWAP2 SWAP1 POP JUMP JUMPDEST PUSH32 0x75736572206973206E6F742077686974656C697374656420666F722077686974 PUSH1 0x0 DUP3 ADD MSTORE PUSH32 0x656C6973746564206D696E740000000000000000000000000000000000000000 PUSH1 0x20 DUP3 ADD MSTORE POP JUMP JUMPDEST PUSH1 0x0 PUSH2 0x569D PUSH1 0x2C DUP4 PUSH2 0x42E5 JUMP JUMPDEST SWAP2 POP PUSH2 0x56A8 DUP3 PUSH2 0x5641 JUMP JUMPDEST PUSH1 0x40 DUP3 ADD SWAP1 POP SWAP2 SWAP1 POP JUMP JUMPDEST PUSH1 0x0 PUSH1 0x20 DUP3 ADD SWAP1 POP DUP2 DUP2 SUB PUSH1 0x0 DUP4 ADD MSTORE PUSH2 0x56CC DUP2 PUSH2 0x5690 JUMP JUMPDEST SWAP1 POP SWAP2 SWAP1 POP JUMP JUMPDEST PUSH1 0x0 DUP2 SWAP1 POP DUP2 PUSH1 0x0 MSTORE PUSH1 0x20 PUSH1 0x0 KECCAK256 SWAP1 POP SWAP2 SWAP1 POP JUMP JUMPDEST PUSH1 0x0 PUSH1 0x20 PUSH1 0x1F DUP4 ADD DIV SWAP1 POP SWAP2 SWAP1 POP JUMP JUMPDEST PUSH1 0x0 DUP3 DUP3 SHL SWAP1 POP SWAP3 SWAP2 POP POP JUMP JUMPDEST PUSH1 0x0 PUSH1 0x8 DUP4 MUL PUSH2 0x5735 PUSH32 0xFFFFFFFFFFFFFFFFFFFFFFFFFFFFFFFFFFFFFFFFFFFFFFFFFFFFFFFFFFFFFFFF DUP3 PUSH2 0x56F8 JUMP JUMPDEST PUSH2 0x573F DUP7 DUP4 PUSH2 0x56F8 JUMP JUMPDEST SWAP6 POP DUP1 NOT DUP5 AND SWAP4 POP DUP1 DUP7 AND DUP5 OR SWAP3 POP POP POP SWAP4 SWAP3 POP POP POP JUMP JUMPDEST PUSH1 0x0 DUP2 SWAP1 POP SWAP2 SWAP1 POP JUMP JUMPDEST PUSH1 0x0 PUSH2 0x577C PUSH2 0x5777 PUSH2 0x5772 DUP5 PUSH2 0x40F4 JUMP JUMPDEST PUSH2 0x5757 JUMP JUMPDEST PUSH2 0x40F4 JUMP JUMPDEST SWAP1 POP SWAP2 SWAP1 POP JUMP JUMPDEST PUSH1 0x0 DUP2 SWAP1 POP SWAP2 SWAP1 POP JUMP JUMPDEST PUSH2 0x5796 DUP4 PUSH2 0x5761 JUMP JUMPDEST PUSH2 0x57AA PUSH2 0x57A2 DUP3 PUSH2 0x5783 JUMP JUMPDEST DUP5 DUP5 SLOAD PUSH2 0x5705 JUMP JUMPDEST DUP3 SSTORE POP POP POP POP JUMP JUMPDEST PUSH1 0x0 SWAP1 JUMP JUMPDEST PUSH2 0x57BF PUSH2 0x57B2 JUMP JUMPDEST PUSH2 0x57CA DUP2 DUP5 DUP5 PUSH2 0x578D JUMP JUMPDEST POP POP POP JUMP JUMPDEST JUMPDEST DUP2 DUP2 LT ISZERO PUSH2 0x57EE JUMPI PUSH2 0x57E3 PUSH1 0x0 DUP3 PUSH2 0x57B7 JUMP JUMPDEST PUSH1 0x1 DUP2 ADD SWAP1 POP PUSH2 0x57D0 JUMP JUMPDEST POP POP JUMP JUMPDEST PUSH1 0x1F DUP3 GT ISZERO PUSH2 0x5833 JUMPI PUSH2 0x5804 DUP2 PUSH2 0x56D3 JUMP JUMPDEST PUSH2 0x580D DUP5 PUSH2 0x56E8 JUMP JUMPDEST DUP2 ADD PUSH1 0x20 DUP6 LT ISZERO PUSH2 0x581C JUMPI DUP2 SWAP1 POP JUMPDEST PUSH2 0x5830 PUSH2 0x5828 DUP6 PUSH2 0x56E8 JUMP JUMPDEST DUP4 ADD DUP3 PUSH2 0x57CF JUMP JUMPDEST POP POP JUMPDEST POP POP POP JUMP JUMPDEST PUSH1 0x0 DUP3 DUP3 SHR SWAP1 POP SWAP3 SWAP2 POP POP JUMP JUMPDEST PUSH1 0x0 PUSH2 0x5856 PUSH1 0x0 NOT DUP5 PUSH1 0x8 MUL PUSH2 0x5838 JUMP JUMPDEST NOT DUP1 DUP4 AND SWAP2 POP POP SWAP3 SWAP2 POP POP JUMP JUMPDEST PUSH1 0x0 PUSH2 0x586F DUP4 DUP4 PUSH2 0x5845 JUMP JUMPDEST SWAP2 POP DUP3 PUSH1 0x2 MUL DUP3 OR SWAP1 POP SWAP3 SWAP2 POP POP JUMP JUMPDEST PUSH2 0x5888 DUP3 PUSH2 0x42DA JUMP JUMPDEST PUSH8 0xFFFFFFFFFFFFFFFF DUP2 GT ISZERO PUSH2 0x58A1 JUMPI PUSH2 0x58A0 PUSH2 0x44DB JUMP JUMPDEST JUMPDEST PUSH2 0x58AB DUP3 SLOAD PUSH2 0x50EB JUMP JUMPDEST PUSH2 0x58B6 DUP3 DUP3 DUP6 PUSH2 0x57F2 JUMP JUMPDEST PUSH1 0x0 PUSH1 0x20 SWAP1 POP PUSH1 0x1F DUP4 GT PUSH1 0x1 DUP2 EQ PUSH2 0x58E9 JUMPI PUSH1 0x0 DUP5 ISZERO PUSH2 0x58D7 JUMPI DUP3 DUP8 ADD MLOAD SWAP1 POP JUMPDEST PUSH2 0x58E1 DUP6 DUP3 PUSH2 0x5863 JUMP JUMPDEST DUP7 SSTORE POP PUSH2 0x5949 JUMP JUMPDEST PUSH1 0x1F NOT DUP5 AND PUSH2 0x58F7 DUP7 PUSH2 0x56D3 JUMP JUMPDEST PUSH1 0x0 JUMPDEST DUP3 DUP2 LT ISZERO PUSH2 0x591F JUMPI DUP5 DUP10 ADD MLOAD DUP3 SSTORE PUSH1 0x1 DUP3 ADD SWAP2 POP PUSH1 0x20 DUP6 ADD SWAP5 POP PUSH1 0x20 DUP2 ADD SWAP1 POP PUSH2 0x58FA JUMP JUMPDEST DUP7 DUP4 LT ISZERO PUSH2 0x593C JUMPI DUP5 DUP10 ADD MLOAD PUSH2 0x5938 PUSH1 0x1F DUP10 AND DUP3 PUSH2 0x5845 JUMP JUMPDEST DUP4 SSTORE POP JUMPDEST PUSH1 0x1 PUSH1 0x2 DUP9 MUL ADD DUP9 SSTORE POP POP POP JUMPDEST POP POP POP POP POP POP JUMP JUMPDEST PUSH32 0x4552433732313A206D696E7420746F20746865207A65726F2061646472657373 PUSH1 0x0 DUP3 ADD MSTORE POP JUMP JUMPDEST PUSH1 0x0 PUSH2 0x5987 PUSH1 0x20 DUP4 PUSH2 0x42E5 JUMP JUMPDEST SWAP2 POP PUSH2 0x5992 DUP3 PUSH2 0x5951 JUMP JUMPDEST PUSH1 0x20 DUP3 ADD SWAP1 POP SWAP2 SWAP1 POP JUMP JUMPDEST PUSH1 0x0 PUSH1 0x20 DUP3 ADD SWAP1 POP DUP2 DUP2 SUB PUSH1 0x0 DUP4 ADD MSTORE PUSH2 0x59B6 DUP2 PUSH2 0x597A JUMP JUMPDEST SWAP1 POP SWAP2 SWAP1 POP JUMP JUMPDEST PUSH32 0x4552433732313A20746F6B656E20616C7265616479206D696E74656400000000 PUSH1 0x0 DUP3 ADD MSTORE POP JUMP JUMPDEST PUSH1 0x0 PUSH2 0x59F3 PUSH1 0x1C DUP4 PUSH2 0x42E5 JUMP JUMPDEST SWAP2 POP PUSH2 0x59FE DUP3 PUSH2 0x59BD JUMP JUMPDEST PUSH1 0x20 DUP3 ADD SWAP1 POP SWAP2 SWAP1 POP JUMP JUMPDEST PUSH1 0x0 PUSH1 0x20 DUP3 ADD SWAP1 POP DUP2 DUP2 SUB PUSH1 0x0 DUP4 ADD MSTORE PUSH2 0x5A22 DUP2 PUSH2 0x59E6 JUMP JUMPDEST SWAP1 POP SWAP2 SWAP1 POP JUMP JUMPDEST PUSH1 0x0 DUP2 SWAP1 POP SWAP3 SWAP2 POP POP JUMP JUMPDEST PUSH1 0x0 DUP2 SLOAD PUSH2 0x5A41 DUP2 PUSH2 0x50EB JUMP JUMPDEST PUSH2 0x5A4B DUP2 DUP7 PUSH2 0x5A29 JUMP JUMPDEST SWAP5 POP PUSH1 0x1 DUP3 AND PUSH1 0x0 DUP2 EQ PUSH2 0x5A66 JUMPI PUSH1 0x1 DUP2 EQ PUSH2 0x5A7B JUMPI PUSH2 0x5AAE JUMP JUMPDEST PUSH1 0xFF NOT DUP4 AND DUP7 MSTORE DUP2 ISZERO ISZERO DUP3 MUL DUP7 ADD SWAP4 POP PUSH2 0x5AAE JUMP JUMPDEST PUSH2 0x5A84 DUP6 PUSH2 0x56D3 JUMP JUMPDEST PUSH1 0x0 JUMPDEST DUP4 DUP2 LT ISZERO PUSH2 0x5AA6 JUMPI DUP2 SLOAD DUP2 DUP10 ADD MSTORE PUSH1 0x1 DUP3 ADD SWAP2 POP PUSH1 0x20 DUP2 ADD SWAP1 POP PUSH2 0x5A87 JUMP JUMPDEST DUP4 DUP9 ADD SWAP6 POP POP POP JUMPDEST POP POP POP SWAP3 SWAP2 POP POP JUMP JUMPDEST PUSH1 0x0 PUSH2 0x5AC2 DUP3 PUSH2 0x42DA JUMP JUMPDEST PUSH2 0x5ACC DUP2 DUP6 PUSH2 0x5A29 JUMP JUMPDEST SWAP4 POP PUSH2 0x5ADC DUP2 DUP6 PUSH1 0x20 DUP7 ADD PUSH2 0x42F6 JUMP JUMPDEST DUP1 DUP5 ADD SWAP2 POP POP SWAP3 SWAP2 POP POP JUMP JUMPDEST PUSH32 0x2E6A736F6E000000000000000000000000000000000000000000000000000000 PUSH1 0x0 DUP3 ADD MSTORE POP JUMP JUMPDEST PUSH1 0x0 PUSH2 0x5B1E PUSH1 0x5 DUP4 PUSH2 0x5A29 JUMP JUMPDEST SWAP2 POP PUSH2 0x5B29 DUP3 PUSH2 0x5AE8 JUMP JUMPDEST PUSH1 0x5 DUP3 ADD SWAP1 POP SWAP2 SWAP1 POP JUMP JUMPDEST PUSH1 0x0 PUSH2 0x5B40 DUP3 DUP6 PUSH2 0x5A34 JUMP JUMPDEST SWAP2 POP PUSH2 0x5B4C DUP3 DUP5 PUSH2 0x5AB7 JUMP JUMPDEST SWAP2 POP PUSH2 0x5B57 DUP3 PUSH2 0x5B11 JUMP JUMPDEST SWAP2 POP DUP2 SWAP1 POP SWAP4 SWAP3 POP POP POP JUMP JUMPDEST PUSH32 0x45524337323155524953746F726167653A2055524920736574206F66206E6F6E PUSH1 0x0 DUP3 ADD MSTORE PUSH32 0x6578697374656E7420746F6B656E000000000000000000000000000000000000 PUSH1 0x20 DUP3 ADD MSTORE POP JUMP JUMPDEST PUSH1 0x0 PUSH2 0x5BBF PUSH1 0x2E DUP4 PUSH2 0x42E5 JUMP JUMPDEST SWAP2 POP PUSH2 0x5BCA DUP3 PUSH2 0x5B63 JUMP JUMPDEST PUSH1 0x40 DUP3 ADD SWAP1 POP SWAP2 SWAP1 POP JUMP JUMPDEST PUSH1 0x0 PUSH1 0x20 DUP3 ADD SWAP1 POP DUP2 DUP2 SUB PUSH1 0x0 DUP4 ADD MSTORE PUSH2 0x5BEE DUP2 PUSH2 0x5BB2 JUMP JUMPDEST SWAP1 POP SWAP2 SWAP1 POP JUMP JUMPDEST PUSH32 0x4552433732313A207472616E736665722066726F6D20696E636F727265637420 PUSH1 0x0 DUP3 ADD MSTORE PUSH32 0x6F776E6572000000000000000000000000000000000000000000000000000000 PUSH1 0x20 DUP3 ADD MSTORE POP JUMP JUMPDEST PUSH1 0x0 PUSH2 0x5C51 PUSH1 0x25 DUP4 PUSH2 0x42E5 JUMP JUMPDEST SWAP2 POP PUSH2 0x5C5C DUP3 PUSH2 0x5BF5 JUMP JUMPDEST PUSH1 0x40 DUP3 ADD SWAP1 POP SWAP2 SWAP1 POP JUMP JUMPDEST PUSH1 0x0 PUSH1 0x20 DUP3 ADD SWAP1 POP DUP2 DUP2 SUB PUSH1 0x0 DUP4 ADD MSTORE PUSH2 0x5C80 DUP2 PUSH2 0x5C44 JUMP JUMPDEST SWAP1 POP SWAP2 SWAP1 POP JUMP JUMPDEST PUSH32 0x4552433732313A207472616E7366657220746F20746865207A65726F20616464 PUSH1 0x0 DUP3 ADD MSTORE PUSH32 0x7265737300000000000000000000000000000000000000000000000000000000 PUSH1 0x20 DUP3 ADD MSTORE POP JUMP JUMPDEST PUSH1 0x0 PUSH2 0x5CE3 PUSH1 0x24 DUP4 PUSH2 0x42E5 JUMP JUMPDEST SWAP2 POP PUSH2 0x5CEE DUP3 PUSH2 0x5C87 JUMP JUMPDEST PUSH1 0x40 DUP3 ADD SWAP1 POP SWAP2 SWAP1 POP JUMP JUMPDEST PUSH1 0x0 PUSH1 0x20 DUP3 ADD SWAP1 POP DUP2 DUP2 SUB PUSH1 0x0 DUP4 ADD MSTORE PUSH2 0x5D12 DUP2 PUSH2 0x5CD6 JUMP JUMPDEST SWAP1 POP SWAP2 SWAP1 POP JUMP JUMPDEST PUSH32 0x4552433732313A20617070726F766520746F2063616C6C657200000000000000 PUSH1 0x0 DUP3 ADD MSTORE POP JUMP JUMPDEST PUSH1 0x0 PUSH2 0x5D4F PUSH1 0x19 DUP4 PUSH2 0x42E5 JUMP JUMPDEST SWAP2 POP PUSH2 0x5D5A DUP3 PUSH2 0x5D19 JUMP JUMPDEST PUSH1 0x20 DUP3 ADD SWAP1 POP SWAP2 SWAP1 POP JUMP JUMPDEST PUSH1 0x0 PUSH1 0x20 DUP3 ADD SWAP1 POP DUP2 DUP2 SUB PUSH1 0x0 DUP4 ADD MSTORE PUSH2 0x5D7E DUP2 PUSH2 0x5D42 JUMP JUMPDEST SWAP1 POP SWAP2 SWAP1 POP JUMP JUMPDEST PUSH32 0x4552433732313A207472616E7366657220746F206E6F6E204552433732315265 PUSH1 0x0 DUP3 ADD MSTORE PUSH32 0x63656976657220696D706C656D656E7465720000000000000000000000000000 PUSH1 0x20 DUP3 ADD MSTORE POP JUMP JUMPDEST PUSH1 0x0 PUSH2 0x5DE1 PUSH1 0x32 DUP4 PUSH2 0x42E5 JUMP JUMPDEST SWAP2 POP PUSH2 0x5DEC DUP3 PUSH2 0x5D85 JUMP JUMPDEST PUSH1 0x40 DUP3 ADD SWAP1 POP SWAP2 SWAP1 POP JUMP JUMPDEST PUSH1 0x0 PUSH1 0x20 DUP3 ADD SWAP1 POP DUP2 DUP2 SUB PUSH1 0x0 DUP4 ADD MSTORE PUSH2 0x5E10 DUP2 PUSH2 0x5DD4 JUMP JUMPDEST SWAP1 POP SWAP2 SWAP1 POP JUMP JUMPDEST PUSH1 0x0 PUSH2 0x5E22 DUP3 PUSH2 0x40F4 JUMP JUMPDEST SWAP2 POP PUSH2 0x5E2D DUP4 PUSH2 0x40F4 JUMP JUMPDEST SWAP3 POP DUP3 DUP3 SUB SWAP1 POP DUP2 DUP2 GT ISZERO PUSH2 0x5E45 JUMPI PUSH2 0x5E44 PUSH2 0x4D21 JUMP JUMPDEST JUMPDEST SWAP3 SWAP2 POP POP JUMP JUMPDEST PUSH32 0x4E487B7100000000000000000000000000000000000000000000000000000000 PUSH1 0x0 MSTORE PUSH1 0x12 PUSH1 0x4 MSTORE PUSH1 0x24 PUSH1 0x0 REVERT JUMPDEST PUSH32 0x416363657373436F6E74726F6C3A206163636F756E7420000000000000000000 PUSH1 0x0 DUP3 ADD MSTORE POP JUMP JUMPDEST PUSH1 0x0 PUSH2 0x5EB0 PUSH1 0x17 DUP4 PUSH2 0x5A29 JUMP JUMPDEST SWAP2 POP PUSH2 0x5EBB DUP3 PUSH2 0x5E7A JUMP JUMPDEST PUSH1 0x17 DUP3 ADD SWAP1 POP SWAP2 SWAP1 POP JUMP JUMPDEST PUSH32 0x206973206D697373696E6720726F6C6520000000000000000000000000000000 PUSH1 0x0 DUP3 ADD MSTORE POP JUMP JUMPDEST PUSH1 0x0 PUSH2 0x5EFC PUSH1 0x11 DUP4 PUSH2 0x5A29 JUMP JUMPDEST SWAP2 POP PUSH2 0x5F07 DUP3 PUSH2 0x5EC6 JUMP JUMPDEST PUSH1 0x11 DUP3 ADD SWAP1 POP SWAP2 SWAP1 POP JUMP JUMPDEST PUSH1 0x0 PUSH2 0x5F1D DUP3 PUSH2 0x5EA3 JUMP JUMPDEST SWAP2 POP PUSH2 0x5F29 DUP3 DUP6 PUSH2 0x5AB7 JUMP JUMPDEST SWAP2 POP PUSH2 0x5F34 DUP3 PUSH2 0x5EEF JUMP JUMPDEST SWAP2 POP PUSH2 0x5F40 DUP3 DUP5 PUSH2 0x5AB7 JUMP JUMPDEST SWAP2 POP DUP2 SWAP1 POP SWAP4 SWAP3 POP POP POP JUMP JUMPDEST PUSH1 0x0 DUP2 MLOAD SWAP1 POP SWAP2 SWAP1 POP JUMP JUMPDEST PUSH1 0x0 DUP3 DUP3 MSTORE PUSH1 0x20 DUP3 ADD SWAP1 POP SWAP3 SWAP2 POP POP JUMP JUMPDEST PUSH1 0x0 PUSH2 0x5F73 DUP3 PUSH2 0x5F4C JUMP JUMPDEST PUSH2 0x5F7D DUP2 DUP6 PUSH2 0x5F57 JUMP JUMPDEST SWAP4 POP PUSH2 0x5F8D DUP2 DUP6 PUSH1 0x20 DUP7 ADD PUSH2 0x42F6 JUMP JUMPDEST PUSH2 0x5F96 DUP2 PUSH2 0x4320 JUMP JUMPDEST DUP5 ADD SWAP2 POP POP SWAP3 SWAP2 POP POP JUMP JUMPDEST PUSH1 0x0 PUSH1 0x80 DUP3 ADD SWAP1 POP PUSH2 0x5FB6 PUSH1 0x0 DUP4 ADD DUP8 PUSH2 0x438C JUMP JUMPDEST PUSH2 0x5FC3 PUSH1 0x20 DUP4 ADD DUP7 PUSH2 0x438C JUMP JUMPDEST PUSH2 0x5FD0 PUSH1 0x40 DUP4 ADD DUP6 PUSH2 0x42B0 JUMP JUMPDEST DUP2 DUP2 SUB PUSH1 0x60 DUP4 ADD MSTORE PUSH2 0x5FE2 DUP2 DUP5 PUSH2 0x5F68 JUMP JUMPDEST SWAP1 POP SWAP6 SWAP5 POP POP POP POP POP JUMP JUMPDEST PUSH1 0x0 DUP2 MLOAD SWAP1 POP PUSH2 0x5FFC DUP2 PUSH2 0x41F4 JUMP JUMPDEST SWAP3 SWAP2 POP POP JUMP JUMPDEST PUSH1 0x0 PUSH1 0x20 DUP3 DUP5 SUB SLT ISZERO PUSH2 0x6018 JUMPI PUSH2 0x6017 PUSH2 0x40EA JUMP JUMPDEST JUMPDEST PUSH1 0x0 PUSH2 0x6026 DUP5 DUP3 DUP6 ADD PUSH2 0x5FED JUMP JUMPDEST SWAP2 POP POP SWAP3 SWAP2 POP POP JUMP JUMPDEST PUSH1 0x0 PUSH2 0x603A DUP3 PUSH2 0x40F4 JUMP JUMPDEST SWAP2 POP PUSH1 0x0 DUP3 SUB PUSH2 0x604D JUMPI PUSH2 0x604C PUSH2 0x4D21 JUMP JUMPDEST JUMPDEST PUSH1 0x1 DUP3 SUB SWAP1 POP SWAP2 SWAP1 POP JUMP JUMPDEST PUSH32 0x537472696E67733A20686578206C656E67746820696E73756666696369656E74 PUSH1 0x0 DUP3 ADD MSTORE POP JUMP JUMPDEST PUSH1 0x0 PUSH2 0x608E PUSH1 0x20 DUP4 PUSH2 0x42E5 JUMP JUMPDEST SWAP2 POP PUSH2 0x6099 DUP3 PUSH2 0x6058 JUMP JUMPDEST PUSH1 0x20 DUP3 ADD SWAP1 POP SWAP2 SWAP1 POP JUMP JUMPDEST PUSH1 0x0 PUSH1 0x20 DUP3 ADD SWAP1 POP DUP2 DUP2 SUB PUSH1 0x0 DUP4 ADD MSTORE PUSH2 0x60BD DUP2 PUSH2 0x6081 JUMP JUMPDEST SWAP1 POP SWAP2 SWAP1 POP JUMP INVALID LOG2 PUSH5 0x6970667358 0x22 SLT KECCAK256 DUP12 0xCB INVALID 0x4A 0x2D 0xB3 0x4E MUL 0xE0 PUSH32 0x95EE97AE90007026676FA259CCC00D2386596ADACA2E64736F6C634300081300 CALLER PUSH9 0x747470733A2F2F6970 PUSH7 0x732E696F2F6970 PUSH7 0x732F6261667962 PUSH6 0x69676B723573 CALLER CALLDATALOAD PUSH17 0x6F696E6B69713569646372796366657975 PUSH19 0x7779777770787A72617A667332376565327536 PUSH13 0x65366D777A6D2F6A736F6E2F00 "},"methodIdentifiers":{"DEFAULT_ADMIN_ROLE()":"a217fddf","MINTER_ROLE()":"d5391393","OGMint(uint256,address)":"00163289","OG_user_addresses(address)":"a50dcc62","Og_minted_address(address)":"a10de022","PAUSER_ROLE()":"e63ab1e9","WL_user_addresses(address)":"37ad286a","amount_paid(address)":"33190f70","approve(address,uint256)":"095ea7b3","balanceOf(address)":"70a08231","base_url()":"33a1bb26","getApproved(uint256)":"081812fc","getRoleAdmin(bytes32)":"248a9ca3","grantRole(bytes32,address)":"2f2ff15d","hasRole(bytes32,address)":"91d14854","has_paid(address)":"d3fc8cdf","isApprovedForAll(address,address)":"e985e9c5","mintOG_Limit()":"9b4140ca","mintOG_price()":"23297f50","mintPublic_Limit()":"81942b68","mintPublic_price()":"bf9e4a86","mintWL_Limit()":"86d77fd4","mintWL_price()":"e1497a55","name()":"06fdde03","noOfEntry()":"144bee42","ownerOf(uint256)":"6352211e","paused()":"5c975abb","presaleMint((address,uint256)[])":"be14b0b7","publicMint(uint256,address)":"41a38e7f","public_minted_address(address)":"eda1d5e9","renounceRole(bytes32,address)":"36568abe","resetNoOfEntry(uint256)":"039122f3","revokeRole(bytes32,address)":"d547741f","safeTransferFrom(address,address,uint256)":"42842e0e","safeTransferFrom(address,address,uint256,bytes)":"b88d4fde","sequence(uint256)":"711e3215","sequence_tokenId(uint256)":"b92dee70","setApprovalForAll(address,bool)":"a22cb465","setBaseUrl(string)":"c7c3268b","setMintLimit(uint256,uint256,uint256)":"7192e111","setMintPrice(uint256,uint256,uint256)":"319948ba","setMintSupply(uint256)":"ac568e84","setMintType(bool,bool,bool)":"4e6a2690","setOgWhiteList(address[])":"637dd2fc","setOldSequence(uint256[])":"2a2308de","setSequence(uint256[])":"e62f49c9","setTreasuryWallet(address)":"a8602fea","setWLWhiteList(address[])":"93e0cdf2","supply()":"047fc9aa","supportsInterface(bytes4)":"01ffc9a7","symbol()":"95d89b41","tokenURI(uint256)":"c87b56dd","totalSupply()":"18160ddd","transferFrom(address,address,uint256)":"23b872dd","treasury()":"61d027b3","treasuryMint(uint256)":"efdc7788","withdraw()":"3ccfd60b","withdrawAdmin()":"04c76af0","wlMint(uint256,address)":"b690caca","wl_minted_address(address)":"abe853e3"}}}}}