{
  "_format": "hh-sol-artifact-1",
  "contractName": "Thumbs",
  "sourceName": "contracts/Thumbs.sol",
  "abi": [
    {
      "inputs": [
        {
          "internalType": "address",
          "name": "minter",
          "type": "address"
        }
      ],
      "stateMutability": "nonpayable",
      "type": "constructor"
    },
    {
      "inputs": [
        {
          "internalType": "uint256",
          "name": "_token",
          "type": "uint256"
        }
      ],
      "name": "tokenExist",
      "type": "error"
    },
    {
      "anonymous": false,
      "inputs": [
        {
          "indexed": true,
          "internalType": "address",
          "name": "owner",
          "type": "address"
        },
        {
          "indexed": true,
          "internalType": "address",
          "name": "approved",
          "type": "address"
        },
        {
          "indexed": true,
          "internalType": "uint256",
          "name": "tokenId",
          "type": "uint256"
        }
      ],
      "name": "Approval",
      "type": "event"
    },
    {
      "anonymous": false,
      "inputs": [
        {
          "indexed": true,
          "internalType": "address",
          "name": "owner",
          "type": "address"
        },
        {
          "indexed": true,
          "internalType": "address",
          "name": "operator",
          "type": "address"
        },
        {
          "indexed": false,
          "internalType": "bool",
          "name": "approved",
          "type": "bool"
        }
      ],
      "name": "ApprovalForAll",
      "type": "event"
    },
    {
      "anonymous": false,
      "inputs": [
        {
          "indexed": false,
          "internalType": "uint256",
          "name": "_fromTokenId",
          "type": "uint256"
        },
        {
          "indexed": false,
          "internalType": "uint256",
          "name": "_toTokenId",
          "type": "uint256"
        }
      ],
      "name": "BatchMetadataUpdate",
      "type": "event"
    },
    {
      "anonymous": false,
      "inputs": [
        {
          "indexed": false,
          "internalType": "uint256",
          "name": "_tokenId",
          "type": "uint256"
        }
      ],
      "name": "MetadataUpdate",
      "type": "event"
    },
    {
      "anonymous": false,
      "inputs": [
        {
          "indexed": false,
          "internalType": "address",
          "name": "account",
          "type": "address"
        }
      ],
      "name": "Paused",
      "type": "event"
    },
    {
      "anonymous": false,
      "inputs": [
        {
          "indexed": true,
          "internalType": "bytes32",
          "name": "role",
          "type": "bytes32"
        },
        {
          "indexed": true,
          "internalType": "bytes32",
          "name": "previousAdminRole",
          "type": "bytes32"
        },
        {
          "indexed": true,
          "internalType": "bytes32",
          "name": "newAdminRole",
          "type": "bytes32"
        }
      ],
      "name": "RoleAdminChanged",
      "type": "event"
    },
    {
      "anonymous": false,
      "inputs": [
        {
          "indexed": true,
          "internalType": "bytes32",
          "name": "role",
          "type": "bytes32"
        },
        {
          "indexed": true,
          "internalType": "address",
          "name": "account",
          "type": "address"
        },
        {
          "indexed": true,
          "internalType": "address",
          "name": "sender",
          "type": "address"
        }
      ],
      "name": "RoleGranted",
      "type": "event"
    },
    {
      "anonymous": false,
      "inputs": [
        {
          "indexed": true,
          "internalType": "bytes32",
          "name": "role",
          "type": "bytes32"
        },
        {
          "indexed": true,
          "internalType": "address",
          "name": "account",
          "type": "address"
        },
        {
          "indexed": true,
          "internalType": "address",
          "name": "sender",
          "type": "address"
        }
      ],
      "name": "RoleRevoked",
      "type": "event"
    },
    {
      "anonymous": false,
      "inputs": [
        {
          "indexed": true,
          "internalType": "address",
          "name": "from",
          "type": "address"
        },
        {
          "indexed": true,
          "internalType": "address",
          "name": "to",
          "type": "address"
        },
        {
          "indexed": true,
          "internalType": "uint256",
          "name": "tokenId",
          "type": "uint256"
        }
      ],
      "name": "Transfer",
      "type": "event"
    },
    {
      "anonymous": false,
      "inputs": [
        {
          "indexed": false,
          "internalType": "address",
          "name": "account",
          "type": "address"
        }
      ],
      "name": "Unpaused",
      "type": "event"
    },
    {
      "anonymous": false,
      "inputs": [
        {
          "indexed": true,
          "internalType": "address",
          "name": "_user",
          "type": "address"
        },
        {
          "indexed": true,
          "internalType": "uint256",
          "name": "amount",
          "type": "uint256"
        }
      ],
      "name": "UserPaid",
      "type": "event"
    },
    {
      "inputs": [],
      "name": "DEFAULT_ADMIN_ROLE",
      "outputs": [
        {
          "internalType": "bytes32",
          "name": "",
          "type": "bytes32"
        }
      ],
      "stateMutability": "view",
      "type": "function"
    },
    {
      "inputs": [],
      "name": "MINTER_ROLE",
      "outputs": [
        {
          "internalType": "bytes32",
          "name": "",
          "type": "bytes32"
        }
      ],
      "stateMutability": "view",
      "type": "function"
    },
    {
      "inputs": [
        {
          "internalType": "uint256",
          "name": "_amount",
          "type": "uint256"
        },
        {
          "internalType": "address",
          "name": "_user",
          "type": "address"
        }
      ],
      "name": "OGMint",
      "outputs": [],
      "stateMutability": "payable",
      "type": "function"
    },
    {
      "inputs": [
        {
          "internalType": "address",
          "name": "",
          "type": "address"
        }
      ],
      "name": "OG_user_addresses",
      "outputs": [
        {
          "internalType": "bool",
          "name": "",
          "type": "bool"
        }
      ],
      "stateMutability": "view",
      "type": "function"
    },
    {
      "inputs": [
        {
          "internalType": "address",
          "name": "",
          "type": "address"
        }
      ],
      "name": "Og_minted_address",
      "outputs": [
        {
          "internalType": "uint256",
          "name": "",
          "type": "uint256"
        }
      ],
      "stateMutability": "view",
      "type": "function"
    },
    {
      "inputs": [],
      "name": "PAUSER_ROLE",
      "outputs": [
        {
          "internalType": "bytes32",
          "name": "",
          "type": "bytes32"
        }
      ],
      "stateMutability": "view",
      "type": "function"
    },
    {
      "inputs": [
        {
          "internalType": "address",
          "name": "",
          "type": "address"
        }
      ],
      "name": "WL_user_addresses",
      "outputs": [
        {
          "internalType": "bool",
          "name": "",
          "type": "bool"
        }
      ],
      "stateMutability": "view",
      "type": "function"
    },
    {
      "inputs": [
        {
          "internalType": "address",
          "name": "",
          "type": "address"
        }
      ],
      "name": "amount_paid",
      "outputs": [
        {
          "internalType": "uint256",
          "name": "",
          "type": "uint256"
        }
      ],
      "stateMutability": "view",
      "type": "function"
    },
    {
      "inputs": [
        {
          "internalType": "address",
          "name": "to",
          "type": "address"
        },
        {
          "internalType": "uint256",
          "name": "tokenId",
          "type": "uint256"
        }
      ],
      "name": "approve",
      "outputs": [],
      "stateMutability": "nonpayable",
      "type": "function"
    },
    {
      "inputs": [
        {
          "internalType": "address",
          "name": "owner",
          "type": "address"
        }
      ],
      "name": "balanceOf",
      "outputs": [
        {
          "internalType": "uint256",
          "name": "",
          "type": "uint256"
        }
      ],
      "stateMutability": "view",
      "type": "function"
    },
    {
      "inputs": [],
      "name": "base_url",
      "outputs": [
        {
          "internalType": "string",
          "name": "",
          "type": "string"
        }
      ],
      "stateMutability": "view",
      "type": "function"
    },
    {
      "inputs": [
        {
          "internalType": "uint256",
          "name": "tokenId",
          "type": "uint256"
        }
      ],
      "name": "getApproved",
      "outputs": [
        {
          "internalType": "address",
          "name": "",
          "type": "address"
        }
      ],
      "stateMutability": "view",
      "type": "function"
    },
    {
      "inputs": [
        {
          "internalType": "bytes32",
          "name": "role",
          "type": "bytes32"
        }
      ],
      "name": "getRoleAdmin",
      "outputs": [
        {
          "internalType": "bytes32",
          "name": "",
          "type": "bytes32"
        }
      ],
      "stateMutability": "view",
      "type": "function"
    },
    {
      "inputs": [
        {
          "internalType": "bytes32",
          "name": "role",
          "type": "bytes32"
        },
        {
          "internalType": "address",
          "name": "account",
          "type": "address"
        }
      ],
      "name": "grantRole",
      "outputs": [],
      "stateMutability": "nonpayable",
      "type": "function"
    },
    {
      "inputs": [
        {
          "internalType": "bytes32",
          "name": "role",
          "type": "bytes32"
        },
        {
          "internalType": "address",
          "name": "account",
          "type": "address"
        }
      ],
      "name": "hasRole",
      "outputs": [
        {
          "internalType": "bool",
          "name": "",
          "type": "bool"
        }
      ],
      "stateMutability": "view",
      "type": "function"
    },
    {
      "inputs": [
        {
          "internalType": "address",
          "name": "",
          "type": "address"
        }
      ],
      "name": "has_paid",
      "outputs": [
        {
          "internalType": "bool",
          "name": "",
          "type": "bool"
        }
      ],
      "stateMutability": "view",
      "type": "function"
    },
    {
      "inputs": [
        {
          "internalType": "address",
          "name": "owner",
          "type": "address"
        },
        {
          "internalType": "address",
          "name": "operator",
          "type": "address"
        }
      ],
      "name": "isApprovedForAll",
      "outputs": [
        {
          "internalType": "bool",
          "name": "",
          "type": "bool"
        }
      ],
      "stateMutability": "view",
      "type": "function"
    },
    {
      "inputs": [],
      "name": "mintOG_Limit",
      "outputs": [
        {
          "internalType": "uint256",
          "name": "",
          "type": "uint256"
        }
      ],
      "stateMutability": "view",
      "type": "function"
    },
    {
      "inputs": [],
      "name": "mintOG_price",
      "outputs": [
        {
          "internalType": "uint256",
          "name": "",
          "type": "uint256"
        }
      ],
      "stateMutability": "view",
      "type": "function"
    },
    {
      "inputs": [],
      "name": "mintPublic_Limit",
      "outputs": [
        {
          "internalType": "uint256",
          "name": "",
          "type": "uint256"
        }
      ],
      "stateMutability": "view",
      "type": "function"
    },
    {
      "inputs": [],
      "name": "mintPublic_price",
      "outputs": [
        {
          "internalType": "uint256",
          "name": "",
          "type": "uint256"
        }
      ],
      "stateMutability": "view",
      "type": "function"
    },
    {
      "inputs": [],
      "name": "mintWL_Limit",
      "outputs": [
        {
          "internalType": "uint256",
          "name": "",
          "type": "uint256"
        }
      ],
      "stateMutability": "view",
      "type": "function"
    },
    {
      "inputs": [],
      "name": "mintWL_price",
      "outputs": [
        {
          "internalType": "uint256",
          "name": "",
          "type": "uint256"
        }
      ],
      "stateMutability": "view",
      "type": "function"
    },
    {
      "inputs": [],
      "name": "name",
      "outputs": [
        {
          "internalType": "string",
          "name": "",
          "type": "string"
        }
      ],
      "stateMutability": "view",
      "type": "function"
    },
    {
      "inputs": [],
      "name": "noOfEntry",
      "outputs": [
        {
          "internalType": "uint256",
          "name": "",
          "type": "uint256"
        }
      ],
      "stateMutability": "view",
      "type": "function"
    },
    {
      "inputs": [
        {
          "internalType": "uint256",
          "name": "tokenId",
          "type": "uint256"
        }
      ],
      "name": "ownerOf",
      "outputs": [
        {
          "internalType": "address",
          "name": "",
          "type": "address"
        }
      ],
      "stateMutability": "view",
      "type": "function"
    },
    {
      "inputs": [],
      "name": "paused",
      "outputs": [
        {
          "internalType": "bool",
          "name": "",
          "type": "bool"
        }
      ],
      "stateMutability": "view",
      "type": "function"
    },
    {
      "inputs": [
        {
          "components": [
            {
              "internalType": "address",
              "name": "_user",
              "type": "address"
            },
            {
              "internalType": "uint256",
              "name": "_amount",
              "type": "uint256"
            }
          ],
          "internalType": "struct Thumbs.automint[]",
          "name": "_users",
          "type": "tuple[]"
        }
      ],
      "name": "presaleMint",
      "outputs": [],
      "stateMutability": "nonpayable",
      "type": "function"
    },
    {
      "inputs": [
        {
          "internalType": "uint256",
          "name": "_amount",
          "type": "uint256"
        },
        {
          "internalType": "address",
          "name": "_user",
          "type": "address"
        }
      ],
      "name": "publicMint",
      "outputs": [],
      "stateMutability": "payable",
      "type": "function"
    },
    {
      "inputs": [
        {
          "internalType": "address",
          "name": "",
          "type": "address"
        }
      ],
      "name": "public_minted_address",
      "outputs": [
        {
          "internalType": "uint256",
          "name": "",
          "type": "uint256"
        }
      ],
      "stateMutability": "view",
      "type": "function"
    },
    {
      "inputs": [
        {
          "internalType": "bytes32",
          "name": "role",
          "type": "bytes32"
        },
        {
          "internalType": "address",
          "name": "account",
          "type": "address"
        }
      ],
      "name": "renounceRole",
      "outputs": [],
      "stateMutability": "nonpayable",
      "type": "function"
    },
    {
      "inputs": [
        {
          "internalType": "uint256",
          "name": "_no",
          "type": "uint256"
        }
      ],
      "name": "resetNoOfEntry",
      "outputs": [],
      "stateMutability": "nonpayable",
      "type": "function"
    },
    {
      "inputs": [
        {
          "internalType": "bytes32",
          "name": "role",
          "type": "bytes32"
        },
        {
          "internalType": "address",
          "name": "account",
          "type": "address"
        }
      ],
      "name": "revokeRole",
      "outputs": [],
      "stateMutability": "nonpayable",
      "type": "function"
    },
    {
      "inputs": [
        {
          "internalType": "address",
          "name": "from",
          "type": "address"
        },
        {
          "internalType": "address",
          "name": "to",
          "type": "address"
        },
        {
          "internalType": "uint256",
          "name": "tokenId",
          "type": "uint256"
        }
      ],
      "name": "safeTransferFrom",
      "outputs": [],
      "stateMutability": "nonpayable",
      "type": "function"
    },
    {
      "inputs": [
        {
          "internalType": "address",
          "name": "from",
          "type": "address"
        },
        {
          "internalType": "address",
          "name": "to",
          "type": "address"
        },
        {
          "internalType": "uint256",
          "name": "tokenId",
          "type": "uint256"
        },
        {
          "internalType": "bytes",
          "name": "data",
          "type": "bytes"
        }
      ],
      "name": "safeTransferFrom",
      "outputs": [],
      "stateMutability": "nonpayable",
      "type": "function"
    },
    {
      "inputs": [
        {
          "internalType": "uint256",
          "name": "",
          "type": "uint256"
        }
      ],
      "name": "sequence",
      "outputs": [
        {
          "internalType": "uint256",
          "name": "",
          "type": "uint256"
        }
      ],
      "stateMutability": "view",
      "type": "function"
    },
    {
      "inputs": [
        {
          "internalType": "uint256",
          "name": "",
          "type": "uint256"
        }
      ],
      "name": "sequence_tokenId",
      "outputs": [
        {
          "internalType": "bool",
          "name": "",
          "type": "bool"
        }
      ],
      "stateMutability": "view",
      "type": "function"
    },
    {
      "inputs": [
        {
          "internalType": "address",
          "name": "operator",
          "type": "address"
        },
        {
          "internalType": "bool",
          "name": "approved",
          "type": "bool"
        }
      ],
      "name": "setApprovalForAll",
      "outputs": [],
      "stateMutability": "nonpayable",
      "type": "function"
    },
    {
      "inputs": [
        {
          "internalType": "string",
          "name": "_uri",
          "type": "string"
        }
      ],
      "name": "setBaseUrl",
      "outputs": [],
      "stateMutability": "nonpayable",
      "type": "function"
    },
    {
      "inputs": [
        {
          "internalType": "uint256",
          "name": "_perWalletOGLimit",
          "type": "uint256"
        },
        {
          "internalType": "uint256",
          "name": "_perWalletWLLimit",
          "type": "uint256"
        },
        {
          "internalType": "uint256",
          "name": "_perWalletPublicLimit",
          "type": "uint256"
        }
      ],
      "name": "setMintLimit",
      "outputs": [],
      "stateMutability": "nonpayable",
      "type": "function"
    },
    {
      "inputs": [
        {
          "internalType": "uint256",
          "name": "_OG",
          "type": "uint256"
        },
        {
          "internalType": "uint256",
          "name": "_WL",
          "type": "uint256"
        },
        {
          "internalType": "uint256",
          "name": "_PUBLIC",
          "type": "uint256"
        }
      ],
      "name": "setMintPrice",
      "outputs": [],
      "stateMutability": "nonpayable",
      "type": "function"
    },
    {
      "inputs": [
        {
          "internalType": "uint256",
          "name": "_supply",
          "type": "uint256"
        }
      ],
      "name": "setMintSupply",
      "outputs": [],
      "stateMutability": "nonpayable",
      "type": "function"
    },
    {
      "inputs": [
        {
          "internalType": "bool",
          "name": "_og",
          "type": "bool"
        },
        {
          "internalType": "bool",
          "name": "_wl",
          "type": "bool"
        },
        {
          "internalType": "bool",
          "name": "_public",
          "type": "bool"
        }
      ],
      "name": "setMintType",
      "outputs": [],
      "stateMutability": "nonpayable",
      "type": "function"
    },
    {
      "inputs": [
        {
          "internalType": "address[]",
          "name": "_accounts",
          "type": "address[]"
        }
      ],
      "name": "setOgWhiteList",
      "outputs": [],
      "stateMutability": "nonpayable",
      "type": "function"
    },
    {
      "inputs": [
        {
          "internalType": "uint256[]",
          "name": "_sequence",
          "type": "uint256[]"
        }
      ],
      "name": "setOldSequence",
      "outputs": [],
      "stateMutability": "nonpayable",
      "type": "function"
    },
    {
      "inputs": [
        {
          "internalType": "uint256[]",
          "name": "_sequence",
          "type": "uint256[]"
        }
      ],
      "name": "setSequence",
      "outputs": [],
      "stateMutability": "nonpayable",
      "type": "function"
    },
    {
      "inputs": [
        {
          "internalType": "address",
          "name": "_account",
          "type": "address"
        }
      ],
      "name": "setTreasuryWallet",
      "outputs": [],
      "stateMutability": "nonpayable",
      "type": "function"
    },
    {
      "inputs": [
        {
          "internalType": "address[]",
          "name": "_accounts",
          "type": "address[]"
        }
      ],
      "name": "setWLWhiteList",
      "outputs": [],
      "stateMutability": "nonpayable",
      "type": "function"
    },
    {
      "inputs": [],
      "name": "supply",
      "outputs": [
        {
          "internalType": "uint256",
          "name": "",
          "type": "uint256"
        }
      ],
      "stateMutability": "view",
      "type": "function"
    },
    {
      "inputs": [
        {
          "internalType": "bytes4",
          "name": "interfaceId",
          "type": "bytes4"
        }
      ],
      "name": "supportsInterface",
      "outputs": [
        {
          "internalType": "bool",
          "name": "",
          "type": "bool"
        }
      ],
      "stateMutability": "view",
      "type": "function"
    },
    {
      "inputs": [],
      "name": "symbol",
      "outputs": [
        {
          "internalType": "string",
          "name": "",
          "type": "string"
        }
      ],
      "stateMutability": "view",
      "type": "function"
    },
    {
      "inputs": [
        {
          "internalType": "uint256",
          "name": "tokenId",
          "type": "uint256"
        }
      ],
      "name": "tokenURI",
      "outputs": [
        {
          "internalType": "string",
          "name": "",
          "type": "string"
        }
      ],
      "stateMutability": "view",
      "type": "function"
    },
    {
      "inputs": [],
      "name": "totalSupply",
      "outputs": [
        {
          "internalType": "uint256",
          "name": "",
          "type": "uint256"
        }
      ],
      "stateMutability": "view",
      "type": "function"
    },
    {
      "inputs": [
        {
          "internalType": "address",
          "name": "from",
          "type": "address"
        },
        {
          "internalType": "address",
          "name": "to",
          "type": "address"
        },
        {
          "internalType": "uint256",
          "name": "tokenId",
          "type": "uint256"
        }
      ],
      "name": "transferFrom",
      "outputs": [],
      "stateMutability": "nonpayable",
      "type": "function"
    },
    {
      "inputs": [],
      "name": "treasury",
      "outputs": [
        {
          "internalType": "address",
          "name": "",
          "type": "address"
        }
      ],
      "stateMutability": "view",
      "type": "function"
    },
    {
      "inputs": [
        {
          "internalType": "uint256",
          "name": "_amount",
          "type": "uint256"
        }
      ],
      "name": "treasuryMint",
      "outputs": [],
      "stateMutability": "nonpayable",
      "type": "function"
    },
    {
      "inputs": [],
      "name": "withdraw",
      "outputs": [],
      "stateMutability": "nonpayable",
      "type": "function"
    },
    {
      "inputs": [],
      "name": "withdrawAdmin",
      "outputs": [],
      "stateMutability": "nonpayable",
      "type": "function"
    },
    {
      "inputs": [
        {
          "internalType": "uint256",
          "name": "_amount",
          "type": "uint256"
        },
        {
          "internalType": "address",
          "name": "_user",
          "type": "address"
        }
      ],
      "name": "wlMint",
      "outputs": [],
      "stateMutability": "payable",
      "type": "function"
    },
    {
      "inputs": [
        {
          "internalType": "address",
          "name": "",
          "type": "address"
        }
      ],
      "name": "wl_minted_address",
      "outputs": [
        {
          "internalType": "uint256",
          "name": "",
          "type": "uint256"
        }
      ],
      "stateMutability": "view",
      "type": "function"
    },
    {
      "stateMutability": "payable",
      "type": "receive"
    }
  ],
  "bytecode": "0x60806040526113c16016556000601755604051806080016040528060568152602001620068d860569139601c90816200003991906200064b565b503480156200004757600080fd5b506040516200692e3803806200692e83398181016040528101906200006d91906200079c565b6040518060400160405280600681526020017f5468756d627300000000000000000000000000000000000000000000000000008152506040518060400160405280600681526020017f5448554d425300000000000000000000000000000000000000000000000000008152508160009081620000ea91906200064b565b508060019081620000fc91906200064b565b5050506000600760006101000a81548160ff02191690831515021790555033600c60006101000a81548173ffffffffffffffffffffffffffffffffffffffff021916908373ffffffffffffffffffffffffffffffffffffffff160217905550620001706000801b336200026c60201b60201c565b620001a27f65d7a28e3265b37a6474929f336521b332c1681b933f6cb9f3376673440d862a336200026c60201b60201c565b620001d47f9f2df0fed2c77648de5860a4cc508cd0818c85b8b8a1ab4ceeef8d981c8956a6336200026c60201b60201c565b620001e96000801b826200026c60201b60201c565b6200021b7f65d7a28e3265b37a6474929f336521b332c1681b933f6cb9f3376673440d862a826200026c60201b60201c565b6200024d7f9f2df0fed2c77648de5860a4cc508cd0818c85b8b8a1ab4ceeef8d981c8956a6826200026c60201b60201c565b6000601b819055506000600981905550600260188190555050620007ce565b6200027e82826200035e60201b60201c565b6200035a5760016008600084815260200190815260200160002060000160008373ffffffffffffffffffffffffffffffffffffffff1673ffffffffffffffffffffffffffffffffffffffff16815260200190815260200160002060006101000a81548160ff021916908315150217905550620002ff620003c960201b60201c565b73ffffffffffffffffffffffffffffffffffffffff168173ffffffffffffffffffffffffffffffffffffffff16837f2f8788117e7eff1d82e926ec794901d17c78024a50270940304540a733656f0d60405160405180910390a45b5050565b60006008600084815260200190815260200160002060000160008373ffffffffffffffffffffffffffffffffffffffff1673ffffffffffffffffffffffffffffffffffffffff16815260200190815260200160002060009054906101000a900460ff16905092915050565b600033905090565b600081519050919050565b7f4e487b7100000000000000000000000000000000000000000000000000000000600052604160045260246000fd5b7f4e487b7100000000000000000000000000000000000000000000000000000000600052602260045260246000fd5b600060028204905060018216806200045357607f821691505b6020821081036200046957620004686200040b565b5b50919050565b60008190508160005260206000209050919050565b60006020601f8301049050919050565b600082821b905092915050565b600060088302620004d37fffffffffffffffffffffffffffffffffffffffffffffffffffffffffffffffff8262000494565b620004df868362000494565b95508019841693508086168417925050509392505050565b6000819050919050565b6000819050919050565b60006200052c620005266200052084620004f7565b62000501565b620004f7565b9050919050565b6000819050919050565b62000548836200050b565b62000560620005578262000533565b848454620004a1565b825550505050565b600090565b6200057762000568565b620005848184846200053d565b505050565b5b81811015620005ac57620005a06000826200056d565b6001810190506200058a565b5050565b601f821115620005fb57620005c5816200046f565b620005d08462000484565b81016020851015620005e0578190505b620005f8620005ef8562000484565b83018262000589565b50505b505050565b600082821c905092915050565b6000620006206000198460080262000600565b1980831691505092915050565b60006200063b83836200060d565b9150826002028217905092915050565b6200065682620003d1565b67ffffffffffffffff811115620006725762000671620003dc565b5b6200067e82546200043a565b6200068b828285620005b0565b600060209050601f831160018114620006c35760008415620006ae578287015190505b620006ba85826200062d565b8655506200072a565b601f198416620006d3866200046f565b60005b82811015620006fd57848901518255600182019150602085019450602081019050620006d6565b868310156200071d578489015162000719601f8916826200060d565b8355505b6001600288020188555050505b505050505050565b600080fd5b600073ffffffffffffffffffffffffffffffffffffffff82169050919050565b6000620007648262000737565b9050919050565b620007768162000757565b81146200078257600080fd5b50565b60008151905062000796816200076b565b92915050565b600060208284031215620007b557620007b462000732565b5b6000620007c58482850162000785565b91505092915050565b6160fa80620007de6000396000f3fe60806040526004361061039a5760003560e01c80637192e111116101dc578063b88d4fde11610102578063d5391393116100a0578063e63ab1e91161006f578063e63ab1e914610e7f578063e985e9c514610eaa578063eda1d5e914610ee7578063efdc778814610f2457610481565b8063d539139314610dd7578063d547741f14610e02578063e1497a5514610e2b578063e62f49c914610e5657610481565b8063bf9e4a86116100dc578063bf9e4a8614610d09578063c7c3268b14610d34578063c87b56dd14610d5d578063d3fc8cdf14610d9a57610481565b8063b88d4fde14610c7a578063b92dee7014610ca3578063be14b0b714610ce057610481565b8063a10de0221161017a578063a8602fea11610149578063a8602fea14610bcf578063abe853e314610bf8578063ac568e8414610c35578063b690caca14610c5e57610481565b8063a10de02214610b01578063a217fddf14610b3e578063a22cb46514610b69578063a50dcc6214610b9257610481565b806391d14854116101b657806391d1485414610a4557806393e0cdf214610a8257806395d89b4114610aab5780639b4140ca14610ad657610481565b80637192e111146109c657806381942b68146109ef57806386d77fd414610a1a57610481565b8063319948ba116102c157806342842e0e1161025f5780636352211e1161022e5780636352211e146108e6578063637dd2fc1461092357806370a082311461094c578063711e32151461098957610481565b806342842e0e1461083e5780634e6a2690146108675780635c975abb1461089057806361d027b3146108bb57610481565b806336568abe1161029b57806336568abe146107a557806337ad286a146107ce5780633ccfd60b1461080b57806341a38e7f1461082257610481565b8063319948ba1461071457806333190f701461073d57806333a1bb261461077a57610481565b8063095ea7b31161033957806323b872dd1161030857806323b872dd1461065c578063248a9ca3146106855780632a2308de146106c25780632f2ff15d146106eb57610481565b8063095ea7b3146105b2578063144bee42146105db57806318160ddd1461060657806323297f501461063157610481565b8063047fc9aa11610375578063047fc9aa1461050857806304c76af01461053357806306fdde031461054a578063081812fc1461057557610481565b80621632891461048657806301ffc9a7146104a2578063039122f3146104df57610481565b36610481576001601d60003373ffffffffffffffffffffffffffffffffffffffff1673ffffffffffffffffffffffffffffffffffffffff16815260200190815260200160002060006101000a81548160ff02191690831515021790555034601e60003373ffffffffffffffffffffffffffffffffffffffff1673ffffffffffffffffffffffffffffffffffffffff16815260200190815260200160002081905550343373ffffffffffffffffffffffffffffffffffffffff167f188c4d19b4fadd1889d9bd9bf0ab7c97e0719434751e6c05feac6339c1c001ec60405160405180910390a3005b600080fd5b6104a0600480360381019061049b9190614188565b610f4d565b005b3480156104ae57600080fd5b506104c960048036038101906104c49190614220565b6112ac565b6040516104d69190614268565b60405180910390f35b3480156104eb57600080fd5b5061050660048036038101906105019190614283565b6112be565b005b34801561051457600080fd5b5061051d6112d6565b60405161052a91906142bf565b60405180910390f35b34801561053f57600080fd5b506105486112dc565b005b34801561055657600080fd5b5061055f611366565b60405161056c919061436a565b60405180910390f35b34801561058157600080fd5b5061059c60048036038101906105979190614283565b6113f8565b6040516105a9919061439b565b60405180910390f35b3480156105be57600080fd5b506105d960048036038101906105d491906143b6565b61143e565b005b3480156105e757600080fd5b506105f0611555565b6040516105fd91906142bf565b60405180910390f35b34801561061257600080fd5b5061061b61155b565b60405161062891906142bf565b60405180910390f35b34801561063d57600080fd5b50610646611561565b60405161065391906142bf565b60405180910390f35b34801561066857600080fd5b50610683600480360381019061067e91906143f6565b611567565b005b34801561069157600080fd5b506106ac60048036038101906106a7919061447f565b6115c7565b6040516106b991906144bb565b60405180910390f35b3480156106ce57600080fd5b506106e960048036038101906106e4919061461e565b6115e7565b005b3480156106f757600080fd5b50610712600480360381019061070d9190614667565b611666565b005b34801561072057600080fd5b5061073b600480360381019061073691906146a7565b611687565b005b34801561074957600080fd5b50610764600480360381019061075f91906146fa565b6116af565b60405161077191906142bf565b60405180910390f35b34801561078657600080fd5b5061078f6116c7565b60405161079c919061436a565b60405180910390f35b3480156107b157600080fd5b506107cc60048036038101906107c79190614667565b611755565b005b3480156107da57600080fd5b506107f560048036038101906107f091906146fa565b6117d8565b6040516108029190614268565b60405180910390f35b34801561081757600080fd5b506108206117f8565b005b61083c60048036038101906108379190614188565b6119dc565b005b34801561084a57600080fd5b50610865600480360381019061086091906143f6565b611cab565b005b34801561087357600080fd5b5061088e60048036038101906108899190614753565b611ccb565b005b34801561089c57600080fd5b506108a5611d2c565b6040516108b29190614268565b60405180910390f35b3480156108c757600080fd5b506108d0611d43565b6040516108dd919061439b565b60405180910390f35b3480156108f257600080fd5b5061090d60048036038101906109089190614283565b611d69565b60405161091a919061439b565b60405180910390f35b34801561092f57600080fd5b5061094a60048036038101906109459190614869565b611def565b005b34801561095857600080fd5b50610973600480360381019061096e91906146fa565b611e92565b60405161098091906142bf565b60405180910390f35b34801561099557600080fd5b506109b060048036038101906109ab9190614283565b611f49565b6040516109bd91906142bf565b60405180910390f35b3480156109d257600080fd5b506109ed60048036038101906109e891906146a7565b611f61565b005b3480156109fb57600080fd5b50610a04611f89565b604051610a1191906142bf565b60405180910390f35b348015610a2657600080fd5b50610a2f611f8f565b604051610a3c91906142bf565b60405180910390f35b348015610a5157600080fd5b50610a6c6004803603810190610a679190614667565b611f95565b604051610a799190614268565b60405180910390f35b348015610a8e57600080fd5b50610aa96004803603810190610aa49190614869565b612000565b005b348015610ab757600080fd5b50610ac06120a3565b604051610acd919061436a565b60405180910390f35b348015610ae257600080fd5b50610aeb612135565b604051610af891906142bf565b60405180910390f35b348015610b0d57600080fd5b50610b286004803603810190610b2391906146fa565b61213b565b604051610b3591906142bf565b60405180910390f35b348015610b4a57600080fd5b50610b53612153565b604051610b6091906144bb565b60405180910390f35b348015610b7557600080fd5b50610b906004803603810190610b8b91906148b2565b61215a565b005b348015610b9e57600080fd5b50610bb96004803603810190610bb491906146fa565b612170565b604051610bc69190614268565b60405180910390f35b348015610bdb57600080fd5b50610bf66004803603810190610bf191906146fa565b612190565b005b348015610c0457600080fd5b50610c1f6004803603810190610c1a91906146fa565b6121e2565b604051610c2c91906142bf565b60405180910390f35b348015610c4157600080fd5b50610c5c6004803603810190610c579190614283565b6121fa565b005b610c786004803603810190610c739190614188565b612212565b005b348015610c8657600080fd5b50610ca16004803603810190610c9c91906149a7565b612571565b005b348015610caf57600080fd5b50610cca6004803603810190610cc59190614283565b6125d3565b604051610cd79190614268565b60405180910390f35b348015610cec57600080fd5b50610d076004803603810190610d029190614b42565b6125f3565b005b348015610d1557600080fd5b50610d1e61275d565b604051610d2b91906142bf565b60405180910390f35b348015610d4057600080fd5b50610d5b6004803603810190610d569190614c2c565b612763565b005b348015610d6957600080fd5b50610d846004803603810190610d7f9190614283565b612784565b604051610d91919061436a565b60405180910390f35b348015610da657600080fd5b50610dc16004803603810190610dbc91906146fa565b612796565b604051610dce9190614268565b60405180910390f35b348015610de357600080fd5b50610dec6127b6565b604051610df991906144bb565b60405180910390f35b348015610e0e57600080fd5b50610e296004803603810190610e249190614667565b6127da565b005b348015610e3757600080fd5b50610e406127fb565b604051610e4d91906142bf565b60405180910390f35b348015610e6257600080fd5b50610e7d6004803603810190610e78919061461e565b612801565b005b348015610e8b57600080fd5b50610e94612963565b604051610ea191906144bb565b60405180910390f35b348015610eb657600080fd5b50610ed16004803603810190610ecc9190614c75565b612987565b604051610ede9190614268565b60405180910390f35b348015610ef357600080fd5b50610f0e6004803603810190610f0991906146fa565b612a1b565b604051610f1b91906142bf565b60405180910390f35b348015610f3057600080fd5b50610f4b6004803603810190610f469190614283565b612a33565b005b8181601560009054906101000a900460ff16610f9e576040517f08c379a0000000000000000000000000000000000000000000000000000000008152600401610f9590614d01565b60405180910390fd5b60165482601b54610faf9190614d50565b1115610ff0576040517f08c379a0000000000000000000000000000000000000000000000000000000008152600401610fe790614dd0565b60405180910390fd5b600e60008273ffffffffffffffffffffffffffffffffffffffff1673ffffffffffffffffffffffffffffffffffffffff16815260200190815260200160002060009054906101000a900460ff1661107c576040517f08c379a000000000000000000000000000000000000000000000000000000000815260040161107390614e62565b60405180910390fd5b601854601160008373ffffffffffffffffffffffffffffffffffffffff1673ffffffffffffffffffffffffffffffffffffffff168152602001908152602001600020541115611100576040517f08c379a00000000000000000000000000000000000000000000000000000000081526004016110f790614ece565b60405180910390fd5b60185482601160008473ffffffffffffffffffffffffffffffffffffffff1673ffffffffffffffffffffffffffffffffffffffff1681526020019081526020016000205461114e9190614d50565b111561118f576040517f08c379a000000000000000000000000000000000000000000000000000000000815260040161118690614f3a565b60405180910390fd5b346009548361119e9190614f5a565b11156111df576040517f08c379a00000000000000000000000000000000000000000000000000000000081526004016111d690614fe8565b60405180910390fd5b60005b848110156112a557600060146000601b5481526020019081526020016000205490506001601b60008282546112179190614d50565b925050819055506001601160008773ffffffffffffffffffffffffffffffffffffffff1673ffffffffffffffffffffffffffffffffffffffff168152602001908152602001600020600082825461126e9190614d50565b9250508190555061127f8582612b28565b6112918161128c83612d45565b612d79565b50808061129d90615008565b9150506111e2565b5050505050565b60006112b782612e1d565b9050919050565b6000801b6112cb81612e97565b816017819055505050565b60165481565b6000801b6112e981612e97565b60003373ffffffffffffffffffffffffffffffffffffffff166108fc479081150290604051600060405180830381858888f19350505050905080611362576040517f08c379a00000000000000000000000000000000000000000000000000000000081526004016113599061509c565b60405180910390fd5b5050565b606060008054611375906150eb565b80601f01602080910402602001604051908101604052809291908181526020018280546113a1906150eb565b80156113ee5780601f106113c3576101008083540402835291602001916113ee565b820191906000526020600020905b8154815290600101906020018083116113d157829003601f168201915b5050505050905090565b600061140382612eab565b6004600083815260200190815260200160002060009054906101000a900473ffffffffffffffffffffffffffffffffffffffff169050919050565b600061144982611d69565b90508073ffffffffffffffffffffffffffffffffffffffff168373ffffffffffffffffffffffffffffffffffffffff16036114b9576040517f08c379a00000000000000000000000000000000000000000000000000000000081526004016114b09061518e565b60405180910390fd5b8073ffffffffffffffffffffffffffffffffffffffff166114d8612ef6565b73ffffffffffffffffffffffffffffffffffffffff161480611507575061150681611501612ef6565b612987565b5b611546576040517f08c379a000000000000000000000000000000000000000000000000000000000815260040161153d90615220565b60405180910390fd5b6115508383612efe565b505050565b60175481565b601b5481565b60095481565b611578611572612ef6565b82612fb7565b6115b7576040517f08c379a00000000000000000000000000000000000000000000000000000000081526004016115ae906152b2565b60405180910390fd5b6115c283838361304c565b505050565b600060086000838152602001908152602001600020600101549050919050565b6000801b6115f481612e97565b60005b825181101561166157828181518110611613576116126152d2565b5b6020026020010151601460006017548152602001908152602001600020819055506001601760008282546116479190614d50565b92505081905550808061165990615008565b9150506115f7565b505050565b61166f826115c7565b61167881612e97565b6116828383613345565b505050565b6000801b61169481612e97565b8360098190555082600a8190555081600b8190555050505050565b601e6020528060005260406000206000915090505481565b601c80546116d4906150eb565b80601f0160208091040260200160405190810160405280929190818152602001828054611700906150eb565b801561174d5780601f106117225761010080835404028352916020019161174d565b820191906000526020600020905b81548152906001019060200180831161173057829003601f168201915b505050505081565b61175d612ef6565b73ffffffffffffffffffffffffffffffffffffffff168173ffffffffffffffffffffffffffffffffffffffff16146117ca576040517f08c379a00000000000000000000000000000000000000000000000000000000081526004016117c190615373565b60405180910390fd5b6117d48282613426565b5050565b600f6020528060005260406000206000915054906101000a900460ff1681565b601d60003373ffffffffffffffffffffffffffffffffffffffff1673ffffffffffffffffffffffffffffffffffffffff16815260200190815260200160002060009054906101000a900460ff16611884576040517f08c379a000000000000000000000000000000000000000000000000000000000815260040161187b906153df565b60405180910390fd5b6000601d60003373ffffffffffffffffffffffffffffffffffffffff1673ffffffffffffffffffffffffffffffffffffffff16815260200190815260200160002060006101000a81548160ff0219169083151502179055506000601e60003373ffffffffffffffffffffffffffffffffffffffff1673ffffffffffffffffffffffffffffffffffffffff1681526020019081526020016000208190555060003373ffffffffffffffffffffffffffffffffffffffff166108fc601e60003373ffffffffffffffffffffffffffffffffffffffff1673ffffffffffffffffffffffffffffffffffffffff168152602001908152602001600020549081150290604051600060405180830381858888f193505050509050806119d9576040517f08c379a00000000000000000000000000000000000000000000000000000000081526004016119d09061509c565b60405180910390fd5b50565b601560029054906101000a900460ff16611a2b576040517f08c379a0000000000000000000000000000000000000000000000000000000008152600401611a229061544b565b60405180910390fd5b60165482601b54611a3c9190614d50565b1115611a7d576040517f08c379a0000000000000000000000000000000000000000000000000000000008152600401611a7490614dd0565b60405180910390fd5b601a54601360008373ffffffffffffffffffffffffffffffffffffffff1673ffffffffffffffffffffffffffffffffffffffff168152602001908152602001600020541115611b01576040517f08c379a0000000000000000000000000000000000000000000000000000000008152600401611af8906154b7565b60405180910390fd5b601a5482601360008473ffffffffffffffffffffffffffffffffffffffff1673ffffffffffffffffffffffffffffffffffffffff16815260200190815260200160002054611b4f9190614d50565b1115611b90576040517f08c379a0000000000000000000000000000000000000000000000000000000008152600401611b8790614f3a565b60405180910390fd5b34600b5483611b9f9190614f5a565b1115611be0576040517f08c379a0000000000000000000000000000000000000000000000000000000008152600401611bd790614fe8565b60405180910390fd5b60005b82811015611ca657600060146000601b5481526020019081526020016000205490506001601b6000828254611c189190614d50565b925050819055506001601360008573ffffffffffffffffffffffffffffffffffffffff1673ffffffffffffffffffffffffffffffffffffffff1681526020019081526020016000206000828254611c6f9190614d50565b92505081905550611c808382612b28565b611c9281611c8d83612d45565b612d79565b508080611c9e90615008565b915050611be3565b505050565b611cc683838360405180602001604052806000815250612571565b505050565b6000801b611cd881612e97565b83601560006101000a81548160ff02191690831515021790555082601560016101000a81548160ff02191690831515021790555081601560026101000a81548160ff02191690831515021790555050505050565b6000600760009054906101000a900460ff16905090565b600d60009054906101000a900473ffffffffffffffffffffffffffffffffffffffff1681565b600080611d7583613508565b9050600073ffffffffffffffffffffffffffffffffffffffff168173ffffffffffffffffffffffffffffffffffffffff1603611de6576040517f08c379a0000000000000000000000000000000000000000000000000000000008152600401611ddd90615523565b60405180910390fd5b80915050919050565b6000801b611dfc81612e97565b60005b8251811015611e8d576001600e6000858481518110611e2157611e206152d2565b5b602002602001015173ffffffffffffffffffffffffffffffffffffffff1673ffffffffffffffffffffffffffffffffffffffff16815260200190815260200160002060006101000a81548160ff0219169083151502179055508080611e8590615008565b915050611dff565b505050565b60008073ffffffffffffffffffffffffffffffffffffffff168273ffffffffffffffffffffffffffffffffffffffff1603611f02576040517f08c379a0000000000000000000000000000000000000000000000000000000008152600401611ef9906155b5565b60405180910390fd5b600360008373ffffffffffffffffffffffffffffffffffffffff1673ffffffffffffffffffffffffffffffffffffffff168152602001908152602001600020549050919050565b60146020528060005260406000206000915090505481565b6000801b611f6e81612e97565b836018819055508260198190555081601a8190555050505050565b601a5481565b60195481565b60006008600084815260200190815260200160002060000160008373ffffffffffffffffffffffffffffffffffffffff1673ffffffffffffffffffffffffffffffffffffffff16815260200190815260200160002060009054906101000a900460ff16905092915050565b6000801b61200d81612e97565b60005b825181101561209e576001600f6000858481518110612032576120316152d2565b5b602002602001015173ffffffffffffffffffffffffffffffffffffffff1673ffffffffffffffffffffffffffffffffffffffff16815260200190815260200160002060006101000a81548160ff021916908315150217905550808061209690615008565b915050612010565b505050565b6060600180546120b2906150eb565b80601f01602080910402602001604051908101604052809291908181526020018280546120de906150eb565b801561212b5780601f106121005761010080835404028352916020019161212b565b820191906000526020600020905b81548152906001019060200180831161210e57829003601f168201915b5050505050905090565b60185481565b60116020528060005260406000206000915090505481565b6000801b81565b61216c612165612ef6565b8383613545565b5050565b600e6020528060005260406000206000915054906101000a900460ff1681565b6000801b61219d81612e97565b81600d60006101000a81548173ffffffffffffffffffffffffffffffffffffffff021916908373ffffffffffffffffffffffffffffffffffffffff1602179055505050565b60126020528060005260406000206000915090505481565b6000801b61220781612e97565b816016819055505050565b8181601560019054906101000a900460ff16612263576040517f08c379a000000000000000000000000000000000000000000000000000000000815260040161225a90615621565b60405180910390fd5b60165482601b546122749190614d50565b11156122b5576040517f08c379a00000000000000000000000000000000000000000000000000000000081526004016122ac90614dd0565b60405180910390fd5b600f60008273ffffffffffffffffffffffffffffffffffffffff1673ffffffffffffffffffffffffffffffffffffffff16815260200190815260200160002060009054906101000a900460ff16612341576040517f08c379a0000000000000000000000000000000000000000000000000000000008152600401612338906156b3565b60405180910390fd5b601954601260008373ffffffffffffffffffffffffffffffffffffffff1673ffffffffffffffffffffffffffffffffffffffff1681526020019081526020016000205411156123c5576040517f08c379a00000000000000000000000000000000000000000000000000000000081526004016123bc90614ece565b60405180910390fd5b60195482601260008473ffffffffffffffffffffffffffffffffffffffff1673ffffffffffffffffffffffffffffffffffffffff168152602001908152602001600020546124139190614d50565b1115612454576040517f08c379a000000000000000000000000000000000000000000000000000000000815260040161244b90614f3a565b60405180910390fd5b34600a54836124639190614f5a565b11156124a4576040517f08c379a000000000000000000000000000000000000000000000000000000000815260040161249b90614fe8565b60405180910390fd5b60005b8481101561256a57600060146000601b5481526020019081526020016000205490506001601b60008282546124dc9190614d50565b925050819055506001601260008773ffffffffffffffffffffffffffffffffffffffff1673ffffffffffffffffffffffffffffffffffffffff16815260200190815260200160002060008282546125339190614d50565b925050819055506125448582612b28565b6125568161255183612d45565b612d79565b50808061256290615008565b9150506124a7565b5050505050565b61258261257c612ef6565b83612fb7565b6125c1576040517f08c379a00000000000000000000000000000000000000000000000000000000081526004016125b8906152b2565b60405180910390fd5b6125cd848484846136b1565b50505050565b60106020528060005260406000206000915054906101000a900460ff1681565b7f9f2df0fed2c77648de5860a4cc508cd0818c85b8b8a1ab4ceeef8d981c8956a661261d81612e97565b60005b82518110156127585760005b83828151811061263f5761263e6152d2565b5b60200260200101516020015181101561274457601654848381518110612668576126676152d2565b5b602002602001015160200151601b546126819190614d50565b11156126c2576040517f08c379a00000000000000000000000000000000000000000000000000000000081526004016126b990614dd0565b60405180910390fd5b600060146000601b5481526020019081526020016000205490506001601b60008282546126ef9190614d50565b9250508190555061271e85848151811061270c5761270b6152d2565b5b60200260200101516000015182612b28565b6127308161272b83612d45565b612d79565b50808061273c90615008565b91505061262c565b50808061275090615008565b915050612620565b505050565b600b5481565b6000801b61277081612e97565b81601c908161277f919061587f565b505050565b606061278f82612d45565b9050919050565b601d6020528060005260406000206000915054906101000a900460ff1681565b7f9f2df0fed2c77648de5860a4cc508cd0818c85b8b8a1ab4ceeef8d981c8956a681565b6127e3826115c7565b6127ec81612e97565b6127f68383613426565b505050565b600a5481565b6000801b61280e81612e97565b60005b825181101561295e576001151560106000858481518110612835576128346152d2565b5b6020026020010151815260200190815260200160002060009054906101000a900460ff161515036128b757828181518110612873576128726152d2565b5b60200260200101516040517fcc0c52360000000000000000000000000000000000000000000000000000000081526004016128ae91906142bf565b60405180910390fd5b8281815181106128ca576128c96152d2565b5b602002602001015160146000601754815260200190815260200160002081905550600160106000858481518110612904576129036152d2565b5b6020026020010151815260200190815260200160002060006101000a81548160ff0219169083151502179055506001601760008282546129449190614d50565b92505081905550808061295690615008565b915050612811565b505050565b7f65d7a28e3265b37a6474929f336521b332c1681b933f6cb9f3376673440d862a81565b6000600560008473ffffffffffffffffffffffffffffffffffffffff1673ffffffffffffffffffffffffffffffffffffffff16815260200190815260200160002060008373ffffffffffffffffffffffffffffffffffffffff1673ffffffffffffffffffffffffffffffffffffffff16815260200190815260200160002060009054906101000a900460ff16905092915050565b60136020528060005260406000206000915090505481565b6000801b612a4081612e97565b60165482601b54612a519190614d50565b1115612a92576040517f08c379a0000000000000000000000000000000000000000000000000000000008152600401612a8990614dd0565b60405180910390fd5b60005b82811015612b2357600060146000601b5481526020019081526020016000205490506001601b6000828254612aca9190614d50565b92505081905550612afd600d60009054906101000a900473ffffffffffffffffffffffffffffffffffffffff1682612b28565b612b0f81612b0a83612d45565b612d79565b508080612b1b90615008565b915050612a95565b505050565b600073ffffffffffffffffffffffffffffffffffffffff168273ffffffffffffffffffffffffffffffffffffffff1603612b97576040517f08c379a0000000000000000000000000000000000000000000000000000000008152600401612b8e9061599d565b60405180910390fd5b612ba08161370d565b15612be0576040517f08c379a0000000000000000000000000000000000000000000000000000000008152600401612bd790615a09565b60405180910390fd5b612bee60008383600161374e565b612bf78161370d565b15612c37576040517f08c379a0000000000000000000000000000000000000000000000000000000008152600401612c2e90615a09565b60405180910390fd5b6001600360008473ffffffffffffffffffffffffffffffffffffffff1673ffffffffffffffffffffffffffffffffffffffff16815260200190815260200160002060008282540192505081905550816002600083815260200190815260200160002060006101000a81548173ffffffffffffffffffffffffffffffffffffffff021916908373ffffffffffffffffffffffffffffffffffffffff160217905550808273ffffffffffffffffffffffffffffffffffffffff16600073ffffffffffffffffffffffffffffffffffffffff167fddf252ad1be2c89b69c2b068fc378daa952ba7f163c4a11628f55a4df523b3ef60405160405180910390a4612d41600083836001613874565b5050565b6060601c612d528361387a565b604051602001612d63929190615b34565b6040516020818303038152906040529050919050565b612d828261370d565b612dc1576040517f08c379a0000000000000000000000000000000000000000000000000000000008152600401612db890615bd5565b60405180910390fd5b80600660008481526020019081526020016000209081612de1919061587f565b507ff8e1a15aba9398e019f0b49df1a4fde98ee17ae345cb5f6b5e2c27f5033e8ce782604051612e1191906142bf565b60405180910390a15050565b60007f7965db0b000000000000000000000000000000000000000000000000000000007bffffffffffffffffffffffffffffffffffffffffffffffffffffffff1916827bffffffffffffffffffffffffffffffffffffffffffffffffffffffff19161480612e905750612e8f82613948565b5b9050919050565b612ea881612ea3612ef6565b6139a9565b50565b612eb48161370d565b612ef3576040517f08c379a0000000000000000000000000000000000000000000000000000000008152600401612eea90615523565b60405180910390fd5b50565b600033905090565b816004600083815260200190815260200160002060006101000a81548173ffffffffffffffffffffffffffffffffffffffff021916908373ffffffffffffffffffffffffffffffffffffffff160217905550808273ffffffffffffffffffffffffffffffffffffffff16612f7183611d69565b73ffffffffffffffffffffffffffffffffffffffff167f8c5be1e5ebec7d5bd14f71427d1e84f3dd0314c0f7b2291e5b200ac8c7c3b92560405160405180910390a45050565b600080612fc383611d69565b90508073ffffffffffffffffffffffffffffffffffffffff168473ffffffffffffffffffffffffffffffffffffffff16148061300557506130048185612987565b5b8061304357508373ffffffffffffffffffffffffffffffffffffffff1661302b846113f8565b73ffffffffffffffffffffffffffffffffffffffff16145b91505092915050565b8273ffffffffffffffffffffffffffffffffffffffff1661306c82611d69565b73ffffffffffffffffffffffffffffffffffffffff16146130c2576040517f08c379a00000000000000000000000000000000000000000000000000000000081526004016130b990615c67565b60405180910390fd5b600073ffffffffffffffffffffffffffffffffffffffff168273ffffffffffffffffffffffffffffffffffffffff1603613131576040517f08c379a000000000000000000000000000000000000000000000000000000000815260040161312890615cf9565b60405180910390fd5b61313e838383600161374e565b8273ffffffffffffffffffffffffffffffffffffffff1661315e82611d69565b73ffffffffffffffffffffffffffffffffffffffff16146131b4576040517f08c379a00000000000000000000000000000000000000000000000000000000081526004016131ab90615c67565b60405180910390fd5b6004600082815260200190815260200160002060006101000a81549073ffffffffffffffffffffffffffffffffffffffff02191690556001600360008573ffffffffffffffffffffffffffffffffffffffff1673ffffffffffffffffffffffffffffffffffffffff168152602001908152602001600020600082825403925050819055506001600360008473ffffffffffffffffffffffffffffffffffffffff1673ffffffffffffffffffffffffffffffffffffffff16815260200190815260200160002060008282540192505081905550816002600083815260200190815260200160002060006101000a81548173ffffffffffffffffffffffffffffffffffffffff021916908373ffffffffffffffffffffffffffffffffffffffff160217905550808273ffffffffffffffffffffffffffffffffffffffff168473ffffffffffffffffffffffffffffffffffffffff167fddf252ad1be2c89b69c2b068fc378daa952ba7f163c4a11628f55a4df523b3ef60405160405180910390a46133408383836001613874565b505050565b61334f8282611f95565b6134225760016008600084815260200190815260200160002060000160008373ffffffffffffffffffffffffffffffffffffffff1673ffffffffffffffffffffffffffffffffffffffff16815260200190815260200160002060006101000a81548160ff0219169083151502179055506133c7612ef6565b73ffffffffffffffffffffffffffffffffffffffff168173ffffffffffffffffffffffffffffffffffffffff16837f2f8788117e7eff1d82e926ec794901d17c78024a50270940304540a733656f0d60405160405180910390a45b5050565b6134308282611f95565b156135045760006008600084815260200190815260200160002060000160008373ffffffffffffffffffffffffffffffffffffffff1673ffffffffffffffffffffffffffffffffffffffff16815260200190815260200160002060006101000a81548160ff0219169083151502179055506134a9612ef6565b73ffffffffffffffffffffffffffffffffffffffff168173ffffffffffffffffffffffffffffffffffffffff16837ff6391f5c32d9c69d2a47ea670b442974b53935d1edc7fd64eb21e047a839171b60405160405180910390a45b5050565b60006002600083815260200190815260200160002060009054906101000a900473ffffffffffffffffffffffffffffffffffffffff169050919050565b8173ffffffffffffffffffffffffffffffffffffffff168373ffffffffffffffffffffffffffffffffffffffff16036135b3576040517f08c379a00000000000000000000000000000000000000000000000000000000081526004016135aa90615d65565b60405180910390fd5b80600560008573ffffffffffffffffffffffffffffffffffffffff1673ffffffffffffffffffffffffffffffffffffffff16815260200190815260200160002060008473ffffffffffffffffffffffffffffffffffffffff1673ffffffffffffffffffffffffffffffffffffffff16815260200190815260200160002060006101000a81548160ff0219169083151502179055508173ffffffffffffffffffffffffffffffffffffffff168373ffffffffffffffffffffffffffffffffffffffff167f17307eab39ab6107e8899845ad3d59bd9653f200f220920489ca2b5937696c31836040516136a49190614268565b60405180910390a3505050565b6136bc84848461304c565b6136c884848484613a2e565b613707576040517f08c379a00000000000000000000000000000000000000000000000000000000081526004016136fe90615df7565b60405180910390fd5b50505050565b60008073ffffffffffffffffffffffffffffffffffffffff1661372f83613508565b73ffffffffffffffffffffffffffffffffffffffff1614159050919050565b600181111561386e57600073ffffffffffffffffffffffffffffffffffffffff168473ffffffffffffffffffffffffffffffffffffffff16146137e25780600360008673ffffffffffffffffffffffffffffffffffffffff1673ffffffffffffffffffffffffffffffffffffffff16815260200190815260200160002060008282546137da9190615e17565b925050819055505b600073ffffffffffffffffffffffffffffffffffffffff168373ffffffffffffffffffffffffffffffffffffffff161461386d5780600360008573ffffffffffffffffffffffffffffffffffffffff1673ffffffffffffffffffffffffffffffffffffffff16815260200190815260200160002060008282546138659190614d50565b925050819055505b5b50505050565b50505050565b60606000600161388984613bb5565b01905060008167ffffffffffffffff8111156138a8576138a76144db565b5b6040519080825280601f01601f1916602001820160405280156138da5781602001600182028036833780820191505090505b509050600082602001820190505b60011561393d578080600190039150507f3031323334353637383961626364656600000000000000000000000000000000600a86061a8153600a858161393157613930615e4b565b5b049450600085036138e8575b819350505050919050565b6000634906490660e01b7bffffffffffffffffffffffffffffffffffffffffffffffffffffffff1916827bffffffffffffffffffffffffffffffffffffffffffffffffffffffff191614806139a257506139a182613d08565b5b9050919050565b6139b38282611f95565b613a2a576139c081613dea565b6139ce8360001c6020613e17565b6040516020016139df929190615f12565b6040516020818303038152906040526040517f08c379a0000000000000000000000000000000000000000000000000000000008152600401613a21919061436a565b60405180910390fd5b5050565b6000613a4f8473ffffffffffffffffffffffffffffffffffffffff16614053565b15613ba8578373ffffffffffffffffffffffffffffffffffffffff1663150b7a02613a78612ef6565b8786866040518563ffffffff1660e01b8152600401613a9a9493929190615fa1565b6020604051808303816000875af1925050508015613ad657506040513d601f19601f82011682018060405250810190613ad39190616002565b60015b613b58573d8060008114613b06576040519150601f19603f3d011682016040523d82523d6000602084013e613b0b565b606091505b506000815103613b50576040517f08c379a0000000000000000000000000000000000000000000000000000000008152600401613b4790615df7565b60405180910390fd5b805181602001fd5b63150b7a0260e01b7bffffffffffffffffffffffffffffffffffffffffffffffffffffffff1916817bffffffffffffffffffffffffffffffffffffffffffffffffffffffff191614915050613bad565b600190505b949350505050565b600080600090507a184f03e93ff9f4daa797ed6e38ed64bf6a1f0100000000000000008310613c13577a184f03e93ff9f4daa797ed6e38ed64bf6a1f0100000000000000008381613c0957613c08615e4b565b5b0492506040810190505b6d04ee2d6d415b85acef81000000008310613c50576d04ee2d6d415b85acef81000000008381613c4657613c45615e4b565b5b0492506020810190505b662386f26fc100008310613c7f57662386f26fc100008381613c7557613c74615e4b565b5b0492506010810190505b6305f5e1008310613ca8576305f5e1008381613c9e57613c9d615e4b565b5b0492506008810190505b6127108310613ccd576127108381613cc357613cc2615e4b565b5b0492506004810190505b60648310613cf05760648381613ce657613ce5615e4b565b5b0492506002810190505b600a8310613cff576001810190505b80915050919050565b60007f80ac58cd000000000000000000000000000000000000000000000000000000007bffffffffffffffffffffffffffffffffffffffffffffffffffffffff1916827bffffffffffffffffffffffffffffffffffffffffffffffffffffffff19161480613dd357507f5b5e139f000000000000000000000000000000000000000000000000000000007bffffffffffffffffffffffffffffffffffffffffffffffffffffffff1916827bffffffffffffffffffffffffffffffffffffffffffffffffffffffff1916145b80613de35750613de282614076565b5b9050919050565b6060613e108273ffffffffffffffffffffffffffffffffffffffff16601460ff16613e17565b9050919050565b606060006002836002613e2a9190614f5a565b613e349190614d50565b67ffffffffffffffff811115613e4d57613e4c6144db565b5b6040519080825280601f01601f191660200182016040528015613e7f5781602001600182028036833780820191505090505b5090507f300000000000000000000000000000000000000000000000000000000000000081600081518110613eb757613eb66152d2565b5b60200101907effffffffffffffffffffffffffffffffffffffffffffffffffffffffffffff1916908160001a9053507f780000000000000000000000000000000000000000000000000000000000000081600181518110613f1b57613f1a6152d2565b5b60200101907effffffffffffffffffffffffffffffffffffffffffffffffffffffffffffff1916908160001a90535060006001846002613f5b9190614f5a565b613f659190614d50565b90505b6001811115614005577f3031323334353637383961626364656600000000000000000000000000000000600f861660108110613fa757613fa66152d2565b5b1a60f81b828281518110613fbe57613fbd6152d2565b5b60200101907effffffffffffffffffffffffffffffffffffffffffffffffffffffffffffff1916908160001a905350600485901c945080613ffe9061602f565b9050613f68565b5060008414614049576040517f08c379a0000000000000000000000000000000000000000000000000000000008152600401614040906160a4565b60405180910390fd5b8091505092915050565b6000808273ffffffffffffffffffffffffffffffffffffffff163b119050919050565b60007f01ffc9a7000000000000000000000000000000000000000000000000000000007bffffffffffffffffffffffffffffffffffffffffffffffffffffffff1916827bffffffffffffffffffffffffffffffffffffffffffffffffffffffff1916149050919050565b6000604051905090565b600080fd5b600080fd5b6000819050919050565b614107816140f4565b811461411257600080fd5b50565b600081359050614124816140fe565b92915050565b600073ffffffffffffffffffffffffffffffffffffffff82169050919050565b60006141558261412a565b9050919050565b6141658161414a565b811461417057600080fd5b50565b6000813590506141828161415c565b92915050565b6000806040838503121561419f5761419e6140ea565b5b60006141ad85828601614115565b92505060206141be85828601614173565b9150509250929050565b60007fffffffff0000000000000000000000000000000000000000000000000000000082169050919050565b6141fd816141c8565b811461420857600080fd5b50565b60008135905061421a816141f4565b92915050565b600060208284031215614236576142356140ea565b5b60006142448482850161420b565b91505092915050565b60008115159050919050565b6142628161424d565b82525050565b600060208201905061427d6000830184614259565b92915050565b600060208284031215614299576142986140ea565b5b60006142a784828501614115565b91505092915050565b6142b9816140f4565b82525050565b60006020820190506142d460008301846142b0565b92915050565b600081519050919050565b600082825260208201905092915050565b60005b838110156143145780820151818401526020810190506142f9565b60008484015250505050565b6000601f19601f8301169050919050565b600061433c826142da565b61434681856142e5565b93506143568185602086016142f6565b61435f81614320565b840191505092915050565b600060208201905081810360008301526143848184614331565b905092915050565b6143958161414a565b82525050565b60006020820190506143b0600083018461438c565b92915050565b600080604083850312156143cd576143cc6140ea565b5b60006143db85828601614173565b92505060206143ec85828601614115565b9150509250929050565b60008060006060848603121561440f5761440e6140ea565b5b600061441d86828701614173565b935050602061442e86828701614173565b925050604061443f86828701614115565b9150509250925092565b6000819050919050565b61445c81614449565b811461446757600080fd5b50565b60008135905061447981614453565b92915050565b600060208284031215614495576144946140ea565b5b60006144a38482850161446a565b91505092915050565b6144b581614449565b82525050565b60006020820190506144d060008301846144ac565b92915050565b600080fd5b7f4e487b7100000000000000000000000000000000000000000000000000000000600052604160045260246000fd5b61451382614320565b810181811067ffffffffffffffff82111715614532576145316144db565b5b80604052505050565b60006145456140e0565b9050614551828261450a565b919050565b600067ffffffffffffffff821115614571576145706144db565b5b602082029050602081019050919050565b600080fd5b600061459a61459584614556565b61453b565b905080838252602082019050602084028301858111156145bd576145bc614582565b5b835b818110156145e657806145d28882614115565b8452602084019350506020810190506145bf565b5050509392505050565b600082601f830112614605576146046144d6565b5b8135614615848260208601614587565b91505092915050565b600060208284031215614634576146336140ea565b5b600082013567ffffffffffffffff811115614652576146516140ef565b5b61465e848285016145f0565b91505092915050565b6000806040838503121561467e5761467d6140ea565b5b600061468c8582860161446a565b925050602061469d85828601614173565b9150509250929050565b6000806000606084860312156146c0576146bf6140ea565b5b60006146ce86828701614115565b93505060206146df86828701614115565b92505060406146f086828701614115565b9150509250925092565b6000602082840312156147105761470f6140ea565b5b600061471e84828501614173565b91505092915050565b6147308161424d565b811461473b57600080fd5b50565b60008135905061474d81614727565b92915050565b60008060006060848603121561476c5761476b6140ea565b5b600061477a8682870161473e565b935050602061478b8682870161473e565b925050604061479c8682870161473e565b9150509250925092565b600067ffffffffffffffff8211156147c1576147c06144db565b5b602082029050602081019050919050565b60006147e56147e0846147a6565b61453b565b9050808382526020820190506020840283018581111561480857614807614582565b5b835b81811015614831578061481d8882614173565b84526020840193505060208101905061480a565b5050509392505050565b600082601f8301126148505761484f6144d6565b5b81356148608482602086016147d2565b91505092915050565b60006020828403121561487f5761487e6140ea565b5b600082013567ffffffffffffffff81111561489d5761489c6140ef565b5b6148a98482850161483b565b91505092915050565b600080604083850312156148c9576148c86140ea565b5b60006148d785828601614173565b92505060206148e88582860161473e565b9150509250929050565b600080fd5b600067ffffffffffffffff821115614912576149116144db565b5b61491b82614320565b9050602081019050919050565b82818337600083830152505050565b600061494a614945846148f7565b61453b565b905082815260208101848484011115614966576149656148f2565b5b614971848285614928565b509392505050565b600082601f83011261498e5761498d6144d6565b5b813561499e848260208601614937565b91505092915050565b600080600080608085870312156149c1576149c06140ea565b5b60006149cf87828801614173565b94505060206149e087828801614173565b93505060406149f187828801614115565b925050606085013567ffffffffffffffff811115614a1257614a116140ef565b5b614a1e87828801614979565b91505092959194509250565b600067ffffffffffffffff821115614a4557614a446144db565b5b602082029050602081019050919050565b600080fd5b600060408284031215614a7157614a70614a56565b5b614a7b604061453b565b90506000614a8b84828501614173565b6000830152506020614a9f84828501614115565b60208301525092915050565b6000614abe614ab984614a2a565b61453b565b90508083825260208201905060408402830185811115614ae157614ae0614582565b5b835b81811015614b0a5780614af68882614a5b565b845260208401935050604081019050614ae3565b5050509392505050565b600082601f830112614b2957614b286144d6565b5b8135614b39848260208601614aab565b91505092915050565b600060208284031215614b5857614b576140ea565b5b600082013567ffffffffffffffff811115614b7657614b756140ef565b5b614b8284828501614b14565b91505092915050565b600067ffffffffffffffff821115614ba657614ba56144db565b5b614baf82614320565b9050602081019050919050565b6000614bcf614bca84614b8b565b61453b565b905082815260208101848484011115614beb57614bea6148f2565b5b614bf6848285614928565b509392505050565b600082601f830112614c1357614c126144d6565b5b8135614c23848260208601614bbc565b91505092915050565b600060208284031215614c4257614c416140ea565b5b600082013567ffffffffffffffff811115614c6057614c5f6140ef565b5b614c6c84828501614bfe565b91505092915050565b60008060408385031215614c8c57614c8b6140ea565b5b6000614c9a85828601614173565b9250506020614cab85828601614173565b9150509250929050565b7f4f47206d696e74206973206e6f74206f70656e00000000000000000000000000600082015250565b6000614ceb6013836142e5565b9150614cf682614cb5565b602082019050919050565b60006020820190508181036000830152614d1a81614cde565b9050919050565b7f4e487b7100000000000000000000000000000000000000000000000000000000600052601160045260246000fd5b6000614d5b826140f4565b9150614d66836140f4565b9250828201905080821115614d7e57614d7d614d21565b5b92915050565b7f737570706c792065786365656400000000000000000000000000000000000000600082015250565b6000614dba600d836142e5565b9150614dc582614d84565b602082019050919050565b60006020820190508181036000830152614de981614dad565b9050919050565b7f75736572206973206e6f742077686974656c697374656420666f72206f67206d60008201527f696e740000000000000000000000000000000000000000000000000000000000602082015250565b6000614e4c6023836142e5565b9150614e5782614df0565b604082019050919050565b60006020820190508181036000830152614e7b81614e3f565b9050919050565b7f75736572206d696e74207468657265206e667473000000000000000000000000600082015250565b6000614eb86014836142e5565b9150614ec382614e82565b602082019050919050565b60006020820190508181036000830152614ee781614eab565b9050919050565b7f657865636564206d696e74206c696d6974000000000000000000000000000000600082015250565b6000614f246011836142e5565b9150614f2f82614eee565b602082019050919050565b60006020820190508181036000830152614f5381614f17565b9050919050565b6000614f65826140f4565b9150614f70836140f4565b9250828202614f7e816140f4565b91508282048414831517614f9557614f94614d21565b5b5092915050565b7f757365722070617373206c6f77657220616d6f756e7400000000000000000000600082015250565b6000614fd26016836142e5565b9150614fdd82614f9c565b602082019050919050565b6000602082019050818103600083015261500181614fc5565b9050919050565b6000615013826140f4565b91507fffffffffffffffffffffffffffffffffffffffffffffffffffffffffffffffff820361504557615044614d21565b5b600182019050919050565b7f4574686572207472616e73666572206661696c65642e00000000000000000000600082015250565b60006150866016836142e5565b915061509182615050565b602082019050919050565b600060208201905081810360008301526150b581615079565b9050919050565b7f4e487b7100000000000000000000000000000000000000000000000000000000600052602260045260246000fd5b6000600282049050600182168061510357607f821691505b602082108103615116576151156150bc565b5b50919050565b7f4552433732313a20617070726f76616c20746f2063757272656e74206f776e6560008201527f7200000000000000000000000000000000000000000000000000000000000000602082015250565b60006151786021836142e5565b91506151838261511c565b604082019050919050565b600060208201905081810360008301526151a78161516b565b9050919050565b7f4552433732313a20617070726f76652063616c6c6572206973206e6f7420746f60008201527f6b656e206f776e6572206f7220617070726f76656420666f7220616c6c000000602082015250565b600061520a603d836142e5565b9150615215826151ae565b604082019050919050565b60006020820190508181036000830152615239816151fd565b9050919050565b7f4552433732313a2063616c6c6572206973206e6f7420746f6b656e206f776e6560008201527f72206f7220617070726f76656400000000000000000000000000000000000000602082015250565b600061529c602d836142e5565b91506152a782615240565b604082019050919050565b600060208201905081810360008301526152cb8161528f565b9050919050565b7f4e487b7100000000000000000000000000000000000000000000000000000000600052603260045260246000fd5b7f416363657373436f6e74726f6c3a2063616e206f6e6c792072656e6f756e636560008201527f20726f6c657320666f722073656c660000000000000000000000000000000000602082015250565b600061535d602f836142e5565b915061536882615301565b604082019050919050565b6000602082019050818103600083015261538c81615350565b9050919050565b7f5573657220686173206e6f742079657420706169640000000000000000000000600082015250565b60006153c96015836142e5565b91506153d482615393565b602082019050919050565b600060208201905081810360008301526153f8816153bc565b9050919050565b7f5075626c6963206d696e74206973206e6f74206f70656e000000000000000000600082015250565b60006154356017836142e5565b9150615440826153ff565b602082019050919050565b6000602082019050818103600083015261546481615428565b9050919050565b7f7573657220616c7265616479206d696e74207468657265206e66747300000000600082015250565b60006154a1601c836142e5565b91506154ac8261546b565b602082019050919050565b600060208201905081810360008301526154d081615494565b9050919050565b7f4552433732313a20696e76616c696420746f6b656e2049440000000000000000600082015250565b600061550d6018836142e5565b9150615518826154d7565b602082019050919050565b6000602082019050818103600083015261553c81615500565b9050919050565b7f4552433732313a2061646472657373207a65726f206973206e6f74206120766160008201527f6c6964206f776e65720000000000000000000000000000000000000000000000602082015250565b600061559f6029836142e5565b91506155aa82615543565b604082019050919050565b600060208201905081810360008301526155ce81615592565b9050919050565b7f574c206d696e74206973206e6f74206f70656e00000000000000000000000000600082015250565b600061560b6013836142e5565b9150615616826155d5565b602082019050919050565b6000602082019050818103600083015261563a816155fe565b9050919050565b7f75736572206973206e6f742077686974656c697374656420666f72207768697460008201527f656c6973746564206d696e740000000000000000000000000000000000000000602082015250565b600061569d602c836142e5565b91506156a882615641565b604082019050919050565b600060208201905081810360008301526156cc81615690565b9050919050565b60008190508160005260206000209050919050565b60006020601f8301049050919050565b600082821b905092915050565b6000600883026157357fffffffffffffffffffffffffffffffffffffffffffffffffffffffffffffffff826156f8565b61573f86836156f8565b95508019841693508086168417925050509392505050565b6000819050919050565b600061577c615777615772846140f4565b615757565b6140f4565b9050919050565b6000819050919050565b61579683615761565b6157aa6157a282615783565b848454615705565b825550505050565b600090565b6157bf6157b2565b6157ca81848461578d565b505050565b5b818110156157ee576157e36000826157b7565b6001810190506157d0565b5050565b601f82111561583357615804816156d3565b61580d846156e8565b8101602085101561581c578190505b615830615828856156e8565b8301826157cf565b50505b505050565b600082821c905092915050565b600061585660001984600802615838565b1980831691505092915050565b600061586f8383615845565b9150826002028217905092915050565b615888826142da565b67ffffffffffffffff8111156158a1576158a06144db565b5b6158ab82546150eb565b6158b68282856157f2565b600060209050601f8311600181146158e957600084156158d7578287015190505b6158e18582615863565b865550615949565b601f1984166158f7866156d3565b60005b8281101561591f578489015182556001820191506020850194506020810190506158fa565b8683101561593c5784890151615938601f891682615845565b8355505b6001600288020188555050505b505050505050565b7f4552433732313a206d696e7420746f20746865207a65726f2061646472657373600082015250565b60006159876020836142e5565b915061599282615951565b602082019050919050565b600060208201905081810360008301526159b68161597a565b9050919050565b7f4552433732313a20746f6b656e20616c7265616479206d696e74656400000000600082015250565b60006159f3601c836142e5565b91506159fe826159bd565b602082019050919050565b60006020820190508181036000830152615a22816159e6565b9050919050565b600081905092915050565b60008154615a41816150eb565b615a4b8186615a29565b94506001821660008114615a665760018114615a7b57615aae565b60ff1983168652811515820286019350615aae565b615a84856156d3565b60005b83811015615aa657815481890152600182019150602081019050615a87565b838801955050505b50505092915050565b6000615ac2826142da565b615acc8185615a29565b9350615adc8185602086016142f6565b80840191505092915050565b7f2e6a736f6e000000000000000000000000000000000000000000000000000000600082015250565b6000615b1e600583615a29565b9150615b2982615ae8565b600582019050919050565b6000615b408285615a34565b9150615b4c8284615ab7565b9150615b5782615b11565b91508190509392505050565b7f45524337323155524953746f726167653a2055524920736574206f66206e6f6e60008201527f6578697374656e7420746f6b656e000000000000000000000000000000000000602082015250565b6000615bbf602e836142e5565b9150615bca82615b63565b604082019050919050565b60006020820190508181036000830152615bee81615bb2565b9050919050565b7f4552433732313a207472616e736665722066726f6d20696e636f72726563742060008201527f6f776e6572000000000000000000000000000000000000000000000000000000602082015250565b6000615c516025836142e5565b9150615c5c82615bf5565b604082019050919050565b60006020820190508181036000830152615c8081615c44565b9050919050565b7f4552433732313a207472616e7366657220746f20746865207a65726f2061646460008201527f7265737300000000000000000000000000000000000000000000000000000000602082015250565b6000615ce36024836142e5565b9150615cee82615c87565b604082019050919050565b60006020820190508181036000830152615d1281615cd6565b9050919050565b7f4552433732313a20617070726f766520746f2063616c6c657200000000000000600082015250565b6000615d4f6019836142e5565b9150615d5a82615d19565b602082019050919050565b60006020820190508181036000830152615d7e81615d42565b9050919050565b7f4552433732313a207472616e7366657220746f206e6f6e20455243373231526560008201527f63656976657220696d706c656d656e7465720000000000000000000000000000602082015250565b6000615de16032836142e5565b9150615dec82615d85565b604082019050919050565b60006020820190508181036000830152615e1081615dd4565b9050919050565b6000615e22826140f4565b9150615e2d836140f4565b9250828203905081811115615e4557615e44614d21565b5b92915050565b7f4e487b7100000000000000000000000000000000000000000000000000000000600052601260045260246000fd5b7f416363657373436f6e74726f6c3a206163636f756e7420000000000000000000600082015250565b6000615eb0601783615a29565b9150615ebb82615e7a565b601782019050919050565b7f206973206d697373696e6720726f6c6520000000000000000000000000000000600082015250565b6000615efc601183615a29565b9150615f0782615ec6565b601182019050919050565b6000615f1d82615ea3565b9150615f298285615ab7565b9150615f3482615eef565b9150615f408284615ab7565b91508190509392505050565b600081519050919050565b600082825260208201905092915050565b6000615f7382615f4c565b615f7d8185615f57565b9350615f8d8185602086016142f6565b615f9681614320565b840191505092915050565b6000608082019050615fb6600083018761438c565b615fc3602083018661438c565b615fd060408301856142b0565b8181036060830152615fe28184615f68565b905095945050505050565b600081519050615ffc816141f4565b92915050565b600060208284031215616018576160176140ea565b5b600061602684828501615fed565b91505092915050565b600061603a826140f4565b91506000820361604d5761604c614d21565b5b600182039050919050565b7f537472696e67733a20686578206c656e67746820696e73756666696369656e74600082015250565b600061608e6020836142e5565b915061609982616058565b602082019050919050565b600060208201905081810360008301526160bd81616081565b905091905056fea26469706673582212208bcbfe4a2db34e02e07f95ee97ae90007026676fa259ccc00d2386596adaca2e64736f6c6343000813003368747470733a2f2f697066732e696f2f697066732f62616679626569676b7235733335706f696e6b69713569646372796366657975727779777770787a72617a6673323765653275366c65366d777a6d2f6a736f6e2f",
  "linkReferences": {},
  "deployedLinkReferences": {}
}